{"contracts/HaverClan.sol":{"HaverVoting":{"abi":[{"inputs":[],"stateMutability":"nonpayable","type":"constructor"},{"inputs":[],"name":"OnlySimulatedBackend","type":"error"},{"anonymous":false,"inputs":[{"indexed":true,"internalType":"address","name":"previousOwner","type":"address"},{"indexed":true,"internalType":"address","name":"newOwner","type":"address"}],"name":"OwnershipTransferred","type":"event"},{"inputs":[{"internalType":"uint256","name":"clanId","type":"uint256"},{"internalType":"address","name":"member","type":"address"}],"name":"addMember","outputs":[],"stateMutability":"nonpayable","type":"function"},{"inputs":[{"internalType":"bytes","name":"","type":"bytes"}],"name":"checkUpkeep","outputs":[{"internalType":"bool","name":"upkeepNeeded","type":"bool"},{"internalType":"bytes","name":"","type":"bytes"}],"stateMutability":"view","type":"function"},{"inputs":[{"internalType":"uint256","name":"","type":"uint256"}],"name":"clanIds","outputs":[{"internalType":"uint256","name":"","type":"uint256"}],"stateMutability":"view","type":"function"},{"inputs":[{"internalType":"uint256","name":"","type":"uint256"}],"name":"clans","outputs":[{"internalType":"string","name":"name","type":"string"},{"internalType":"uint256","name":"clanId","type":"uint256"},{"internalType":"address","name":"leader","type":"address"},{"internalType":"uint256","name":"currentVoteId","type":"uint256"},{"internalType":"uint256","name":"lastVoteTime","type":"uint256"},{"internalType":"uint256","name":"lastVoteEndTime","type":"uint256"}],"stateMutability":"view","type":"function"},{"inputs":[{"internalType":"string","name":"_name","type":"string"}],"name":"createClan","outputs":[],"stateMutability":"payable","type":"function"},{"inputs":[{"internalType":"uint256","name":"clanId","type":"uint256"}],"name":"createNewVote","outputs":[],"stateMutability":"nonpayable","type":"function"},{"inputs":[{"internalType":"uint256","name":"clanId","type":"uint256"}],"name":"endVote","outputs":[],"stateMutability":"nonpayable","type":"function"},{"inputs":[],"name":"getAllClans","outputs":[{"internalType":"uint256[]","name":"ids","type":"uint256[]"},{"internalType":"string[]","name":"names","type":"string[]"},{"internalType":"address[]","name":"leaders","type":"address[]"},{"internalType":"address[][]","name":"members","type":"address[][]"},{"internalType":"uint256[]","name":"lastVoteTimes","type":"uint256[]"},{"internalType":"uint256[]","name":"lastVoteEndTimes","type":"uint256[]"}],"stateMutability":"view","type":"function"},{"inputs":[{"internalType":"uint256","name":"clanId","type":"uint256"}],"name":"getClanDetails","outputs":[{"internalType":"string","name":"name","type":"string"},{"internalType":"address[]","name":"members","type":"address[]"},{"internalType":"address","name":"leader","type":"address"},{"internalType":"uint256[]","name":"idsVotes","type":"uint256[]"},{"internalType":"uint256","name":"currentVoteId","type":"uint256"},{"internalType":"uint256","name":"lastVoteTime","type":"uint256"},{"internalType":"uint256","name":"lastVoteEndTime","type":"uint256"}],"stateMutability":"view","type":"function"},{"inputs":[{"internalType":"uint256","name":"clanId","type":"uint256"}],"name":"getClanMembers","outputs":[{"internalType":"address[]","name":"","type":"address[]"}],"stateMutability":"view","type":"function"},{"inputs":[{"internalType":"uint256","name":"clanId","type":"uint256"},{"internalType":"uint256","name":"voteId","type":"uint256"}],"name":"getVoteDetails","outputs":[{"internalType":"address","name":"winningCandidate","type":"address"},{"internalType":"bool","name":"isActive","type":"bool"},{"internalType":"uint256","name":"endTime","type":"uint256"}],"stateMutability":"view","type":"function"},{"inputs":[{"internalType":"uint256","name":"clanId","type":"uint256"},{"internalType":"address","name":"user","type":"address"}],"name":"isMember","outputs":[{"internalType":"bool","name":"","type":"bool"}],"stateMutability":"view","type":"function"},{"inputs":[],"name":"owner","outputs":[{"internalType":"address","name":"","type":"address"}],"stateMutability":"view","type":"function"},{"inputs":[{"internalType":"bytes","name":"","type":"bytes"}],"name":"performUpkeep","outputs":[],"stateMutability":"nonpayable","type":"function"},{"inputs":[],"name":"renounceOwnership","outputs":[],"stateMutability":"nonpayable","type":"function"},{"inputs":[{"internalType":"address","name":"newOwner","type":"address"}],"name":"transferOwnership","outputs":[],"stateMutability":"nonpayable","type":"function"},{"inputs":[{"internalType":"address","name":"","type":"address"}],"name":"userClan","outputs":[{"internalType":"uint256","name":"","type":"uint256"}],"stateMutability":"view","type":"function"},{"inputs":[{"internalType":"uint256","name":"clanId","type":"uint256"},{"internalType":"address","name":"candidate","type":"address"}],"name":"voteForLeader","outputs":[],"stateMutability":"nonpayable","type":"function"},{"inputs":[{"internalType":"uint256","name":"","type":"uint256"}],"name":"votes","outputs":[{"internalType":"uint256","name":"voteId","type":"uint256"},{"internalType":"address","name":"winningCandidate","type":"address"},{"internalType":"bool","name":"isActive","type":"bool"},{"internalType":"uint256","name":"endTime","type":"uint256"}],"stateMutability":"view","type":"function"}],"evm":{"bytecode":{"linkReferences":{},"object":"6080604052655af3107a40006003553480156200001b57600080fd5b506200003c620000306200004260201b60201c565b6200004a60201b60201c565b6200010e565b600033905090565b60008060009054906101000a900473ffffffffffffffffffffffffffffffffffffffff169050816000806101000a81548173ffffffffffffffffffffffffffffffffffffffff021916908373ffffffffffffffffffffffffffffffffffffffff1602179055508173ffffffffffffffffffffffffffffffffffffffff168173ffffffffffffffffffffffffffffffffffffffff167f8be0079c531659141344cd1fd0a4f28419497f9722a3daafe3b4186f6b6457e060405160405180910390a35050565b61398b806200011e6000396000f3fe6080604052600436106101145760003560e01c8063865df0ad116100a0578063afd15b0611610064578063afd15b06146103de578063c39714be1461041b578063e112d7af14610444578063e3274d081461046d578063f2fde38b146104aa57610114565b8063865df0ad146102da5780638698b438146103035780638da5cb5b1461034657806399ee1998146103715780639b21d6eb146103ae57610114565b806366469a3a116100e757806366469a3a146101dd5780636e04ff0d1461021f578063715018a61461025d57806374d0a676146102745780637d9e10f51461029d57610114565b806314cebc711461011957806331c39fa4146101355780634585e33b146101745780635df813301461019d575b600080fd5b610133600480360381019061012e9190612451565b6104d3565b005b34801561014157600080fd5b5061015c600480360381019061015791906124d0565b61078a565b60405161016b9392919061257b565b60405180910390f35b34801561018057600080fd5b5061019b60048036038101906101969190612612565b610803565b005b3480156101a957600080fd5b506101c460048036038101906101bf919061265f565b61094a565b6040516101d4949392919061268c565b60405180910390f35b3480156101e957600080fd5b5061020460048036038101906101ff919061265f565b6109b7565b60405161021696959493929190612750565b60405180910390f35b34801561022b57600080fd5b5061024660048036038101906102419190612612565b610a9b565b60405161025492919061280d565b60405180910390f35b34801561026957600080fd5b50610272610be2565b005b34801561028057600080fd5b5061029b60048036038101906102969190612869565b610bf6565b005b3480156102a957600080fd5b506102c460048036038101906102bf9190612869565b610e99565b6040516102d191906128a9565b60405180910390f35b3480156102e657600080fd5b5061030160048036038101906102fc919061265f565b610fa9565b005b34801561030f57600080fd5b5061032a6004803603810190610325919061265f565b6112a1565b60405161033d9796959493929190612a40565b60405180910390f35b34801561035257600080fd5b5061035b6114d1565b6040516103689190612ac4565b60405180910390f35b34801561037d57600080fd5b506103986004803603810190610393919061265f565b6114fa565b6040516103a59190612adf565b60405180910390f35b3480156103ba57600080fd5b506103c36115eb565b6040516103d596959493929190612d3e565b60405180910390f35b3480156103ea57600080fd5b5061040560048036038101906104009190612dc9565b611a58565b6040516104129190612df6565b60405180910390f35b34801561042757600080fd5b50610442600480360381019061043d919061265f565b611a70565b005b34801561045057600080fd5b5061046b60048036038101906104669190612869565b611c5e565b005b34801561047957600080fd5b50610494600480360381019061048f919061265f565b612012565b6040516104a19190612df6565b60405180910390f35b3480156104b657600080fd5b506104d160048036038101906104cc9190612dc9565b612036565b005b6003543414610517576040517f08c379a000000000000000000000000000000000000000000000000000000000815260040161050e90612e5d565b60405180910390fd5b6000600560003373ffffffffffffffffffffffffffffffffffffffff1673ffffffffffffffffffffffffffffffffffffffff1681526020019081526020016000205414801561057f5750600061056d60016120b9565b148061057e575061057d336120c7565b5b5b6105be576040517f08c379a00000000000000000000000000000000000000000000000000000000081526004016105b590612ec9565b60405180910390fd5b60006105ca60016120b9565b90506000600460008381526020019081526020016000209050818160010181905550828160000190816105fd91906130f5565b5080600201339080600181540180825580915050600190039060005260206000200160009091909190916101000a81548173ffffffffffffffffffffffffffffffffffffffff021916908373ffffffffffffffffffffffffffffffffffffffff160217905550338160030160006101000a81548173ffffffffffffffffffffffffffffffffffffffff021916908373ffffffffffffffffffffffffffffffffffffffff16021790555042816007018190555081600560003373ffffffffffffffffffffffffffffffffffffffff1673ffffffffffffffffffffffffffffffffffffffff1681526020019081526020016000208190555060068290806001815401808255809150506001900390600052602060002001600090919091909150556107266001612197565b600354341115610785573373ffffffffffffffffffffffffffffffffffffffff166108fc6003543461075891906131f6565b9081150290604051600060405180830381858888f19350505050158015610783573d6000803e3d6000fd5b505b505050565b60008060008060046000878152602001908152602001600020600401600086815260200190815260200160002090508060040160009054906101000a900473ffffffffffffffffffffffffffffffffffffffff168160040160149054906101000a900460ff168260050154935093509350509250925092565b6000600680549050905060005b818110156109445760006006828154811061082e5761082d61322a565b5b9060005260206000200154905060006004600083815260200190815260200160002090506000816006015490506000811415801561088e575081600401600082815260200190815260200160002060040160149054906101000a900460ff165b80156108bf575061012c826004016000838152602001908152602001600020600501546108bb9190613259565b4210155b156108ce576108cd83610fa9565b5b61038482600701546108e09190613259565b4210158015610925575060008260060154148061092457508160040160008360060154815260200190815260200160002060040160149054906101000a900460ff16155b5b156109345761093383611a70565b5b5050508080600101915050610810565b50505050565b6007818154811061095a57600080fd5b90600052602060002090600602016000915090508060000154908060040160009054906101000a900473ffffffffffffffffffffffffffffffffffffffff16908060040160149054906101000a900460ff16908060050154905084565b60046020528060005260406000206000915090508060000180546109da90612f18565b80601f0160208091040260200160405190810160405280929190818152602001828054610a0690612f18565b8015610a535780601f10610a2857610100808354040283529160200191610a53565b820191906000526020600020905b815481529060010190602001808311610a3657829003601f168201915b5050505050908060010154908060030160009054906101000a900473ffffffffffffffffffffffffffffffffffffffff16908060060154908060070154908060080154905086565b600060606000806000600680549050905060005b81811015610bcc57600060068281548110610acd57610acc61322a565b5b90600052602060002001549050600060046000838152602001908152602001600020905060008160060154905081600401600082815260200190815260200160002060040160149054906101000a900460ff168015610b51575061012c82600401600083815260200190815260200160002060050154610b4d9190613259565b4210155b15610b5b57600195505b6103848260070154610b6d9190613259565b4210158015610bb25750600082600601541480610bb157508160040160008360060154815260200190815260200160002060040160149054906101000a900460ff16155b5b15610bbc57600196505b5050508080600101915050610aaf565b508280610bd65750815b94505050509250929050565b610bea6121ad565b610bf4600061222b565b565b813373ffffffffffffffffffffffffffffffffffffffff166004600083815260200190815260200160002060030160009054906101000a900473ffffffffffffffffffffffffffffffffffffffff1673ffffffffffffffffffffffffffffffffffffffff1614610c9b576040517f08c379a0000000000000000000000000000000000000000000000000000000008152600401610c92906132ff565b60405180910390fd5b82610ca660016120b9565b8110610ce7576040517f08c379a0000000000000000000000000000000000000000000000000000000008152600401610cde9061336b565b60405180910390fd5b600073ffffffffffffffffffffffffffffffffffffffff168373ffffffffffffffffffffffffffffffffffffffff1603610d56576040517f08c379a0000000000000000000000000000000000000000000000000000000008152600401610d4d906133d7565b60405180910390fd5b6000600560008573ffffffffffffffffffffffffffffffffffffffff1673ffffffffffffffffffffffffffffffffffffffff1681526020019081526020016000205414610dd8576040517f08c379a0000000000000000000000000000000000000000000000000000000008152600401610dcf90613443565b60405180910390fd5b60046000858152602001908152602001600020600201839080600181540180825580915050600190039060005260206000200160009091909190916101000a81548173ffffffffffffffffffffffffffffffffffffffff021916908373ffffffffffffffffffffffffffffffffffffffff16021790555083600560008573ffffffffffffffffffffffffffffffffffffffff1673ffffffffffffffffffffffffffffffffffffffff1681526020019081526020016000208190555050505050565b600082610ea660016120b9565b8110610ee7576040517f08c379a0000000000000000000000000000000000000000000000000000000008152600401610ede9061336b565b60405180910390fd5b600060046000868152602001908152602001600020905060005b8160020180549050811015610f9b578473ffffffffffffffffffffffffffffffffffffffff16826002018281548110610f3d57610f3c61322a565b5b9060005260206000200160009054906101000a900473ffffffffffffffffffffffffffffffffffffffff1673ffffffffffffffffffffffffffffffffffffffff1603610f8e57600193505050610fa2565b8080600101915050610f01565b5060009250505b5092915050565b80610fb460016120b9565b8110610ff5576040517f08c379a0000000000000000000000000000000000000000000000000000000008152600401610fec9061336b565b60405180910390fd5b6000600460008481526020019081526020016000209050600081600601549050600082600401600083815260200190815260200160002090508060040160149054906101000a900460ff1661107f576040517f08c379a0000000000000000000000000000000000000000000000000000000008152600401611076906134af565b60405180910390fd5b80600501544210156110c6576040517f08c379a00000000000000000000000000000000000000000000000000000000081526004016110bd9061351b565b60405180910390fd5b60008060005b85600201805490508110156111bf5760008660020182815481106110f3576110f261322a565b5b9060005260206000200160009054906101000a900473ffffffffffffffffffffffffffffffffffffffff169050828560020160008373ffffffffffffffffffffffffffffffffffffffff1673ffffffffffffffffffffffffffffffffffffffff1681526020019081526020016000205411156111b1578460020160008273ffffffffffffffffffffffffffffffffffffffff1673ffffffffffffffffffffffffffffffffffffffff1681526020019081526020016000205492508093505b5080806001019150506110cc565b50600073ffffffffffffffffffffffffffffffffffffffff168273ffffffffffffffffffffffffffffffffffffffff161461127b57818560030160006101000a81548173ffffffffffffffffffffffffffffffffffffffff021916908373ffffffffffffffffffffffffffffffffffffffff160217905550818360040160006101000a81548173ffffffffffffffffffffffffffffffffffffffff021916908373ffffffffffffffffffffffffffffffffffffffff1602179055505b60008360040160146101000a81548160ff02191690831515021790555050505050505050565b606080600060606000806000876112b860016120b9565b81106112f9576040517f08c379a00000000000000000000000000000000000000000000000000000000081526004016112f09061336b565b60405180910390fd5b6000600460008b8152602001908152602001600020905080600001816002018260030160009054906101000a900473ffffffffffffffffffffffffffffffffffffffff168360050184600601548560070154866008015486805461135c90612f18565b80601f016020809104026020016040519081016040528092919081815260200182805461138890612f18565b80156113d55780601f106113aa576101008083540402835291602001916113d5565b820191906000526020600020905b8154815290600101906020018083116113b857829003601f168201915b505050505096508580548060200260200160405190810160405280929190818152602001828054801561145d57602002820191906000526020600020905b8160009054906101000a900473ffffffffffffffffffffffffffffffffffffffff1673ffffffffffffffffffffffffffffffffffffffff1681526020019060010190808311611413575b50505050509550838054806020026020016040519081016040528092919081815260200182805480156114af57602002820191906000526020600020905b81548152602001906001019080831161149b575b5050505050935098509850985098509850985098505050919395979092949650565b60008060009054906101000a900473ffffffffffffffffffffffffffffffffffffffff16905090565b60608161150760016120b9565b8110611548576040517f08c379a000000000000000000000000000000000000000000000000000000000815260040161153f9061336b565b60405180910390fd5b600460008481526020019081526020016000206002018054806020026020016040519081016040528092919081815260200182805480156115de57602002820191906000526020600020905b8160009054906101000a900473ffffffffffffffffffffffffffffffffffffffff1673ffffffffffffffffffffffffffffffffffffffff1681526020019060010190808311611594575b5050505050915050919050565b606080606080606080600060068054905090508067ffffffffffffffff81111561161857611617612326565b5b6040519080825280602002602001820160405280156116465781602001602082028036833780820191505090505b5096508067ffffffffffffffff81111561166357611662612326565b5b60405190808252806020026020018201604052801561169657816020015b60608152602001906001900390816116815790505b5095508067ffffffffffffffff8111156116b3576116b2612326565b5b6040519080825280602002602001820160405280156116e15781602001602082028036833780820191505090505b5094508067ffffffffffffffff8111156116fe576116fd612326565b5b60405190808252806020026020018201604052801561173157816020015b606081526020019060019003908161171c5790505b5093508067ffffffffffffffff81111561174e5761174d612326565b5b60405190808252806020026020018201604052801561177c5781602001602082028036833780820191505090505b5092508067ffffffffffffffff81111561179957611798612326565b5b6040519080825280602002602001820160405280156117c75781602001602082028036833780820191505090505b50915060005b81811015611a4e576000600682815481106117eb576117ea61322a565b5b90600052602060002001549050600060046000838152602001908152602001600020905080600101548a84815181106118275761182661322a565b5b60200260200101818152505080600001805461184290612f18565b80601f016020809104026020016040519081016040528092919081815260200182805461186e90612f18565b80156118bb5780601f10611890576101008083540402835291602001916118bb565b820191906000526020600020905b81548152906001019060200180831161189e57829003601f168201915b50505050508984815181106118d3576118d261322a565b5b60200260200101819052508060030160009054906101000a900473ffffffffffffffffffffffffffffffffffffffff168884815181106119165761191561322a565b5b602002602001019073ffffffffffffffffffffffffffffffffffffffff16908173ffffffffffffffffffffffffffffffffffffffff1681525050806002018054806020026020016040519081016040528092919081815260200182805480156119d457602002820191906000526020600020905b8160009054906101000a900473ffffffffffffffffffffffffffffffffffffffff1673ffffffffffffffffffffffffffffffffffffffff168152602001906001019080831161198a575b50505050508784815181106119ec576119eb61322a565b5b60200260200101819052508060070154868481518110611a0f57611a0e61322a565b5b6020026020010181815250508060080154858481518110611a3357611a3261322a565b5b602002602001018181525050505080806001019150506117cd565b5050909192939495565b60056020528060005260406000206000915090505481565b80611a7b60016120b9565b8110611abc576040517f08c379a0000000000000000000000000000000000000000000000000000000008152600401611ab39061336b565b60405180910390fd5b60006004600084815260200190815260200160002090506103848160070154611ae59190613259565b421015611b27576040517f08c379a0000000000000000000000000000000000000000000000000000000008152600401611b1e906135ad565b60405180910390fd5b600081600601541480611b6157508060040160008260060154815260200190815260200160002060040160149054906101000a900460ff16155b611ba0576040517f08c379a0000000000000000000000000000000000000000000000000000000008152600401611b9790613619565b60405180910390fd5b6000611bac60026120b9565b90506000826004016000838152602001908152602001600020905081816000018190555060018160040160146101000a81548160ff02191690831515021790555061012c42611bfb9190613259565b81600501819055508183600601819055504283600701819055508060050154836008018190555082600501829080600181540180825580915050600190039060005260206000200160009091909190915055611c576002612197565b5050505050565b81611c698133610e99565b611ca8576040517f08c379a0000000000000000000000000000000000000000000000000000000008152600401611c9f906136ab565b60405180910390fd5b82611cb360016120b9565b8110611cf4576040517f08c379a0000000000000000000000000000000000000000000000000000000008152600401611ceb9061336b565b60405180910390fd5b600060046000868152602001908152602001600020905060008160060154905081600401600082815260200190815260200160002060040160149054906101000a900460ff16611d79576040517f08c379a0000000000000000000000000000000000000000000000000000000008152600401611d70906134af565b60405180910390fd5b816004016000828152602001908152602001600020600501544210611dd3576040517f08c379a0000000000000000000000000000000000000000000000000000000008152600401611dca90613717565b60405180910390fd5b611ddd8686610e99565b611e1c576040517f08c379a0000000000000000000000000000000000000000000000000000000008152600401611e1390613783565b60405180910390fd5b81600401600082815260200190815260200160002060010160003373ffffffffffffffffffffffffffffffffffffffff1673ffffffffffffffffffffffffffffffffffffffff16815260200190815260200160002060009054906101000a900460ff1615611ebf576040517f08c379a0000000000000000000000000000000000000000000000000000000008152600401611eb6906137ef565b60405180910390fd5b60008260040160008381526020019081526020016000209050858160030160003373ffffffffffffffffffffffffffffffffffffffff1673ffffffffffffffffffffffffffffffffffffffff16815260200190815260200160002060006101000a81548173ffffffffffffffffffffffffffffffffffffffff021916908373ffffffffffffffffffffffffffffffffffffffff1602179055508060020160008773ffffffffffffffffffffffffffffffffffffffff1673ffffffffffffffffffffffffffffffffffffffff1681526020019081526020016000206000815480929190611faa9061380f565b919050555060018160010160003373ffffffffffffffffffffffffffffffffffffffff1673ffffffffffffffffffffffffffffffffffffffff16815260200190815260200160002060006101000a81548160ff02191690831515021790555050505050505050565b6006818154811061202257600080fd5b906000526020600020016000915090505481565b61203e6121ad565b600073ffffffffffffffffffffffffffffffffffffffff168173ffffffffffffffffffffffffffffffffffffffff16036120ad576040517f08c379a00000000000000000000000000000000000000000000000000000000081526004016120a4906138c9565b60405180910390fd5b6120b68161222b565b50565b600081600001549050919050565b600080600090505b600460008081526020019081526020016000206002018054905081101561218c578273ffffffffffffffffffffffffffffffffffffffff1660046000808152602001908152602001600020600201828154811061212f5761212e61322a565b5b9060005260206000200160009054906101000a900473ffffffffffffffffffffffffffffffffffffffff1673ffffffffffffffffffffffffffffffffffffffff160361217f576000915050612192565b80806001019150506120cf565b50600190505b919050565b6001816000016000828254019250508190555050565b6121b56122ef565b73ffffffffffffffffffffffffffffffffffffffff166121d36114d1565b73ffffffffffffffffffffffffffffffffffffffff1614612229576040517f08c379a000000000000000000000000000000000000000000000000000000000815260040161222090613935565b60405180910390fd5b565b60008060009054906101000a900473ffffffffffffffffffffffffffffffffffffffff169050816000806101000a81548173ffffffffffffffffffffffffffffffffffffffff021916908373ffffffffffffffffffffffffffffffffffffffff1602179055508173ffffffffffffffffffffffffffffffffffffffff168173ffffffffffffffffffffffffffffffffffffffff167f8be0079c531659141344cd1fd0a4f28419497f9722a3daafe3b4186f6b6457e060405160405180910390a35050565b600033905090565b6000604051905090565b600080fd5b600080fd5b600080fd5b600080fd5b6000601f19601f8301169050919050565b7f4e487b7100000000000000000000000000000000000000000000000000000000600052604160045260246000fd5b61235e82612315565b810181811067ffffffffffffffff8211171561237d5761237c612326565b5b80604052505050565b60006123906122f7565b905061239c8282612355565b919050565b600067ffffffffffffffff8211156123bc576123bb612326565b5b6123c582612315565b9050602081019050919050565b82818337600083830152505050565b60006123f46123ef846123a1565b612386565b9050828152602081018484840111156124105761240f612310565b5b61241b8482856123d2565b509392505050565b600082601f8301126124385761243761230b565b5b81356124488482602086016123e1565b91505092915050565b60006020828403121561246757612466612301565b5b600082013567ffffffffffffffff81111561248557612484612306565b5b61249184828501612423565b91505092915050565b6000819050919050565b6124ad8161249a565b81146124b857600080fd5b50565b6000813590506124ca816124a4565b92915050565b600080604083850312156124e7576124e6612301565b5b60006124f5858286016124bb565b9250506020612506858286016124bb565b9150509250929050565b600073ffffffffffffffffffffffffffffffffffffffff82169050919050565b600061253b82612510565b9050919050565b61254b81612530565b82525050565b60008115159050919050565b61256681612551565b82525050565b6125758161249a565b82525050565b60006060820190506125906000830186612542565b61259d602083018561255d565b6125aa604083018461256c565b949350505050565b600080fd5b600080fd5b60008083601f8401126125d2576125d161230b565b5b8235905067ffffffffffffffff8111156125ef576125ee6125b2565b5b60208301915083600182028301111561260b5761260a6125b7565b5b9250929050565b6000806020838503121561262957612628612301565b5b600083013567ffffffffffffffff81111561264757612646612306565b5b612653858286016125bc565b92509250509250929050565b60006020828403121561267557612674612301565b5b6000612683848285016124bb565b91505092915050565b60006080820190506126a1600083018761256c565b6126ae6020830186612542565b6126bb604083018561255d565b6126c8606083018461256c565b95945050505050565b600081519050919050565b600082825260208201905092915050565b60005b8381101561270b5780820151818401526020810190506126f0565b60008484015250505050565b6000612722826126d1565b61272c81856126dc565b935061273c8185602086016126ed565b61274581612315565b840191505092915050565b600060c082019050818103600083015261276a8189612717565b9050612779602083018861256c565b6127866040830187612542565b612793606083018661256c565b6127a0608083018561256c565b6127ad60a083018461256c565b979650505050505050565b600081519050919050565b600082825260208201905092915050565b60006127df826127b8565b6127e981856127c3565b93506127f98185602086016126ed565b61280281612315565b840191505092915050565b6000604082019050612822600083018561255d565b818103602083015261283481846127d4565b90509392505050565b61284681612530565b811461285157600080fd5b50565b6000813590506128638161283d565b92915050565b600080604083850312156128805761287f612301565b5b600061288e858286016124bb565b925050602061289f85828601612854565b9150509250929050565b60006020820190506128be600083018461255d565b92915050565b600081519050919050565b600082825260208201905092915050565b6000819050602082019050919050565b6128f981612530565b82525050565b600061290b83836128f0565b60208301905092915050565b6000602082019050919050565b600061292f826128c4565b61293981856128cf565b9350612944836128e0565b8060005b8381101561297557815161295c88826128ff565b975061296783612917565b925050600181019050612948565b5085935050505092915050565b600081519050919050565b600082825260208201905092915050565b6000819050602082019050919050565b6129b78161249a565b82525050565b60006129c983836129ae565b60208301905092915050565b6000602082019050919050565b60006129ed82612982565b6129f7818561298d565b9350612a028361299e565b8060005b83811015612a33578151612a1a88826129bd565b9750612a25836129d5565b925050600181019050612a06565b5085935050505092915050565b600060e0820190508181036000830152612a5a818a612717565b90508181036020830152612a6e8189612924565b9050612a7d6040830188612542565b8181036060830152612a8f81876129e2565b9050612a9e608083018661256c565b612aab60a083018561256c565b612ab860c083018461256c565b98975050505050505050565b6000602082019050612ad96000830184612542565b92915050565b60006020820190508181036000830152612af98184612924565b905092915050565b600081519050919050565b600082825260208201905092915050565b6000819050602082019050919050565b600082825260208201905092915050565b6000612b49826126d1565b612b538185612b2d565b9350612b638185602086016126ed565b612b6c81612315565b840191505092915050565b6000612b838383612b3e565b905092915050565b6000602082019050919050565b6000612ba382612b01565b612bad8185612b0c565b935083602082028501612bbf85612b1d565b8060005b85811015612bfb5784840389528151612bdc8582612b77565b9450612be783612b8b565b925060208a01995050600181019050612bc3565b50829750879550505050505092915050565b600081519050919050565b600082825260208201905092915050565b6000819050602082019050919050565b600082825260208201905092915050565b6000612c55826128c4565b612c5f8185612c39565b9350612c6a836128e0565b8060005b83811015612c9b578151612c8288826128ff565b9750612c8d83612917565b925050600181019050612c6e565b5085935050505092915050565b6000612cb48383612c4a565b905092915050565b6000602082019050919050565b6000612cd482612c0d565b612cde8185612c18565b935083602082028501612cf085612c29565b8060005b85811015612d2c5784840389528151612d0d8582612ca8565b9450612d1883612cbc565b925060208a01995050600181019050612cf4565b50829750879550505050505092915050565b600060c0820190508181036000830152612d5881896129e2565b90508181036020830152612d6c8188612b98565b90508181036040830152612d808187612924565b90508181036060830152612d948186612cc9565b90508181036080830152612da881856129e2565b905081810360a0830152612dbc81846129e2565b9050979650505050505050565b600060208284031215612ddf57612dde612301565b5b6000612ded84828501612854565b91505092915050565b6000602082019050612e0b600083018461256c565b92915050565b7f496e636f727265637420616d6f756e742073656e740000000000000000000000600082015250565b6000612e476015836126dc565b9150612e5282612e11565b602082019050919050565b60006020820190508181036000830152612e7681612e3a565b9050919050565b7f596f752061726520696e206f7468657220636c616e0000000000000000000000600082015250565b6000612eb36015836126dc565b9150612ebe82612e7d565b602082019050919050565b60006020820190508181036000830152612ee281612ea6565b9050919050565b7f4e487b7100000000000000000000000000000000000000000000000000000000600052602260045260246000fd5b60006002820490506001821680612f3057607f821691505b602082108103612f4357612f42612ee9565b5b50919050565b60008190508160005260206000209050919050565b60006020601f8301049050919050565b600082821b905092915050565b600060088302612fab7fffffffffffffffffffffffffffffffffffffffffffffffffffffffffffffffff82612f6e565b612fb58683612f6e565b95508019841693508086168417925050509392505050565b6000819050919050565b6000612ff2612fed612fe88461249a565b612fcd565b61249a565b9050919050565b6000819050919050565b61300c83612fd7565b61302061301882612ff9565b848454612f7b565b825550505050565b600090565b613035613028565b613040818484613003565b505050565b5b818110156130645761305960008261302d565b600181019050613046565b5050565b601f8211156130a95761307a81612f49565b61308384612f5e565b81016020851015613092578190505b6130a661309e85612f5e565b830182613045565b50505b505050565b600082821c905092915050565b60006130cc600019846008026130ae565b1980831691505092915050565b60006130e583836130bb565b9150826002028217905092915050565b6130fe826126d1565b67ffffffffffffffff81111561311757613116612326565b5b6131218254612f18565b61312c828285613068565b600060209050601f83116001811461315f576000841561314d578287015190505b61315785826130d9565b8655506131bf565b601f19841661316d86612f49565b60005b8281101561319557848901518255600182019150602085019450602081019050613170565b868310156131b257848901516131ae601f8916826130bb565b8355505b6001600288020188555050505b505050505050565b7f4e487b7100000000000000000000000000000000000000000000000000000000600052601160045260246000fd5b60006132018261249a565b915061320c8361249a565b9250828203905081811115613224576132236131c7565b5b92915050565b7f4e487b7100000000000000000000000000000000000000000000000000000000600052603260045260246000fd5b60006132648261249a565b915061326f8361249a565b9250828201905080821115613287576132866131c7565b5b92915050565b7f596f7520617265206e6f7420746865206c6561646572206f662074686973206360008201527f6c616e2100000000000000000000000000000000000000000000000000000000602082015250565b60006132e96024836126dc565b91506132f48261328d565b604082019050919050565b60006020820190508181036000830152613318816132dc565b9050919050565b7f436c616e20646f6573206e6f7420657869737400000000000000000000000000600082015250565b60006133556013836126dc565b91506133608261331f565b602082019050919050565b6000602082019050818103600083015261338481613348565b9050919050565b7f496e76616c6964206d656d626572206164647265737300000000000000000000600082015250565b60006133c16016836126dc565b91506133cc8261338b565b602082019050919050565b600060208201905081810360008301526133f0816133b4565b9050919050565b7f5573657220697320616c726561647920696e206120636c616e00000000000000600082015250565b600061342d6019836126dc565b9150613438826133f7565b602082019050919050565b6000602082019050818103600083015261345c81613420565b9050919050565b7f4e6f2061637469766520766f746520696e2070726f6772657373000000000000600082015250565b6000613499601a836126dc565b91506134a482613463565b602082019050919050565b600060208201905081810360008301526134c88161348c565b9050919050565b7f54686520766f7465206973207374696c6c206f6e676f696e6700000000000000600082015250565b60006135056019836126dc565b9150613510826134cf565b602082019050919050565b60006020820190508181036000830152613534816134f8565b9050919050565b7f4120766f74652063616e206f6e6c792062652063726561746564206f6e63652060008201527f61206d6f6e746800000000000000000000000000000000000000000000000000602082015250565b60006135976027836126dc565b91506135a28261353b565b604082019050919050565b600060208201905081810360008301526135c68161358a565b9050919050565b7f4120766f746520697320616c7265616479206163746976650000000000000000600082015250565b60006136036018836126dc565b915061360e826135cd565b602082019050919050565b60006020820190508181036000830152613632816135f6565b9050919050565b7f596f7520617265206e6f742061206d656d626572206f66207468697320636c6160008201527f6e00000000000000000000000000000000000000000000000000000000000000602082015250565b60006136956021836126dc565b91506136a082613639565b604082019050919050565b600060208201905081810360008301526136c481613688565b9050919050565b7f54686520766f74652068617320656e6465640000000000000000000000000000600082015250565b60006137016012836126dc565b915061370c826136cb565b602082019050919050565b60006020820190508181036000830152613730816136f4565b9050919050565b7f43616e646964617465206973206e6f74206120636c616e206d656d6265720000600082015250565b600061376d601e836126dc565b915061377882613737565b602082019050919050565b6000602082019050818103600083015261379c81613760565b9050919050565b7f596f75206861766520616c726561647920766f74656400000000000000000000600082015250565b60006137d96016836126dc565b91506137e4826137a3565b602082019050919050565b60006020820190508181036000830152613808816137cc565b9050919050565b600061381a8261249a565b91507fffffffffffffffffffffffffffffffffffffffffffffffffffffffffffffffff820361384c5761384b6131c7565b5b600182019050919050565b7f4f776e61626c653a206e6577206f776e657220697320746865207a65726f206160008201527f6464726573730000000000000000000000000000000000000000000000000000602082015250565b60006138b36026836126dc565b91506138be82613857565b604082019050919050565b600060208201905081810360008301526138e2816138a6565b9050919050565b7f4f776e61626c653a2063616c6c6572206973206e6f7420746865206f776e6572600082015250565b600061391f6020836126dc565b915061392a826138e9565b602082019050919050565b6000602082019050818103600083015261394e81613912565b905091905056fea26469706673582212204eb934184e424ba472d9a6eabe65a5affe6829a8d14d30c8e0a905dee684f92564736f6c63430008180033","opcodes":"PUSH1 0x80 PUSH1 0x40 MSTORE PUSH6 0x5AF3107A4000 PUSH1 0x3 SSTORE CALLVALUE DUP1 ISZERO PUSH3 0x1B JUMPI PUSH1 0x0 DUP1 REVERT JUMPDEST POP PUSH3 0x3C PUSH3 0x30 PUSH3 0x42 PUSH1 0x20 SHL PUSH1 0x20 SHR JUMP JUMPDEST PUSH3 0x4A PUSH1 0x20 SHL PUSH1 0x20 SHR JUMP JUMPDEST PUSH3 0x10E JUMP JUMPDEST PUSH1 0x0 CALLER SWAP1 POP SWAP1 JUMP JUMPDEST PUSH1 0x0 DUP1 PUSH1 0x0 SWAP1 SLOAD SWAP1 PUSH2 0x100 EXP SWAP1 DIV PUSH20 0xFFFFFFFFFFFFFFFFFFFFFFFFFFFFFFFFFFFFFFFF AND SWAP1 POP DUP2 PUSH1 0x0 DUP1 PUSH2 0x100 EXP DUP2 SLOAD DUP2 PUSH20 0xFFFFFFFFFFFFFFFFFFFFFFFFFFFFFFFFFFFFFFFF MUL NOT AND SWAP1 DUP4 PUSH20 0xFFFFFFFFFFFFFFFFFFFFFFFFFFFFFFFFFFFFFFFF AND MUL OR SWAP1 SSTORE POP DUP2 PUSH20 0xFFFFFFFFFFFFFFFFFFFFFFFFFFFFFFFFFFFFFFFF AND DUP2 PUSH20 0xFFFFFFFFFFFFFFFFFFFFFFFFFFFFFFFFFFFFFFFF AND PUSH32 0x8BE0079C531659141344CD1FD0A4F28419497F9722A3DAAFE3B4186F6B6457E0 PUSH1 0x40 MLOAD PUSH1 0x40 MLOAD DUP1 SWAP2 SUB SWAP1 LOG3 POP POP JUMP JUMPDEST PUSH2 0x398B DUP1 PUSH3 0x11E PUSH1 0x0 CODECOPY PUSH1 0x0 RETURN INVALID PUSH1 0x80 PUSH1 0x40 MSTORE PUSH1 0x4 CALLDATASIZE LT PUSH2 0x114 JUMPI PUSH1 0x0 CALLDATALOAD PUSH1 0xE0 SHR DUP1 PUSH4 0x865DF0AD GT PUSH2 0xA0 JUMPI DUP1 PUSH4 0xAFD15B06 GT PUSH2 0x64 JUMPI DUP1 PUSH4 0xAFD15B06 EQ PUSH2 0x3DE JUMPI DUP1 PUSH4 0xC39714BE EQ PUSH2 0x41B JUMPI DUP1 PUSH4 0xE112D7AF EQ PUSH2 0x444 JUMPI DUP1 PUSH4 0xE3274D08 EQ PUSH2 0x46D JUMPI DUP1 PUSH4 0xF2FDE38B EQ PUSH2 0x4AA JUMPI PUSH2 0x114 JUMP JUMPDEST DUP1 PUSH4 0x865DF0AD EQ PUSH2 0x2DA JUMPI DUP1 PUSH4 0x8698B438 EQ PUSH2 0x303 JUMPI DUP1 PUSH4 0x8DA5CB5B EQ PUSH2 0x346 JUMPI DUP1 PUSH4 0x99EE1998 EQ PUSH2 0x371 JUMPI DUP1 PUSH4 0x9B21D6EB EQ PUSH2 0x3AE JUMPI PUSH2 0x114 JUMP JUMPDEST DUP1 PUSH4 0x66469A3A GT PUSH2 0xE7 JUMPI DUP1 PUSH4 0x66469A3A EQ PUSH2 0x1DD JUMPI DUP1 PUSH4 0x6E04FF0D EQ PUSH2 0x21F JUMPI DUP1 PUSH4 0x715018A6 EQ PUSH2 0x25D JUMPI DUP1 PUSH4 0x74D0A676 EQ PUSH2 0x274 JUMPI DUP1 PUSH4 0x7D9E10F5 EQ PUSH2 0x29D JUMPI PUSH2 0x114 JUMP JUMPDEST DUP1 PUSH4 0x14CEBC71 EQ PUSH2 0x119 JUMPI DUP1 PUSH4 0x31C39FA4 EQ PUSH2 0x135 JUMPI DUP1 PUSH4 0x4585E33B EQ PUSH2 0x174 JUMPI DUP1 PUSH4 0x5DF81330 EQ PUSH2 0x19D JUMPI JUMPDEST PUSH1 0x0 DUP1 REVERT JUMPDEST PUSH2 0x133 PUSH1 0x4 DUP1 CALLDATASIZE SUB DUP2 ADD SWAP1 PUSH2 0x12E SWAP2 SWAP1 PUSH2 0x2451 JUMP JUMPDEST PUSH2 0x4D3 JUMP JUMPDEST STOP JUMPDEST CALLVALUE DUP1 ISZERO PUSH2 0x141 JUMPI PUSH1 0x0 DUP1 REVERT JUMPDEST POP PUSH2 0x15C PUSH1 0x4 DUP1 CALLDATASIZE SUB DUP2 ADD SWAP1 PUSH2 0x157 SWAP2 SWAP1 PUSH2 0x24D0 JUMP JUMPDEST PUSH2 0x78A JUMP JUMPDEST PUSH1 0x40 MLOAD PUSH2 0x16B SWAP4 SWAP3 SWAP2 SWAP1 PUSH2 0x257B JUMP JUMPDEST PUSH1 0x40 MLOAD DUP1 SWAP2 SUB SWAP1 RETURN JUMPDEST CALLVALUE DUP1 ISZERO PUSH2 0x180 JUMPI PUSH1 0x0 DUP1 REVERT JUMPDEST POP PUSH2 0x19B PUSH1 0x4 DUP1 CALLDATASIZE SUB DUP2 ADD SWAP1 PUSH2 0x196 SWAP2 SWAP1 PUSH2 0x2612 JUMP JUMPDEST PUSH2 0x803 JUMP JUMPDEST STOP JUMPDEST CALLVALUE DUP1 ISZERO PUSH2 0x1A9 JUMPI PUSH1 0x0 DUP1 REVERT JUMPDEST POP PUSH2 0x1C4 PUSH1 0x4 DUP1 CALLDATASIZE SUB DUP2 ADD SWAP1 PUSH2 0x1BF SWAP2 SWAP1 PUSH2 0x265F JUMP JUMPDEST PUSH2 0x94A JUMP JUMPDEST PUSH1 0x40 MLOAD PUSH2 0x1D4 SWAP5 SWAP4 SWAP3 SWAP2 SWAP1 PUSH2 0x268C JUMP JUMPDEST PUSH1 0x40 MLOAD DUP1 SWAP2 SUB SWAP1 RETURN JUMPDEST CALLVALUE DUP1 ISZERO PUSH2 0x1E9 JUMPI PUSH1 0x0 DUP1 REVERT JUMPDEST POP PUSH2 0x204 PUSH1 0x4 DUP1 CALLDATASIZE SUB DUP2 ADD SWAP1 PUSH2 0x1FF SWAP2 SWAP1 PUSH2 0x265F JUMP JUMPDEST PUSH2 0x9B7 JUMP JUMPDEST PUSH1 0x40 MLOAD PUSH2 0x216 SWAP7 SWAP6 SWAP5 SWAP4 SWAP3 SWAP2 SWAP1 PUSH2 0x2750 JUMP JUMPDEST PUSH1 0x40 MLOAD DUP1 SWAP2 SUB SWAP1 RETURN JUMPDEST CALLVALUE DUP1 ISZERO PUSH2 0x22B JUMPI PUSH1 0x0 DUP1 REVERT JUMPDEST POP PUSH2 0x246 PUSH1 0x4 DUP1 CALLDATASIZE SUB DUP2 ADD SWAP1 PUSH2 0x241 SWAP2 SWAP1 PUSH2 0x2612 JUMP JUMPDEST PUSH2 0xA9B JUMP JUMPDEST PUSH1 0x40 MLOAD PUSH2 0x254 SWAP3 SWAP2 SWAP1 PUSH2 0x280D JUMP JUMPDEST PUSH1 0x40 MLOAD DUP1 SWAP2 SUB SWAP1 RETURN JUMPDEST CALLVALUE DUP1 ISZERO PUSH2 0x269 JUMPI PUSH1 0x0 DUP1 REVERT JUMPDEST POP PUSH2 0x272 PUSH2 0xBE2 JUMP JUMPDEST STOP JUMPDEST CALLVALUE DUP1 ISZERO PUSH2 0x280 JUMPI PUSH1 0x0 DUP1 REVERT JUMPDEST POP PUSH2 0x29B PUSH1 0x4 DUP1 CALLDATASIZE SUB DUP2 ADD SWAP1 PUSH2 0x296 SWAP2 SWAP1 PUSH2 0x2869 JUMP JUMPDEST PUSH2 0xBF6 JUMP JUMPDEST STOP JUMPDEST CALLVALUE DUP1 ISZERO PUSH2 0x2A9 JUMPI PUSH1 0x0 DUP1 REVERT JUMPDEST POP PUSH2 0x2C4 PUSH1 0x4 DUP1 CALLDATASIZE SUB DUP2 ADD SWAP1 PUSH2 0x2BF SWAP2 SWAP1 PUSH2 0x2869 JUMP JUMPDEST PUSH2 0xE99 JUMP JUMPDEST PUSH1 0x40 MLOAD PUSH2 0x2D1 SWAP2 SWAP1 PUSH2 0x28A9 JUMP JUMPDEST PUSH1 0x40 MLOAD DUP1 SWAP2 SUB SWAP1 RETURN JUMPDEST CALLVALUE DUP1 ISZERO PUSH2 0x2E6 JUMPI PUSH1 0x0 DUP1 REVERT JUMPDEST POP PUSH2 0x301 PUSH1 0x4 DUP1 CALLDATASIZE SUB DUP2 ADD SWAP1 PUSH2 0x2FC SWAP2 SWAP1 PUSH2 0x265F JUMP JUMPDEST PUSH2 0xFA9 JUMP JUMPDEST STOP JUMPDEST CALLVALUE DUP1 ISZERO PUSH2 0x30F JUMPI PUSH1 0x0 DUP1 REVERT JUMPDEST POP PUSH2 0x32A PUSH1 0x4 DUP1 CALLDATASIZE SUB DUP2 ADD SWAP1 PUSH2 0x325 SWAP2 SWAP1 PUSH2 0x265F JUMP JUMPDEST PUSH2 0x12A1 JUMP JUMPDEST PUSH1 0x40 MLOAD PUSH2 0x33D SWAP8 SWAP7 SWAP6 SWAP5 SWAP4 SWAP3 SWAP2 SWAP1 PUSH2 0x2A40 JUMP JUMPDEST PUSH1 0x40 MLOAD DUP1 SWAP2 SUB SWAP1 RETURN JUMPDEST CALLVALUE DUP1 ISZERO PUSH2 0x352 JUMPI PUSH1 0x0 DUP1 REVERT JUMPDEST POP PUSH2 0x35B PUSH2 0x14D1 JUMP JUMPDEST PUSH1 0x40 MLOAD PUSH2 0x368 SWAP2 SWAP1 PUSH2 0x2AC4 JUMP JUMPDEST PUSH1 0x40 MLOAD DUP1 SWAP2 SUB SWAP1 RETURN JUMPDEST CALLVALUE DUP1 ISZERO PUSH2 0x37D JUMPI PUSH1 0x0 DUP1 REVERT JUMPDEST POP PUSH2 0x398 PUSH1 0x4 DUP1 CALLDATASIZE SUB DUP2 ADD SWAP1 PUSH2 0x393 SWAP2 SWAP1 PUSH2 0x265F JUMP JUMPDEST PUSH2 0x14FA JUMP JUMPDEST PUSH1 0x40 MLOAD PUSH2 0x3A5 SWAP2 SWAP1 PUSH2 0x2ADF JUMP JUMPDEST PUSH1 0x40 MLOAD DUP1 SWAP2 SUB SWAP1 RETURN JUMPDEST CALLVALUE DUP1 ISZERO PUSH2 0x3BA JUMPI PUSH1 0x0 DUP1 REVERT JUMPDEST POP PUSH2 0x3C3 PUSH2 0x15EB JUMP JUMPDEST PUSH1 0x40 MLOAD PUSH2 0x3D5 SWAP7 SWAP6 SWAP5 SWAP4 SWAP3 SWAP2 SWAP1 PUSH2 0x2D3E JUMP JUMPDEST PUSH1 0x40 MLOAD DUP1 SWAP2 SUB SWAP1 RETURN JUMPDEST CALLVALUE DUP1 ISZERO PUSH2 0x3EA JUMPI PUSH1 0x0 DUP1 REVERT JUMPDEST POP PUSH2 0x405 PUSH1 0x4 DUP1 CALLDATASIZE SUB DUP2 ADD SWAP1 PUSH2 0x400 SWAP2 SWAP1 PUSH2 0x2DC9 JUMP JUMPDEST PUSH2 0x1A58 JUMP JUMPDEST PUSH1 0x40 MLOAD PUSH2 0x412 SWAP2 SWAP1 PUSH2 0x2DF6 JUMP JUMPDEST PUSH1 0x40 MLOAD DUP1 SWAP2 SUB SWAP1 RETURN JUMPDEST CALLVALUE DUP1 ISZERO PUSH2 0x427 JUMPI PUSH1 0x0 DUP1 REVERT JUMPDEST POP PUSH2 0x442 PUSH1 0x4 DUP1 CALLDATASIZE SUB DUP2 ADD SWAP1 PUSH2 0x43D SWAP2 SWAP1 PUSH2 0x265F JUMP JUMPDEST PUSH2 0x1A70 JUMP JUMPDEST STOP JUMPDEST CALLVALUE DUP1 ISZERO PUSH2 0x450 JUMPI PUSH1 0x0 DUP1 REVERT JUMPDEST POP PUSH2 0x46B PUSH1 0x4 DUP1 CALLDATASIZE SUB DUP2 ADD SWAP1 PUSH2 0x466 SWAP2 SWAP1 PUSH2 0x2869 JUMP JUMPDEST PUSH2 0x1C5E JUMP JUMPDEST STOP JUMPDEST CALLVALUE DUP1 ISZERO PUSH2 0x479 JUMPI PUSH1 0x0 DUP1 REVERT JUMPDEST POP PUSH2 0x494 PUSH1 0x4 DUP1 CALLDATASIZE SUB DUP2 ADD SWAP1 PUSH2 0x48F SWAP2 SWAP1 PUSH2 0x265F JUMP JUMPDEST PUSH2 0x2012 JUMP JUMPDEST PUSH1 0x40 MLOAD PUSH2 0x4A1 SWAP2 SWAP1 PUSH2 0x2DF6 JUMP JUMPDEST PUSH1 0x40 MLOAD DUP1 SWAP2 SUB SWAP1 RETURN JUMPDEST CALLVALUE DUP1 ISZERO PUSH2 0x4B6 JUMPI PUSH1 0x0 DUP1 REVERT JUMPDEST POP PUSH2 0x4D1 PUSH1 0x4 DUP1 CALLDATASIZE SUB DUP2 ADD SWAP1 PUSH2 0x4CC SWAP2 SWAP1 PUSH2 0x2DC9 JUMP JUMPDEST PUSH2 0x2036 JUMP JUMPDEST STOP JUMPDEST PUSH1 0x3 SLOAD CALLVALUE EQ PUSH2 0x517 JUMPI PUSH1 0x40 MLOAD PUSH32 0x8C379A000000000000000000000000000000000000000000000000000000000 DUP2 MSTORE PUSH1 0x4 ADD PUSH2 0x50E SWAP1 PUSH2 0x2E5D JUMP JUMPDEST PUSH1 0x40 MLOAD DUP1 SWAP2 SUB SWAP1 REVERT JUMPDEST PUSH1 0x0 PUSH1 0x5 PUSH1 0x0 CALLER PUSH20 0xFFFFFFFFFFFFFFFFFFFFFFFFFFFFFFFFFFFFFFFF AND PUSH20 0xFFFFFFFFFFFFFFFFFFFFFFFFFFFFFFFFFFFFFFFF AND DUP2 MSTORE PUSH1 0x20 ADD SWAP1 DUP2 MSTORE PUSH1 0x20 ADD PUSH1 0x0 KECCAK256 SLOAD EQ DUP1 ISZERO PUSH2 0x57F JUMPI POP PUSH1 0x0 PUSH2 0x56D PUSH1 0x1 PUSH2 0x20B9 JUMP JUMPDEST EQ DUP1 PUSH2 0x57E JUMPI POP PUSH2 0x57D CALLER PUSH2 0x20C7 JUMP JUMPDEST JUMPDEST JUMPDEST PUSH2 0x5BE JUMPI PUSH1 0x40 MLOAD PUSH32 0x8C379A000000000000000000000000000000000000000000000000000000000 DUP2 MSTORE PUSH1 0x4 ADD PUSH2 0x5B5 SWAP1 PUSH2 0x2EC9 JUMP JUMPDEST PUSH1 0x40 MLOAD DUP1 SWAP2 SUB SWAP1 REVERT JUMPDEST PUSH1 0x0 PUSH2 0x5CA PUSH1 0x1 PUSH2 0x20B9 JUMP JUMPDEST SWAP1 POP PUSH1 0x0 PUSH1 0x4 PUSH1 0x0 DUP4 DUP2 MSTORE PUSH1 0x20 ADD SWAP1 DUP2 MSTORE PUSH1 0x20 ADD PUSH1 0x0 KECCAK256 SWAP1 POP DUP2 DUP2 PUSH1 0x1 ADD DUP2 SWAP1 SSTORE POP DUP3 DUP2 PUSH1 0x0 ADD SWAP1 DUP2 PUSH2 0x5FD SWAP2 SWAP1 PUSH2 0x30F5 JUMP JUMPDEST POP DUP1 PUSH1 0x2 ADD CALLER SWAP1 DUP1 PUSH1 0x1 DUP2 SLOAD ADD DUP1 DUP3 SSTORE DUP1 SWAP2 POP POP PUSH1 0x1 SWAP1 SUB SWAP1 PUSH1 0x0 MSTORE PUSH1 0x20 PUSH1 0x0 KECCAK256 ADD PUSH1 0x0 SWAP1 SWAP2 SWAP1 SWAP2 SWAP1 SWAP2 PUSH2 0x100 EXP DUP2 SLOAD DUP2 PUSH20 0xFFFFFFFFFFFFFFFFFFFFFFFFFFFFFFFFFFFFFFFF MUL NOT AND SWAP1 DUP4 PUSH20 0xFFFFFFFFFFFFFFFFFFFFFFFFFFFFFFFFFFFFFFFF AND MUL OR SWAP1 SSTORE POP CALLER DUP2 PUSH1 0x3 ADD PUSH1 0x0 PUSH2 0x100 EXP DUP2 SLOAD DUP2 PUSH20 0xFFFFFFFFFFFFFFFFFFFFFFFFFFFFFFFFFFFFFFFF MUL NOT AND SWAP1 DUP4 PUSH20 0xFFFFFFFFFFFFFFFFFFFFFFFFFFFFFFFFFFFFFFFF AND MUL OR SWAP1 SSTORE POP TIMESTAMP DUP2 PUSH1 0x7 ADD DUP2 SWAP1 SSTORE POP DUP2 PUSH1 0x5 PUSH1 0x0 CALLER PUSH20 0xFFFFFFFFFFFFFFFFFFFFFFFFFFFFFFFFFFFFFFFF AND PUSH20 0xFFFFFFFFFFFFFFFFFFFFFFFFFFFFFFFFFFFFFFFF AND DUP2 MSTORE PUSH1 0x20 ADD SWAP1 DUP2 MSTORE PUSH1 0x20 ADD PUSH1 0x0 KECCAK256 DUP2 SWAP1 SSTORE POP PUSH1 0x6 DUP3 SWAP1 DUP1 PUSH1 0x1 DUP2 SLOAD ADD DUP1 DUP3 SSTORE DUP1 SWAP2 POP POP PUSH1 0x1 SWAP1 SUB SWAP1 PUSH1 0x0 MSTORE PUSH1 0x20 PUSH1 0x0 KECCAK256 ADD PUSH1 0x0 SWAP1 SWAP2 SWAP1 SWAP2 SWAP1 SWAP2 POP SSTORE PUSH2 0x726 PUSH1 0x1 PUSH2 0x2197 JUMP JUMPDEST PUSH1 0x3 SLOAD CALLVALUE GT ISZERO PUSH2 0x785 JUMPI CALLER PUSH20 0xFFFFFFFFFFFFFFFFFFFFFFFFFFFFFFFFFFFFFFFF AND PUSH2 0x8FC PUSH1 0x3 SLOAD CALLVALUE PUSH2 0x758 SWAP2 SWAP1 PUSH2 0x31F6 JUMP JUMPDEST SWAP1 DUP2 ISZERO MUL SWAP1 PUSH1 0x40 MLOAD PUSH1 0x0 PUSH1 0x40 MLOAD DUP1 DUP4 SUB DUP2 DUP6 DUP9 DUP9 CALL SWAP4 POP POP POP POP ISZERO DUP1 ISZERO PUSH2 0x783 JUMPI RETURNDATASIZE PUSH1 0x0 DUP1 RETURNDATACOPY RETURNDATASIZE PUSH1 0x0 REVERT JUMPDEST POP JUMPDEST POP POP POP JUMP JUMPDEST PUSH1 0x0 DUP1 PUSH1 0x0 DUP1 PUSH1 0x4 PUSH1 0x0 DUP8 DUP2 MSTORE PUSH1 0x20 ADD SWAP1 DUP2 MSTORE PUSH1 0x20 ADD PUSH1 0x0 KECCAK256 PUSH1 0x4 ADD PUSH1 0x0 DUP7 DUP2 MSTORE PUSH1 0x20 ADD SWAP1 DUP2 MSTORE PUSH1 0x20 ADD PUSH1 0x0 KECCAK256 SWAP1 POP DUP1 PUSH1 0x4 ADD PUSH1 0x0 SWAP1 SLOAD SWAP1 PUSH2 0x100 EXP SWAP1 DIV PUSH20 0xFFFFFFFFFFFFFFFFFFFFFFFFFFFFFFFFFFFFFFFF AND DUP2 PUSH1 0x4 ADD PUSH1 0x14 SWAP1 SLOAD SWAP1 PUSH2 0x100 EXP SWAP1 DIV PUSH1 0xFF AND DUP3 PUSH1 0x5 ADD SLOAD SWAP4 POP SWAP4 POP SWAP4 POP POP SWAP3 POP SWAP3 POP SWAP3 JUMP JUMPDEST PUSH1 0x0 PUSH1 0x6 DUP1 SLOAD SWAP1 POP SWAP1 POP PUSH1 0x0 JUMPDEST DUP2 DUP2 LT ISZERO PUSH2 0x944 JUMPI PUSH1 0x0 PUSH1 0x6 DUP3 DUP2 SLOAD DUP2 LT PUSH2 0x82E JUMPI PUSH2 0x82D PUSH2 0x322A JUMP JUMPDEST JUMPDEST SWAP1 PUSH1 0x0 MSTORE PUSH1 0x20 PUSH1 0x0 KECCAK256 ADD SLOAD SWAP1 POP PUSH1 0x0 PUSH1 0x4 PUSH1 0x0 DUP4 DUP2 MSTORE PUSH1 0x20 ADD SWAP1 DUP2 MSTORE PUSH1 0x20 ADD PUSH1 0x0 KECCAK256 SWAP1 POP PUSH1 0x0 DUP2 PUSH1 0x6 ADD SLOAD SWAP1 POP PUSH1 0x0 DUP2 EQ ISZERO DUP1 ISZERO PUSH2 0x88E JUMPI POP DUP2 PUSH1 0x4 ADD PUSH1 0x0 DUP3 DUP2 MSTORE PUSH1 0x20 ADD SWAP1 DUP2 MSTORE PUSH1 0x20 ADD PUSH1 0x0 KECCAK256 PUSH1 0x4 ADD PUSH1 0x14 SWAP1 SLOAD SWAP1 PUSH2 0x100 EXP SWAP1 DIV PUSH1 0xFF AND JUMPDEST DUP1 ISZERO PUSH2 0x8BF JUMPI POP PUSH2 0x12C DUP3 PUSH1 0x4 ADD PUSH1 0x0 DUP4 DUP2 MSTORE PUSH1 0x20 ADD SWAP1 DUP2 MSTORE PUSH1 0x20 ADD PUSH1 0x0 KECCAK256 PUSH1 0x5 ADD SLOAD PUSH2 0x8BB SWAP2 SWAP1 PUSH2 0x3259 JUMP JUMPDEST TIMESTAMP LT ISZERO JUMPDEST ISZERO PUSH2 0x8CE JUMPI PUSH2 0x8CD DUP4 PUSH2 0xFA9 JUMP JUMPDEST JUMPDEST PUSH2 0x384 DUP3 PUSH1 0x7 ADD SLOAD PUSH2 0x8E0 SWAP2 SWAP1 PUSH2 0x3259 JUMP JUMPDEST TIMESTAMP LT ISZERO DUP1 ISZERO PUSH2 0x925 JUMPI POP PUSH1 0x0 DUP3 PUSH1 0x6 ADD SLOAD EQ DUP1 PUSH2 0x924 JUMPI POP DUP2 PUSH1 0x4 ADD PUSH1 0x0 DUP4 PUSH1 0x6 ADD SLOAD DUP2 MSTORE PUSH1 0x20 ADD SWAP1 DUP2 MSTORE PUSH1 0x20 ADD PUSH1 0x0 KECCAK256 PUSH1 0x4 ADD PUSH1 0x14 SWAP1 SLOAD SWAP1 PUSH2 0x100 EXP SWAP1 DIV PUSH1 0xFF AND ISZERO JUMPDEST JUMPDEST ISZERO PUSH2 0x934 JUMPI PUSH2 0x933 DUP4 PUSH2 0x1A70 JUMP JUMPDEST JUMPDEST POP POP POP DUP1 DUP1 PUSH1 0x1 ADD SWAP2 POP POP PUSH2 0x810 JUMP JUMPDEST POP POP POP POP JUMP JUMPDEST PUSH1 0x7 DUP2 DUP2 SLOAD DUP2 LT PUSH2 0x95A JUMPI PUSH1 0x0 DUP1 REVERT JUMPDEST SWAP1 PUSH1 0x0 MSTORE PUSH1 0x20 PUSH1 0x0 KECCAK256 SWAP1 PUSH1 0x6 MUL ADD PUSH1 0x0 SWAP2 POP SWAP1 POP DUP1 PUSH1 0x0 ADD SLOAD SWAP1 DUP1 PUSH1 0x4 ADD PUSH1 0x0 SWAP1 SLOAD SWAP1 PUSH2 0x100 EXP SWAP1 DIV PUSH20 0xFFFFFFFFFFFFFFFFFFFFFFFFFFFFFFFFFFFFFFFF AND SWAP1 DUP1 PUSH1 0x4 ADD PUSH1 0x14 SWAP1 SLOAD SWAP1 PUSH2 0x100 EXP SWAP1 DIV PUSH1 0xFF AND SWAP1 DUP1 PUSH1 0x5 ADD SLOAD SWAP1 POP DUP5 JUMP JUMPDEST PUSH1 0x4 PUSH1 0x20 MSTORE DUP1 PUSH1 0x0 MSTORE PUSH1 0x40 PUSH1 0x0 KECCAK256 PUSH1 0x0 SWAP2 POP SWAP1 POP DUP1 PUSH1 0x0 ADD DUP1 SLOAD PUSH2 0x9DA SWAP1 PUSH2 0x2F18 JUMP JUMPDEST DUP1 PUSH1 0x1F ADD PUSH1 0x20 DUP1 SWAP2 DIV MUL PUSH1 0x20 ADD PUSH1 0x40 MLOAD SWAP1 DUP2 ADD PUSH1 0x40 MSTORE DUP1 SWAP3 SWAP2 SWAP1 DUP2 DUP2 MSTORE PUSH1 0x20 ADD DUP3 DUP1 SLOAD PUSH2 0xA06 SWAP1 PUSH2 0x2F18 JUMP JUMPDEST DUP1 ISZERO PUSH2 0xA53 JUMPI DUP1 PUSH1 0x1F LT PUSH2 0xA28 JUMPI PUSH2 0x100 DUP1 DUP4 SLOAD DIV MUL DUP4 MSTORE SWAP2 PUSH1 0x20 ADD SWAP2 PUSH2 0xA53 JUMP JUMPDEST DUP3 ADD SWAP2 SWAP1 PUSH1 0x0 MSTORE PUSH1 0x20 PUSH1 0x0 KECCAK256 SWAP1 JUMPDEST DUP2 SLOAD DUP2 MSTORE SWAP1 PUSH1 0x1 ADD SWAP1 PUSH1 0x20 ADD DUP1 DUP4 GT PUSH2 0xA36 JUMPI DUP3 SWAP1 SUB PUSH1 0x1F AND DUP3 ADD SWAP2 JUMPDEST POP POP POP POP POP SWAP1 DUP1 PUSH1 0x1 ADD SLOAD SWAP1 DUP1 PUSH1 0x3 ADD PUSH1 0x0 SWAP1 SLOAD SWAP1 PUSH2 0x100 EXP SWAP1 DIV PUSH20 0xFFFFFFFFFFFFFFFFFFFFFFFFFFFFFFFFFFFFFFFF AND SWAP1 DUP1 PUSH1 0x6 ADD SLOAD SWAP1 DUP1 PUSH1 0x7 ADD SLOAD SWAP1 DUP1 PUSH1 0x8 ADD SLOAD SWAP1 POP DUP7 JUMP JUMPDEST PUSH1 0x0 PUSH1 0x60 PUSH1 0x0 DUP1 PUSH1 0x0 PUSH1 0x6 DUP1 SLOAD SWAP1 POP SWAP1 POP PUSH1 0x0 JUMPDEST DUP2 DUP2 LT ISZERO PUSH2 0xBCC JUMPI PUSH1 0x0 PUSH1 0x6 DUP3 DUP2 SLOAD DUP2 LT PUSH2 0xACD JUMPI PUSH2 0xACC PUSH2 0x322A JUMP JUMPDEST JUMPDEST SWAP1 PUSH1 0x0 MSTORE PUSH1 0x20 PUSH1 0x0 KECCAK256 ADD SLOAD SWAP1 POP PUSH1 0x0 PUSH1 0x4 PUSH1 0x0 DUP4 DUP2 MSTORE PUSH1 0x20 ADD SWAP1 DUP2 MSTORE PUSH1 0x20 ADD PUSH1 0x0 KECCAK256 SWAP1 POP PUSH1 0x0 DUP2 PUSH1 0x6 ADD SLOAD SWAP1 POP DUP2 PUSH1 0x4 ADD PUSH1 0x0 DUP3 DUP2 MSTORE PUSH1 0x20 ADD SWAP1 DUP2 MSTORE PUSH1 0x20 ADD PUSH1 0x0 KECCAK256 PUSH1 0x4 ADD PUSH1 0x14 SWAP1 SLOAD SWAP1 PUSH2 0x100 EXP SWAP1 DIV PUSH1 0xFF AND DUP1 ISZERO PUSH2 0xB51 JUMPI POP PUSH2 0x12C DUP3 PUSH1 0x4 ADD PUSH1 0x0 DUP4 DUP2 MSTORE PUSH1 0x20 ADD SWAP1 DUP2 MSTORE PUSH1 0x20 ADD PUSH1 0x0 KECCAK256 PUSH1 0x5 ADD SLOAD PUSH2 0xB4D SWAP2 SWAP1 PUSH2 0x3259 JUMP JUMPDEST TIMESTAMP LT ISZERO JUMPDEST ISZERO PUSH2 0xB5B JUMPI PUSH1 0x1 SWAP6 POP JUMPDEST PUSH2 0x384 DUP3 PUSH1 0x7 ADD SLOAD PUSH2 0xB6D SWAP2 SWAP1 PUSH2 0x3259 JUMP JUMPDEST TIMESTAMP LT ISZERO DUP1 ISZERO PUSH2 0xBB2 JUMPI POP PUSH1 0x0 DUP3 PUSH1 0x6 ADD SLOAD EQ DUP1 PUSH2 0xBB1 JUMPI POP DUP2 PUSH1 0x4 ADD PUSH1 0x0 DUP4 PUSH1 0x6 ADD SLOAD DUP2 MSTORE PUSH1 0x20 ADD SWAP1 DUP2 MSTORE PUSH1 0x20 ADD PUSH1 0x0 KECCAK256 PUSH1 0x4 ADD PUSH1 0x14 SWAP1 SLOAD SWAP1 PUSH2 0x100 EXP SWAP1 DIV PUSH1 0xFF AND ISZERO JUMPDEST JUMPDEST ISZERO PUSH2 0xBBC JUMPI PUSH1 0x1 SWAP7 POP JUMPDEST POP POP POP DUP1 DUP1 PUSH1 0x1 ADD SWAP2 POP POP PUSH2 0xAAF JUMP JUMPDEST POP DUP3 DUP1 PUSH2 0xBD6 JUMPI POP DUP2 JUMPDEST SWAP5 POP POP POP POP SWAP3 POP SWAP3 SWAP1 POP JUMP JUMPDEST PUSH2 0xBEA PUSH2 0x21AD JUMP JUMPDEST PUSH2 0xBF4 PUSH1 0x0 PUSH2 0x222B JUMP JUMPDEST JUMP JUMPDEST DUP2 CALLER PUSH20 0xFFFFFFFFFFFFFFFFFFFFFFFFFFFFFFFFFFFFFFFF AND PUSH1 0x4 PUSH1 0x0 DUP4 DUP2 MSTORE PUSH1 0x20 ADD SWAP1 DUP2 MSTORE PUSH1 0x20 ADD PUSH1 0x0 KECCAK256 PUSH1 0x3 ADD PUSH1 0x0 SWAP1 SLOAD SWAP1 PUSH2 0x100 EXP SWAP1 DIV PUSH20 0xFFFFFFFFFFFFFFFFFFFFFFFFFFFFFFFFFFFFFFFF AND PUSH20 0xFFFFFFFFFFFFFFFFFFFFFFFFFFFFFFFFFFFFFFFF AND EQ PUSH2 0xC9B JUMPI PUSH1 0x40 MLOAD PUSH32 0x8C379A000000000000000000000000000000000000000000000000000000000 DUP2 MSTORE PUSH1 0x4 ADD PUSH2 0xC92 SWAP1 PUSH2 0x32FF JUMP JUMPDEST PUSH1 0x40 MLOAD DUP1 SWAP2 SUB SWAP1 REVERT JUMPDEST DUP3 PUSH2 0xCA6 PUSH1 0x1 PUSH2 0x20B9 JUMP JUMPDEST DUP2 LT PUSH2 0xCE7 JUMPI PUSH1 0x40 MLOAD PUSH32 0x8C379A000000000000000000000000000000000000000000000000000000000 DUP2 MSTORE PUSH1 0x4 ADD PUSH2 0xCDE SWAP1 PUSH2 0x336B JUMP JUMPDEST PUSH1 0x40 MLOAD DUP1 SWAP2 SUB SWAP1 REVERT JUMPDEST PUSH1 0x0 PUSH20 0xFFFFFFFFFFFFFFFFFFFFFFFFFFFFFFFFFFFFFFFF AND DUP4 PUSH20 0xFFFFFFFFFFFFFFFFFFFFFFFFFFFFFFFFFFFFFFFF AND SUB PUSH2 0xD56 JUMPI PUSH1 0x40 MLOAD PUSH32 0x8C379A000000000000000000000000000000000000000000000000000000000 DUP2 MSTORE PUSH1 0x4 ADD PUSH2 0xD4D SWAP1 PUSH2 0x33D7 JUMP JUMPDEST PUSH1 0x40 MLOAD DUP1 SWAP2 SUB SWAP1 REVERT JUMPDEST PUSH1 0x0 PUSH1 0x5 PUSH1 0x0 DUP6 PUSH20 0xFFFFFFFFFFFFFFFFFFFFFFFFFFFFFFFFFFFFFFFF AND PUSH20 0xFFFFFFFFFFFFFFFFFFFFFFFFFFFFFFFFFFFFFFFF AND DUP2 MSTORE PUSH1 0x20 ADD SWAP1 DUP2 MSTORE PUSH1 0x20 ADD PUSH1 0x0 KECCAK256 SLOAD EQ PUSH2 0xDD8 JUMPI PUSH1 0x40 MLOAD PUSH32 0x8C379A000000000000000000000000000000000000000000000000000000000 DUP2 MSTORE PUSH1 0x4 ADD PUSH2 0xDCF SWAP1 PUSH2 0x3443 JUMP JUMPDEST PUSH1 0x40 MLOAD DUP1 SWAP2 SUB SWAP1 REVERT JUMPDEST PUSH1 0x4 PUSH1 0x0 DUP6 DUP2 MSTORE PUSH1 0x20 ADD SWAP1 DUP2 MSTORE PUSH1 0x20 ADD PUSH1 0x0 KECCAK256 PUSH1 0x2 ADD DUP4 SWAP1 DUP1 PUSH1 0x1 DUP2 SLOAD ADD DUP1 DUP3 SSTORE DUP1 SWAP2 POP POP PUSH1 0x1 SWAP1 SUB SWAP1 PUSH1 0x0 MSTORE PUSH1 0x20 PUSH1 0x0 KECCAK256 ADD PUSH1 0x0 SWAP1 SWAP2 SWAP1 SWAP2 SWAP1 SWAP2 PUSH2 0x100 EXP DUP2 SLOAD DUP2 PUSH20 0xFFFFFFFFFFFFFFFFFFFFFFFFFFFFFFFFFFFFFFFF MUL NOT AND SWAP1 DUP4 PUSH20 0xFFFFFFFFFFFFFFFFFFFFFFFFFFFFFFFFFFFFFFFF AND MUL OR SWAP1 SSTORE POP DUP4 PUSH1 0x5 PUSH1 0x0 DUP6 PUSH20 0xFFFFFFFFFFFFFFFFFFFFFFFFFFFFFFFFFFFFFFFF AND PUSH20 0xFFFFFFFFFFFFFFFFFFFFFFFFFFFFFFFFFFFFFFFF AND DUP2 MSTORE PUSH1 0x20 ADD SWAP1 DUP2 MSTORE PUSH1 0x20 ADD PUSH1 0x0 KECCAK256 DUP2 SWAP1 SSTORE POP POP POP POP POP JUMP JUMPDEST PUSH1 0x0 DUP3 PUSH2 0xEA6 PUSH1 0x1 PUSH2 0x20B9 JUMP JUMPDEST DUP2 LT PUSH2 0xEE7 JUMPI PUSH1 0x40 MLOAD PUSH32 0x8C379A000000000000000000000000000000000000000000000000000000000 DUP2 MSTORE PUSH1 0x4 ADD PUSH2 0xEDE SWAP1 PUSH2 0x336B JUMP JUMPDEST PUSH1 0x40 MLOAD DUP1 SWAP2 SUB SWAP1 REVERT JUMPDEST PUSH1 0x0 PUSH1 0x4 PUSH1 0x0 DUP7 DUP2 MSTORE PUSH1 0x20 ADD SWAP1 DUP2 MSTORE PUSH1 0x20 ADD PUSH1 0x0 KECCAK256 SWAP1 POP PUSH1 0x0 JUMPDEST DUP2 PUSH1 0x2 ADD DUP1 SLOAD SWAP1 POP DUP2 LT ISZERO PUSH2 0xF9B JUMPI DUP5 PUSH20 0xFFFFFFFFFFFFFFFFFFFFFFFFFFFFFFFFFFFFFFFF AND DUP3 PUSH1 0x2 ADD DUP3 DUP2 SLOAD DUP2 LT PUSH2 0xF3D JUMPI PUSH2 0xF3C PUSH2 0x322A JUMP JUMPDEST JUMPDEST SWAP1 PUSH1 0x0 MSTORE PUSH1 0x20 PUSH1 0x0 KECCAK256 ADD PUSH1 0x0 SWAP1 SLOAD SWAP1 PUSH2 0x100 EXP SWAP1 DIV PUSH20 0xFFFFFFFFFFFFFFFFFFFFFFFFFFFFFFFFFFFFFFFF AND PUSH20 0xFFFFFFFFFFFFFFFFFFFFFFFFFFFFFFFFFFFFFFFF AND SUB PUSH2 0xF8E JUMPI PUSH1 0x1 SWAP4 POP POP POP PUSH2 0xFA2 JUMP JUMPDEST DUP1 DUP1 PUSH1 0x1 ADD SWAP2 POP POP PUSH2 0xF01 JUMP JUMPDEST POP PUSH1 0x0 SWAP3 POP POP JUMPDEST POP SWAP3 SWAP2 POP POP JUMP JUMPDEST DUP1 PUSH2 0xFB4 PUSH1 0x1 PUSH2 0x20B9 JUMP JUMPDEST DUP2 LT PUSH2 0xFF5 JUMPI PUSH1 0x40 MLOAD PUSH32 0x8C379A000000000000000000000000000000000000000000000000000000000 DUP2 MSTORE PUSH1 0x4 ADD PUSH2 0xFEC SWAP1 PUSH2 0x336B JUMP JUMPDEST PUSH1 0x40 MLOAD DUP1 SWAP2 SUB SWAP1 REVERT JUMPDEST PUSH1 0x0 PUSH1 0x4 PUSH1 0x0 DUP5 DUP2 MSTORE PUSH1 0x20 ADD SWAP1 DUP2 MSTORE PUSH1 0x20 ADD PUSH1 0x0 KECCAK256 SWAP1 POP PUSH1 0x0 DUP2 PUSH1 0x6 ADD SLOAD SWAP1 POP PUSH1 0x0 DUP3 PUSH1 0x4 ADD PUSH1 0x0 DUP4 DUP2 MSTORE PUSH1 0x20 ADD SWAP1 DUP2 MSTORE PUSH1 0x20 ADD PUSH1 0x0 KECCAK256 SWAP1 POP DUP1 PUSH1 0x4 ADD PUSH1 0x14 SWAP1 SLOAD SWAP1 PUSH2 0x100 EXP SWAP1 DIV PUSH1 0xFF AND PUSH2 0x107F JUMPI PUSH1 0x40 MLOAD PUSH32 0x8C379A000000000000000000000000000000000000000000000000000000000 DUP2 MSTORE PUSH1 0x4 ADD PUSH2 0x1076 SWAP1 PUSH2 0x34AF JUMP JUMPDEST PUSH1 0x40 MLOAD DUP1 SWAP2 SUB SWAP1 REVERT JUMPDEST DUP1 PUSH1 0x5 ADD SLOAD TIMESTAMP LT ISZERO PUSH2 0x10C6 JUMPI PUSH1 0x40 MLOAD PUSH32 0x8C379A000000000000000000000000000000000000000000000000000000000 DUP2 MSTORE PUSH1 0x4 ADD PUSH2 0x10BD SWAP1 PUSH2 0x351B JUMP JUMPDEST PUSH1 0x40 MLOAD DUP1 SWAP2 SUB SWAP1 REVERT JUMPDEST PUSH1 0x0 DUP1 PUSH1 0x0 JUMPDEST DUP6 PUSH1 0x2 ADD DUP1 SLOAD SWAP1 POP DUP2 LT ISZERO PUSH2 0x11BF JUMPI PUSH1 0x0 DUP7 PUSH1 0x2 ADD DUP3 DUP2 SLOAD DUP2 LT PUSH2 0x10F3 JUMPI PUSH2 0x10F2 PUSH2 0x322A JUMP JUMPDEST JUMPDEST SWAP1 PUSH1 0x0 MSTORE PUSH1 0x20 PUSH1 0x0 KECCAK256 ADD PUSH1 0x0 SWAP1 SLOAD SWAP1 PUSH2 0x100 EXP SWAP1 DIV PUSH20 0xFFFFFFFFFFFFFFFFFFFFFFFFFFFFFFFFFFFFFFFF AND SWAP1 POP DUP3 DUP6 PUSH1 0x2 ADD PUSH1 0x0 DUP4 PUSH20 0xFFFFFFFFFFFFFFFFFFFFFFFFFFFFFFFFFFFFFFFF AND PUSH20 0xFFFFFFFFFFFFFFFFFFFFFFFFFFFFFFFFFFFFFFFF AND DUP2 MSTORE PUSH1 0x20 ADD SWAP1 DUP2 MSTORE PUSH1 0x20 ADD PUSH1 0x0 KECCAK256 SLOAD GT ISZERO PUSH2 0x11B1 JUMPI DUP5 PUSH1 0x2 ADD PUSH1 0x0 DUP3 PUSH20 0xFFFFFFFFFFFFFFFFFFFFFFFFFFFFFFFFFFFFFFFF AND PUSH20 0xFFFFFFFFFFFFFFFFFFFFFFFFFFFFFFFFFFFFFFFF AND DUP2 MSTORE PUSH1 0x20 ADD SWAP1 DUP2 MSTORE PUSH1 0x20 ADD PUSH1 0x0 KECCAK256 SLOAD SWAP3 POP DUP1 SWAP4 POP JUMPDEST POP DUP1 DUP1 PUSH1 0x1 ADD SWAP2 POP POP PUSH2 0x10CC JUMP JUMPDEST POP PUSH1 0x0 PUSH20 0xFFFFFFFFFFFFFFFFFFFFFFFFFFFFFFFFFFFFFFFF AND DUP3 PUSH20 0xFFFFFFFFFFFFFFFFFFFFFFFFFFFFFFFFFFFFFFFF AND EQ PUSH2 0x127B JUMPI DUP2 DUP6 PUSH1 0x3 ADD PUSH1 0x0 PUSH2 0x100 EXP DUP2 SLOAD DUP2 PUSH20 0xFFFFFFFFFFFFFFFFFFFFFFFFFFFFFFFFFFFFFFFF MUL NOT AND SWAP1 DUP4 PUSH20 0xFFFFFFFFFFFFFFFFFFFFFFFFFFFFFFFFFFFFFFFF AND MUL OR SWAP1 SSTORE POP DUP2 DUP4 PUSH1 0x4 ADD PUSH1 0x0 PUSH2 0x100 EXP DUP2 SLOAD DUP2 PUSH20 0xFFFFFFFFFFFFFFFFFFFFFFFFFFFFFFFFFFFFFFFF MUL NOT AND SWAP1 DUP4 PUSH20 0xFFFFFFFFFFFFFFFFFFFFFFFFFFFFFFFFFFFFFFFF AND MUL OR SWAP1 SSTORE POP JUMPDEST PUSH1 0x0 DUP4 PUSH1 0x4 ADD PUSH1 0x14 PUSH2 0x100 EXP DUP2 SLOAD DUP2 PUSH1 0xFF MUL NOT AND SWAP1 DUP4 ISZERO ISZERO MUL OR SWAP1 SSTORE POP POP POP POP POP POP POP POP JUMP JUMPDEST PUSH1 0x60 DUP1 PUSH1 0x0 PUSH1 0x60 PUSH1 0x0 DUP1 PUSH1 0x0 DUP8 PUSH2 0x12B8 PUSH1 0x1 PUSH2 0x20B9 JUMP JUMPDEST DUP2 LT PUSH2 0x12F9 JUMPI PUSH1 0x40 MLOAD PUSH32 0x8C379A000000000000000000000000000000000000000000000000000000000 DUP2 MSTORE PUSH1 0x4 ADD PUSH2 0x12F0 SWAP1 PUSH2 0x336B JUMP JUMPDEST PUSH1 0x40 MLOAD DUP1 SWAP2 SUB SWAP1 REVERT JUMPDEST PUSH1 0x0 PUSH1 0x4 PUSH1 0x0 DUP12 DUP2 MSTORE PUSH1 0x20 ADD SWAP1 DUP2 MSTORE PUSH1 0x20 ADD PUSH1 0x0 KECCAK256 SWAP1 POP DUP1 PUSH1 0x0 ADD DUP2 PUSH1 0x2 ADD DUP3 PUSH1 0x3 ADD PUSH1 0x0 SWAP1 SLOAD SWAP1 PUSH2 0x100 EXP SWAP1 DIV PUSH20 0xFFFFFFFFFFFFFFFFFFFFFFFFFFFFFFFFFFFFFFFF AND DUP4 PUSH1 0x5 ADD DUP5 PUSH1 0x6 ADD SLOAD DUP6 PUSH1 0x7 ADD SLOAD DUP7 PUSH1 0x8 ADD SLOAD DUP7 DUP1 SLOAD PUSH2 0x135C SWAP1 PUSH2 0x2F18 JUMP JUMPDEST DUP1 PUSH1 0x1F ADD PUSH1 0x20 DUP1 SWAP2 DIV MUL PUSH1 0x20 ADD PUSH1 0x40 MLOAD SWAP1 DUP2 ADD PUSH1 0x40 MSTORE DUP1 SWAP3 SWAP2 SWAP1 DUP2 DUP2 MSTORE PUSH1 0x20 ADD DUP3 DUP1 SLOAD PUSH2 0x1388 SWAP1 PUSH2 0x2F18 JUMP JUMPDEST DUP1 ISZERO PUSH2 0x13D5 JUMPI DUP1 PUSH1 0x1F LT PUSH2 0x13AA JUMPI PUSH2 0x100 DUP1 DUP4 SLOAD DIV MUL DUP4 MSTORE SWAP2 PUSH1 0x20 ADD SWAP2 PUSH2 0x13D5 JUMP JUMPDEST DUP3 ADD SWAP2 SWAP1 PUSH1 0x0 MSTORE PUSH1 0x20 PUSH1 0x0 KECCAK256 SWAP1 JUMPDEST DUP2 SLOAD DUP2 MSTORE SWAP1 PUSH1 0x1 ADD SWAP1 PUSH1 0x20 ADD DUP1 DUP4 GT PUSH2 0x13B8 JUMPI DUP3 SWAP1 SUB PUSH1 0x1F AND DUP3 ADD SWAP2 JUMPDEST POP POP POP POP POP SWAP7 POP DUP6 DUP1 SLOAD DUP1 PUSH1 0x20 MUL PUSH1 0x20 ADD PUSH1 0x40 MLOAD SWAP1 DUP2 ADD PUSH1 0x40 MSTORE DUP1 SWAP3 SWAP2 SWAP1 DUP2 DUP2 MSTORE PUSH1 0x20 ADD DUP3 DUP1 SLOAD DUP1 ISZERO PUSH2 0x145D JUMPI PUSH1 0x20 MUL DUP3 ADD SWAP2 SWAP1 PUSH1 0x0 MSTORE PUSH1 0x20 PUSH1 0x0 KECCAK256 SWAP1 JUMPDEST DUP2 PUSH1 0x0 SWAP1 SLOAD SWAP1 PUSH2 0x100 EXP SWAP1 DIV PUSH20 0xFFFFFFFFFFFFFFFFFFFFFFFFFFFFFFFFFFFFFFFF AND PUSH20 0xFFFFFFFFFFFFFFFFFFFFFFFFFFFFFFFFFFFFFFFF AND DUP2 MSTORE PUSH1 0x20 ADD SWAP1 PUSH1 0x1 ADD SWAP1 DUP1 DUP4 GT PUSH2 0x1413 JUMPI JUMPDEST POP POP POP POP POP SWAP6 POP DUP4 DUP1 SLOAD DUP1 PUSH1 0x20 MUL PUSH1 0x20 ADD PUSH1 0x40 MLOAD SWAP1 DUP2 ADD PUSH1 0x40 MSTORE DUP1 SWAP3 SWAP2 SWAP1 DUP2 DUP2 MSTORE PUSH1 0x20 ADD DUP3 DUP1 SLOAD DUP1 ISZERO PUSH2 0x14AF JUMPI PUSH1 0x20 MUL DUP3 ADD SWAP2 SWAP1 PUSH1 0x0 MSTORE PUSH1 0x20 PUSH1 0x0 KECCAK256 SWAP1 JUMPDEST DUP2 SLOAD DUP2 MSTORE PUSH1 0x20 ADD SWAP1 PUSH1 0x1 ADD SWAP1 DUP1 DUP4 GT PUSH2 0x149B JUMPI JUMPDEST POP POP POP POP POP SWAP4 POP SWAP9 POP SWAP9 POP SWAP9 POP SWAP9 POP SWAP9 POP SWAP9 POP SWAP9 POP POP POP SWAP2 SWAP4 SWAP6 SWAP8 SWAP1 SWAP3 SWAP5 SWAP7 POP JUMP JUMPDEST PUSH1 0x0 DUP1 PUSH1 0x0 SWAP1 SLOAD SWAP1 PUSH2 0x100 EXP SWAP1 DIV PUSH20 0xFFFFFFFFFFFFFFFFFFFFFFFFFFFFFFFFFFFFFFFF AND SWAP1 POP SWAP1 JUMP JUMPDEST PUSH1 0x60 DUP2 PUSH2 0x1507 PUSH1 0x1 PUSH2 0x20B9 JUMP JUMPDEST DUP2 LT PUSH2 0x1548 JUMPI PUSH1 0x40 MLOAD PUSH32 0x8C379A000000000000000000000000000000000000000000000000000000000 DUP2 MSTORE PUSH1 0x4 ADD PUSH2 0x153F SWAP1 PUSH2 0x336B JUMP JUMPDEST PUSH1 0x40 MLOAD DUP1 SWAP2 SUB SWAP1 REVERT JUMPDEST PUSH1 0x4 PUSH1 0x0 DUP5 DUP2 MSTORE PUSH1 0x20 ADD SWAP1 DUP2 MSTORE PUSH1 0x20 ADD PUSH1 0x0 KECCAK256 PUSH1 0x2 ADD DUP1 SLOAD DUP1 PUSH1 0x20 MUL PUSH1 0x20 ADD PUSH1 0x40 MLOAD SWAP1 DUP2 ADD PUSH1 0x40 MSTORE DUP1 SWAP3 SWAP2 SWAP1 DUP2 DUP2 MSTORE PUSH1 0x20 ADD DUP3 DUP1 SLOAD DUP1 ISZERO PUSH2 0x15DE JUMPI PUSH1 0x20 MUL DUP3 ADD SWAP2 SWAP1 PUSH1 0x0 MSTORE PUSH1 0x20 PUSH1 0x0 KECCAK256 SWAP1 JUMPDEST DUP2 PUSH1 0x0 SWAP1 SLOAD SWAP1 PUSH2 0x100 EXP SWAP1 DIV PUSH20 0xFFFFFFFFFFFFFFFFFFFFFFFFFFFFFFFFFFFFFFFF AND PUSH20 0xFFFFFFFFFFFFFFFFFFFFFFFFFFFFFFFFFFFFFFFF AND DUP2 MSTORE PUSH1 0x20 ADD SWAP1 PUSH1 0x1 ADD SWAP1 DUP1 DUP4 GT PUSH2 0x1594 JUMPI JUMPDEST POP POP POP POP POP SWAP2 POP POP SWAP2 SWAP1 POP JUMP JUMPDEST PUSH1 0x60 DUP1 PUSH1 0x60 DUP1 PUSH1 0x60 DUP1 PUSH1 0x0 PUSH1 0x6 DUP1 SLOAD SWAP1 POP SWAP1 POP DUP1 PUSH8 0xFFFFFFFFFFFFFFFF DUP2 GT ISZERO PUSH2 0x1618 JUMPI PUSH2 0x1617 PUSH2 0x2326 JUMP JUMPDEST JUMPDEST PUSH1 0x40 MLOAD SWAP1 DUP1 DUP3 MSTORE DUP1 PUSH1 0x20 MUL PUSH1 0x20 ADD DUP3 ADD PUSH1 0x40 MSTORE DUP1 ISZERO PUSH2 0x1646 JUMPI DUP2 PUSH1 0x20 ADD PUSH1 0x20 DUP3 MUL DUP1 CALLDATASIZE DUP4 CALLDATACOPY DUP1 DUP3 ADD SWAP2 POP POP SWAP1 POP JUMPDEST POP SWAP7 POP DUP1 PUSH8 0xFFFFFFFFFFFFFFFF DUP2 GT ISZERO PUSH2 0x1663 JUMPI PUSH2 0x1662 PUSH2 0x2326 JUMP JUMPDEST JUMPDEST PUSH1 0x40 MLOAD SWAP1 DUP1 DUP3 MSTORE DUP1 PUSH1 0x20 MUL PUSH1 0x20 ADD DUP3 ADD PUSH1 0x40 MSTORE DUP1 ISZERO PUSH2 0x1696 JUMPI DUP2 PUSH1 0x20 ADD JUMPDEST PUSH1 0x60 DUP2 MSTORE PUSH1 0x20 ADD SWAP1 PUSH1 0x1 SWAP1 SUB SWAP1 DUP2 PUSH2 0x1681 JUMPI SWAP1 POP JUMPDEST POP SWAP6 POP DUP1 PUSH8 0xFFFFFFFFFFFFFFFF DUP2 GT ISZERO PUSH2 0x16B3 JUMPI PUSH2 0x16B2 PUSH2 0x2326 JUMP JUMPDEST JUMPDEST PUSH1 0x40 MLOAD SWAP1 DUP1 DUP3 MSTORE DUP1 PUSH1 0x20 MUL PUSH1 0x20 ADD DUP3 ADD PUSH1 0x40 MSTORE DUP1 ISZERO PUSH2 0x16E1 JUMPI DUP2 PUSH1 0x20 ADD PUSH1 0x20 DUP3 MUL DUP1 CALLDATASIZE DUP4 CALLDATACOPY DUP1 DUP3 ADD SWAP2 POP POP SWAP1 POP JUMPDEST POP SWAP5 POP DUP1 PUSH8 0xFFFFFFFFFFFFFFFF DUP2 GT ISZERO PUSH2 0x16FE JUMPI PUSH2 0x16FD PUSH2 0x2326 JUMP JUMPDEST JUMPDEST PUSH1 0x40 MLOAD SWAP1 DUP1 DUP3 MSTORE DUP1 PUSH1 0x20 MUL PUSH1 0x20 ADD DUP3 ADD PUSH1 0x40 MSTORE DUP1 ISZERO PUSH2 0x1731 JUMPI DUP2 PUSH1 0x20 ADD JUMPDEST PUSH1 0x60 DUP2 MSTORE PUSH1 0x20 ADD SWAP1 PUSH1 0x1 SWAP1 SUB SWAP1 DUP2 PUSH2 0x171C JUMPI SWAP1 POP JUMPDEST POP SWAP4 POP DUP1 PUSH8 0xFFFFFFFFFFFFFFFF DUP2 GT ISZERO PUSH2 0x174E JUMPI PUSH2 0x174D PUSH2 0x2326 JUMP JUMPDEST JUMPDEST PUSH1 0x40 MLOAD SWAP1 DUP1 DUP3 MSTORE DUP1 PUSH1 0x20 MUL PUSH1 0x20 ADD DUP3 ADD PUSH1 0x40 MSTORE DUP1 ISZERO PUSH2 0x177C JUMPI DUP2 PUSH1 0x20 ADD PUSH1 0x20 DUP3 MUL DUP1 CALLDATASIZE DUP4 CALLDATACOPY DUP1 DUP3 ADD SWAP2 POP POP SWAP1 POP JUMPDEST POP SWAP3 POP DUP1 PUSH8 0xFFFFFFFFFFFFFFFF DUP2 GT ISZERO PUSH2 0x1799 JUMPI PUSH2 0x1798 PUSH2 0x2326 JUMP JUMPDEST JUMPDEST PUSH1 0x40 MLOAD SWAP1 DUP1 DUP3 MSTORE DUP1 PUSH1 0x20 MUL PUSH1 0x20 ADD DUP3 ADD PUSH1 0x40 MSTORE DUP1 ISZERO PUSH2 0x17C7 JUMPI DUP2 PUSH1 0x20 ADD PUSH1 0x20 DUP3 MUL DUP1 CALLDATASIZE DUP4 CALLDATACOPY DUP1 DUP3 ADD SWAP2 POP POP SWAP1 POP JUMPDEST POP SWAP2 POP PUSH1 0x0 JUMPDEST DUP2 DUP2 LT ISZERO PUSH2 0x1A4E JUMPI PUSH1 0x0 PUSH1 0x6 DUP3 DUP2 SLOAD DUP2 LT PUSH2 0x17EB JUMPI PUSH2 0x17EA PUSH2 0x322A JUMP JUMPDEST JUMPDEST SWAP1 PUSH1 0x0 MSTORE PUSH1 0x20 PUSH1 0x0 KECCAK256 ADD SLOAD SWAP1 POP PUSH1 0x0 PUSH1 0x4 PUSH1 0x0 DUP4 DUP2 MSTORE PUSH1 0x20 ADD SWAP1 DUP2 MSTORE PUSH1 0x20 ADD PUSH1 0x0 KECCAK256 SWAP1 POP DUP1 PUSH1 0x1 ADD SLOAD DUP11 DUP5 DUP2 MLOAD DUP2 LT PUSH2 0x1827 JUMPI PUSH2 0x1826 PUSH2 0x322A JUMP JUMPDEST JUMPDEST PUSH1 0x20 MUL PUSH1 0x20 ADD ADD DUP2 DUP2 MSTORE POP POP DUP1 PUSH1 0x0 ADD DUP1 SLOAD PUSH2 0x1842 SWAP1 PUSH2 0x2F18 JUMP JUMPDEST DUP1 PUSH1 0x1F ADD PUSH1 0x20 DUP1 SWAP2 DIV MUL PUSH1 0x20 ADD PUSH1 0x40 MLOAD SWAP1 DUP2 ADD PUSH1 0x40 MSTORE DUP1 SWAP3 SWAP2 SWAP1 DUP2 DUP2 MSTORE PUSH1 0x20 ADD DUP3 DUP1 SLOAD PUSH2 0x186E SWAP1 PUSH2 0x2F18 JUMP JUMPDEST DUP1 ISZERO PUSH2 0x18BB JUMPI DUP1 PUSH1 0x1F LT PUSH2 0x1890 JUMPI PUSH2 0x100 DUP1 DUP4 SLOAD DIV MUL DUP4 MSTORE SWAP2 PUSH1 0x20 ADD SWAP2 PUSH2 0x18BB JUMP JUMPDEST DUP3 ADD SWAP2 SWAP1 PUSH1 0x0 MSTORE PUSH1 0x20 PUSH1 0x0 KECCAK256 SWAP1 JUMPDEST DUP2 SLOAD DUP2 MSTORE SWAP1 PUSH1 0x1 ADD SWAP1 PUSH1 0x20 ADD DUP1 DUP4 GT PUSH2 0x189E JUMPI DUP3 SWAP1 SUB PUSH1 0x1F AND DUP3 ADD SWAP2 JUMPDEST POP POP POP POP POP DUP10 DUP5 DUP2 MLOAD DUP2 LT PUSH2 0x18D3 JUMPI PUSH2 0x18D2 PUSH2 0x322A JUMP JUMPDEST JUMPDEST PUSH1 0x20 MUL PUSH1 0x20 ADD ADD DUP2 SWAP1 MSTORE POP DUP1 PUSH1 0x3 ADD PUSH1 0x0 SWAP1 SLOAD SWAP1 PUSH2 0x100 EXP SWAP1 DIV PUSH20 0xFFFFFFFFFFFFFFFFFFFFFFFFFFFFFFFFFFFFFFFF AND DUP9 DUP5 DUP2 MLOAD DUP2 LT PUSH2 0x1916 JUMPI PUSH2 0x1915 PUSH2 0x322A JUMP JUMPDEST JUMPDEST PUSH1 0x20 MUL PUSH1 0x20 ADD ADD SWAP1 PUSH20 0xFFFFFFFFFFFFFFFFFFFFFFFFFFFFFFFFFFFFFFFF AND SWAP1 DUP2 PUSH20 0xFFFFFFFFFFFFFFFFFFFFFFFFFFFFFFFFFFFFFFFF AND DUP2 MSTORE POP POP DUP1 PUSH1 0x2 ADD DUP1 SLOAD DUP1 PUSH1 0x20 MUL PUSH1 0x20 ADD PUSH1 0x40 MLOAD SWAP1 DUP2 ADD PUSH1 0x40 MSTORE DUP1 SWAP3 SWAP2 SWAP1 DUP2 DUP2 MSTORE PUSH1 0x20 ADD DUP3 DUP1 SLOAD DUP1 ISZERO PUSH2 0x19D4 JUMPI PUSH1 0x20 MUL DUP3 ADD SWAP2 SWAP1 PUSH1 0x0 MSTORE PUSH1 0x20 PUSH1 0x0 KECCAK256 SWAP1 JUMPDEST DUP2 PUSH1 0x0 SWAP1 SLOAD SWAP1 PUSH2 0x100 EXP SWAP1 DIV PUSH20 0xFFFFFFFFFFFFFFFFFFFFFFFFFFFFFFFFFFFFFFFF AND PUSH20 0xFFFFFFFFFFFFFFFFFFFFFFFFFFFFFFFFFFFFFFFF AND DUP2 MSTORE PUSH1 0x20 ADD SWAP1 PUSH1 0x1 ADD SWAP1 DUP1 DUP4 GT PUSH2 0x198A JUMPI JUMPDEST POP POP POP POP POP DUP8 DUP5 DUP2 MLOAD DUP2 LT PUSH2 0x19EC JUMPI PUSH2 0x19EB PUSH2 0x322A JUMP JUMPDEST JUMPDEST PUSH1 0x20 MUL PUSH1 0x20 ADD ADD DUP2 SWAP1 MSTORE POP DUP1 PUSH1 0x7 ADD SLOAD DUP7 DUP5 DUP2 MLOAD DUP2 LT PUSH2 0x1A0F JUMPI PUSH2 0x1A0E PUSH2 0x322A JUMP JUMPDEST JUMPDEST PUSH1 0x20 MUL PUSH1 0x20 ADD ADD DUP2 DUP2 MSTORE POP POP DUP1 PUSH1 0x8 ADD SLOAD DUP6 DUP5 DUP2 MLOAD DUP2 LT PUSH2 0x1A33 JUMPI PUSH2 0x1A32 PUSH2 0x322A JUMP JUMPDEST JUMPDEST PUSH1 0x20 MUL PUSH1 0x20 ADD ADD DUP2 DUP2 MSTORE POP POP POP POP DUP1 DUP1 PUSH1 0x1 ADD SWAP2 POP POP PUSH2 0x17CD JUMP JUMPDEST POP POP SWAP1 SWAP2 SWAP3 SWAP4 SWAP5 SWAP6 JUMP JUMPDEST PUSH1 0x5 PUSH1 0x20 MSTORE DUP1 PUSH1 0x0 MSTORE PUSH1 0x40 PUSH1 0x0 KECCAK256 PUSH1 0x0 SWAP2 POP SWAP1 POP SLOAD DUP2 JUMP JUMPDEST DUP1 PUSH2 0x1A7B PUSH1 0x1 PUSH2 0x20B9 JUMP JUMPDEST DUP2 LT PUSH2 0x1ABC JUMPI PUSH1 0x40 MLOAD PUSH32 0x8C379A000000000000000000000000000000000000000000000000000000000 DUP2 MSTORE PUSH1 0x4 ADD PUSH2 0x1AB3 SWAP1 PUSH2 0x336B JUMP JUMPDEST PUSH1 0x40 MLOAD DUP1 SWAP2 SUB SWAP1 REVERT JUMPDEST PUSH1 0x0 PUSH1 0x4 PUSH1 0x0 DUP5 DUP2 MSTORE PUSH1 0x20 ADD SWAP1 DUP2 MSTORE PUSH1 0x20 ADD PUSH1 0x0 KECCAK256 SWAP1 POP PUSH2 0x384 DUP2 PUSH1 0x7 ADD SLOAD PUSH2 0x1AE5 SWAP2 SWAP1 PUSH2 0x3259 JUMP JUMPDEST TIMESTAMP LT ISZERO PUSH2 0x1B27 JUMPI PUSH1 0x40 MLOAD PUSH32 0x8C379A000000000000000000000000000000000000000000000000000000000 DUP2 MSTORE PUSH1 0x4 ADD PUSH2 0x1B1E SWAP1 PUSH2 0x35AD JUMP JUMPDEST PUSH1 0x40 MLOAD DUP1 SWAP2 SUB SWAP1 REVERT JUMPDEST PUSH1 0x0 DUP2 PUSH1 0x6 ADD SLOAD EQ DUP1 PUSH2 0x1B61 JUMPI POP DUP1 PUSH1 0x4 ADD PUSH1 0x0 DUP3 PUSH1 0x6 ADD SLOAD DUP2 MSTORE PUSH1 0x20 ADD SWAP1 DUP2 MSTORE PUSH1 0x20 ADD PUSH1 0x0 KECCAK256 PUSH1 0x4 ADD PUSH1 0x14 SWAP1 SLOAD SWAP1 PUSH2 0x100 EXP SWAP1 DIV PUSH1 0xFF AND ISZERO JUMPDEST PUSH2 0x1BA0 JUMPI PUSH1 0x40 MLOAD PUSH32 0x8C379A000000000000000000000000000000000000000000000000000000000 DUP2 MSTORE PUSH1 0x4 ADD PUSH2 0x1B97 SWAP1 PUSH2 0x3619 JUMP JUMPDEST PUSH1 0x40 MLOAD DUP1 SWAP2 SUB SWAP1 REVERT JUMPDEST PUSH1 0x0 PUSH2 0x1BAC PUSH1 0x2 PUSH2 0x20B9 JUMP JUMPDEST SWAP1 POP PUSH1 0x0 DUP3 PUSH1 0x4 ADD PUSH1 0x0 DUP4 DUP2 MSTORE PUSH1 0x20 ADD SWAP1 DUP2 MSTORE PUSH1 0x20 ADD PUSH1 0x0 KECCAK256 SWAP1 POP DUP2 DUP2 PUSH1 0x0 ADD DUP2 SWAP1 SSTORE POP PUSH1 0x1 DUP2 PUSH1 0x4 ADD PUSH1 0x14 PUSH2 0x100 EXP DUP2 SLOAD DUP2 PUSH1 0xFF MUL NOT AND SWAP1 DUP4 ISZERO ISZERO MUL OR SWAP1 SSTORE POP PUSH2 0x12C TIMESTAMP PUSH2 0x1BFB SWAP2 SWAP1 PUSH2 0x3259 JUMP JUMPDEST DUP2 PUSH1 0x5 ADD DUP2 SWAP1 SSTORE POP DUP2 DUP4 PUSH1 0x6 ADD DUP2 SWAP1 SSTORE POP TIMESTAMP DUP4 PUSH1 0x7 ADD DUP2 SWAP1 SSTORE POP DUP1 PUSH1 0x5 ADD SLOAD DUP4 PUSH1 0x8 ADD DUP2 SWAP1 SSTORE POP DUP3 PUSH1 0x5 ADD DUP3 SWAP1 DUP1 PUSH1 0x1 DUP2 SLOAD ADD DUP1 DUP3 SSTORE DUP1 SWAP2 POP POP PUSH1 0x1 SWAP1 SUB SWAP1 PUSH1 0x0 MSTORE PUSH1 0x20 PUSH1 0x0 KECCAK256 ADD PUSH1 0x0 SWAP1 SWAP2 SWAP1 SWAP2 SWAP1 SWAP2 POP SSTORE PUSH2 0x1C57 PUSH1 0x2 PUSH2 0x2197 JUMP JUMPDEST POP POP POP POP POP JUMP JUMPDEST DUP2 PUSH2 0x1C69 DUP2 CALLER PUSH2 0xE99 JUMP JUMPDEST PUSH2 0x1CA8 JUMPI PUSH1 0x40 MLOAD PUSH32 0x8C379A000000000000000000000000000000000000000000000000000000000 DUP2 MSTORE PUSH1 0x4 ADD PUSH2 0x1C9F SWAP1 PUSH2 0x36AB JUMP JUMPDEST PUSH1 0x40 MLOAD DUP1 SWAP2 SUB SWAP1 REVERT JUMPDEST DUP3 PUSH2 0x1CB3 PUSH1 0x1 PUSH2 0x20B9 JUMP JUMPDEST DUP2 LT PUSH2 0x1CF4 JUMPI PUSH1 0x40 MLOAD PUSH32 0x8C379A000000000000000000000000000000000000000000000000000000000 DUP2 MSTORE PUSH1 0x4 ADD PUSH2 0x1CEB SWAP1 PUSH2 0x336B JUMP JUMPDEST PUSH1 0x40 MLOAD DUP1 SWAP2 SUB SWAP1 REVERT JUMPDEST PUSH1 0x0 PUSH1 0x4 PUSH1 0x0 DUP7 DUP2 MSTORE PUSH1 0x20 ADD SWAP1 DUP2 MSTORE PUSH1 0x20 ADD PUSH1 0x0 KECCAK256 SWAP1 POP PUSH1 0x0 DUP2 PUSH1 0x6 ADD SLOAD SWAP1 POP DUP2 PUSH1 0x4 ADD PUSH1 0x0 DUP3 DUP2 MSTORE PUSH1 0x20 ADD SWAP1 DUP2 MSTORE PUSH1 0x20 ADD PUSH1 0x0 KECCAK256 PUSH1 0x4 ADD PUSH1 0x14 SWAP1 SLOAD SWAP1 PUSH2 0x100 EXP SWAP1 DIV PUSH1 0xFF AND PUSH2 0x1D79 JUMPI PUSH1 0x40 MLOAD PUSH32 0x8C379A000000000000000000000000000000000000000000000000000000000 DUP2 MSTORE PUSH1 0x4 ADD PUSH2 0x1D70 SWAP1 PUSH2 0x34AF JUMP JUMPDEST PUSH1 0x40 MLOAD DUP1 SWAP2 SUB SWAP1 REVERT JUMPDEST DUP2 PUSH1 0x4 ADD PUSH1 0x0 DUP3 DUP2 MSTORE PUSH1 0x20 ADD SWAP1 DUP2 MSTORE PUSH1 0x20 ADD PUSH1 0x0 KECCAK256 PUSH1 0x5 ADD SLOAD TIMESTAMP LT PUSH2 0x1DD3 JUMPI PUSH1 0x40 MLOAD PUSH32 0x8C379A000000000000000000000000000000000000000000000000000000000 DUP2 MSTORE PUSH1 0x4 ADD PUSH2 0x1DCA SWAP1 PUSH2 0x3717 JUMP JUMPDEST PUSH1 0x40 MLOAD DUP1 SWAP2 SUB SWAP1 REVERT JUMPDEST PUSH2 0x1DDD DUP7 DUP7 PUSH2 0xE99 JUMP JUMPDEST PUSH2 0x1E1C JUMPI PUSH1 0x40 MLOAD PUSH32 0x8C379A000000000000000000000000000000000000000000000000000000000 DUP2 MSTORE PUSH1 0x4 ADD PUSH2 0x1E13 SWAP1 PUSH2 0x3783 JUMP JUMPDEST PUSH1 0x40 MLOAD DUP1 SWAP2 SUB SWAP1 REVERT JUMPDEST DUP2 PUSH1 0x4 ADD PUSH1 0x0 DUP3 DUP2 MSTORE PUSH1 0x20 ADD SWAP1 DUP2 MSTORE PUSH1 0x20 ADD PUSH1 0x0 KECCAK256 PUSH1 0x1 ADD PUSH1 0x0 CALLER PUSH20 0xFFFFFFFFFFFFFFFFFFFFFFFFFFFFFFFFFFFFFFFF AND PUSH20 0xFFFFFFFFFFFFFFFFFFFFFFFFFFFFFFFFFFFFFFFF AND DUP2 MSTORE PUSH1 0x20 ADD SWAP1 DUP2 MSTORE PUSH1 0x20 ADD PUSH1 0x0 KECCAK256 PUSH1 0x0 SWAP1 SLOAD SWAP1 PUSH2 0x100 EXP SWAP1 DIV PUSH1 0xFF AND ISZERO PUSH2 0x1EBF JUMPI PUSH1 0x40 MLOAD PUSH32 0x8C379A000000000000000000000000000000000000000000000000000000000 DUP2 MSTORE PUSH1 0x4 ADD PUSH2 0x1EB6 SWAP1 PUSH2 0x37EF JUMP JUMPDEST PUSH1 0x40 MLOAD DUP1 SWAP2 SUB SWAP1 REVERT JUMPDEST PUSH1 0x0 DUP3 PUSH1 0x4 ADD PUSH1 0x0 DUP4 DUP2 MSTORE PUSH1 0x20 ADD SWAP1 DUP2 MSTORE PUSH1 0x20 ADD PUSH1 0x0 KECCAK256 SWAP1 POP DUP6 DUP2 PUSH1 0x3 ADD PUSH1 0x0 CALLER PUSH20 0xFFFFFFFFFFFFFFFFFFFFFFFFFFFFFFFFFFFFFFFF AND PUSH20 0xFFFFFFFFFFFFFFFFFFFFFFFFFFFFFFFFFFFFFFFF AND DUP2 MSTORE PUSH1 0x20 ADD SWAP1 DUP2 MSTORE PUSH1 0x20 ADD PUSH1 0x0 KECCAK256 PUSH1 0x0 PUSH2 0x100 EXP DUP2 SLOAD DUP2 PUSH20 0xFFFFFFFFFFFFFFFFFFFFFFFFFFFFFFFFFFFFFFFF MUL NOT AND SWAP1 DUP4 PUSH20 0xFFFFFFFFFFFFFFFFFFFFFFFFFFFFFFFFFFFFFFFF AND MUL OR SWAP1 SSTORE POP DUP1 PUSH1 0x2 ADD PUSH1 0x0 DUP8 PUSH20 0xFFFFFFFFFFFFFFFFFFFFFFFFFFFFFFFFFFFFFFFF AND PUSH20 0xFFFFFFFFFFFFFFFFFFFFFFFFFFFFFFFFFFFFFFFF AND DUP2 MSTORE PUSH1 0x20 ADD SWAP1 DUP2 MSTORE PUSH1 0x20 ADD PUSH1 0x0 KECCAK256 PUSH1 0x0 DUP2 SLOAD DUP1 SWAP3 SWAP2 SWAP1 PUSH2 0x1FAA SWAP1 PUSH2 0x380F JUMP JUMPDEST SWAP2 SWAP1 POP SSTORE POP PUSH1 0x1 DUP2 PUSH1 0x1 ADD PUSH1 0x0 CALLER PUSH20 0xFFFFFFFFFFFFFFFFFFFFFFFFFFFFFFFFFFFFFFFF AND PUSH20 0xFFFFFFFFFFFFFFFFFFFFFFFFFFFFFFFFFFFFFFFF AND DUP2 MSTORE PUSH1 0x20 ADD SWAP1 DUP2 MSTORE PUSH1 0x20 ADD PUSH1 0x0 KECCAK256 PUSH1 0x0 PUSH2 0x100 EXP DUP2 SLOAD DUP2 PUSH1 0xFF MUL NOT AND SWAP1 DUP4 ISZERO ISZERO MUL OR SWAP1 SSTORE POP POP POP POP POP POP POP POP JUMP JUMPDEST PUSH1 0x6 DUP2 DUP2 SLOAD DUP2 LT PUSH2 0x2022 JUMPI PUSH1 0x0 DUP1 REVERT JUMPDEST SWAP1 PUSH1 0x0 MSTORE PUSH1 0x20 PUSH1 0x0 KECCAK256 ADD PUSH1 0x0 SWAP2 POP SWAP1 POP SLOAD DUP2 JUMP JUMPDEST PUSH2 0x203E PUSH2 0x21AD JUMP JUMPDEST PUSH1 0x0 PUSH20 0xFFFFFFFFFFFFFFFFFFFFFFFFFFFFFFFFFFFFFFFF AND DUP2 PUSH20 0xFFFFFFFFFFFFFFFFFFFFFFFFFFFFFFFFFFFFFFFF AND SUB PUSH2 0x20AD JUMPI PUSH1 0x40 MLOAD PUSH32 0x8C379A000000000000000000000000000000000000000000000000000000000 DUP2 MSTORE PUSH1 0x4 ADD PUSH2 0x20A4 SWAP1 PUSH2 0x38C9 JUMP JUMPDEST PUSH1 0x40 MLOAD DUP1 SWAP2 SUB SWAP1 REVERT JUMPDEST PUSH2 0x20B6 DUP2 PUSH2 0x222B JUMP JUMPDEST POP JUMP JUMPDEST PUSH1 0x0 DUP2 PUSH1 0x0 ADD SLOAD SWAP1 POP SWAP2 SWAP1 POP JUMP JUMPDEST PUSH1 0x0 DUP1 PUSH1 0x0 SWAP1 POP JUMPDEST PUSH1 0x4 PUSH1 0x0 DUP1 DUP2 MSTORE PUSH1 0x20 ADD SWAP1 DUP2 MSTORE PUSH1 0x20 ADD PUSH1 0x0 KECCAK256 PUSH1 0x2 ADD DUP1 SLOAD SWAP1 POP DUP2 LT ISZERO PUSH2 0x218C JUMPI DUP3 PUSH20 0xFFFFFFFFFFFFFFFFFFFFFFFFFFFFFFFFFFFFFFFF AND PUSH1 0x4 PUSH1 0x0 DUP1 DUP2 MSTORE PUSH1 0x20 ADD SWAP1 DUP2 MSTORE PUSH1 0x20 ADD PUSH1 0x0 KECCAK256 PUSH1 0x2 ADD DUP3 DUP2 SLOAD DUP2 LT PUSH2 0x212F JUMPI PUSH2 0x212E PUSH2 0x322A JUMP JUMPDEST JUMPDEST SWAP1 PUSH1 0x0 MSTORE PUSH1 0x20 PUSH1 0x0 KECCAK256 ADD PUSH1 0x0 SWAP1 SLOAD SWAP1 PUSH2 0x100 EXP SWAP1 DIV PUSH20 0xFFFFFFFFFFFFFFFFFFFFFFFFFFFFFFFFFFFFFFFF AND PUSH20 0xFFFFFFFFFFFFFFFFFFFFFFFFFFFFFFFFFFFFFFFF AND SUB PUSH2 0x217F JUMPI PUSH1 0x0 SWAP2 POP POP PUSH2 0x2192 JUMP JUMPDEST DUP1 DUP1 PUSH1 0x1 ADD SWAP2 POP POP PUSH2 0x20CF JUMP JUMPDEST POP PUSH1 0x1 SWAP1 POP JUMPDEST SWAP2 SWAP1 POP JUMP JUMPDEST PUSH1 0x1 DUP2 PUSH1 0x0 ADD PUSH1 0x0 DUP3 DUP3 SLOAD ADD SWAP3 POP POP DUP2 SWAP1 SSTORE POP POP JUMP JUMPDEST PUSH2 0x21B5 PUSH2 0x22EF JUMP JUMPDEST PUSH20 0xFFFFFFFFFFFFFFFFFFFFFFFFFFFFFFFFFFFFFFFF AND PUSH2 0x21D3 PUSH2 0x14D1 JUMP JUMPDEST PUSH20 0xFFFFFFFFFFFFFFFFFFFFFFFFFFFFFFFFFFFFFFFF AND EQ PUSH2 0x2229 JUMPI PUSH1 0x40 MLOAD PUSH32 0x8C379A000000000000000000000000000000000000000000000000000000000 DUP2 MSTORE PUSH1 0x4 ADD PUSH2 0x2220 SWAP1 PUSH2 0x3935 JUMP JUMPDEST PUSH1 0x40 MLOAD DUP1 SWAP2 SUB SWAP1 REVERT JUMPDEST JUMP JUMPDEST PUSH1 0x0 DUP1 PUSH1 0x0 SWAP1 SLOAD SWAP1 PUSH2 0x100 EXP SWAP1 DIV PUSH20 0xFFFFFFFFFFFFFFFFFFFFFFFFFFFFFFFFFFFFFFFF AND SWAP1 POP DUP2 PUSH1 0x0 DUP1 PUSH2 0x100 EXP DUP2 SLOAD DUP2 PUSH20 0xFFFFFFFFFFFFFFFFFFFFFFFFFFFFFFFFFFFFFFFF MUL NOT AND SWAP1 DUP4 PUSH20 0xFFFFFFFFFFFFFFFFFFFFFFFFFFFFFFFFFFFFFFFF AND MUL OR SWAP1 SSTORE POP DUP2 PUSH20 0xFFFFFFFFFFFFFFFFFFFFFFFFFFFFFFFFFFFFFFFF AND DUP2 PUSH20 0xFFFFFFFFFFFFFFFFFFFFFFFFFFFFFFFFFFFFFFFF AND PUSH32 0x8BE0079C531659141344CD1FD0A4F28419497F9722A3DAAFE3B4186F6B6457E0 PUSH1 0x40 MLOAD PUSH1 0x40 MLOAD DUP1 SWAP2 SUB SWAP1 LOG3 POP POP JUMP JUMPDEST PUSH1 0x0 CALLER SWAP1 POP SWAP1 JUMP JUMPDEST PUSH1 0x0 PUSH1 0x40 MLOAD SWAP1 POP SWAP1 JUMP JUMPDEST PUSH1 0x0 DUP1 REVERT JUMPDEST PUSH1 0x0 DUP1 REVERT JUMPDEST PUSH1 0x0 DUP1 REVERT JUMPDEST PUSH1 0x0 DUP1 REVERT JUMPDEST PUSH1 0x0 PUSH1 0x1F NOT PUSH1 0x1F DUP4 ADD AND SWAP1 POP SWAP2 SWAP1 POP JUMP JUMPDEST PUSH32 0x4E487B7100000000000000000000000000000000000000000000000000000000 PUSH1 0x0 MSTORE PUSH1 0x41 PUSH1 0x4 MSTORE PUSH1 0x24 PUSH1 0x0 REVERT JUMPDEST PUSH2 0x235E DUP3 PUSH2 0x2315 JUMP JUMPDEST DUP2 ADD DUP2 DUP2 LT PUSH8 0xFFFFFFFFFFFFFFFF DUP3 GT OR ISZERO PUSH2 0x237D JUMPI PUSH2 0x237C PUSH2 0x2326 JUMP JUMPDEST JUMPDEST DUP1 PUSH1 0x40 MSTORE POP POP POP JUMP JUMPDEST PUSH1 0x0 PUSH2 0x2390 PUSH2 0x22F7 JUMP JUMPDEST SWAP1 POP PUSH2 0x239C DUP3 DUP3 PUSH2 0x2355 JUMP JUMPDEST SWAP2 SWAP1 POP JUMP JUMPDEST PUSH1 0x0 PUSH8 0xFFFFFFFFFFFFFFFF DUP3 GT ISZERO PUSH2 0x23BC JUMPI PUSH2 0x23BB PUSH2 0x2326 JUMP JUMPDEST JUMPDEST PUSH2 0x23C5 DUP3 PUSH2 0x2315 JUMP JUMPDEST SWAP1 POP PUSH1 0x20 DUP2 ADD SWAP1 POP SWAP2 SWAP1 POP JUMP JUMPDEST DUP3 DUP2 DUP4 CALLDATACOPY PUSH1 0x0 DUP4 DUP4 ADD MSTORE POP POP POP JUMP JUMPDEST PUSH1 0x0 PUSH2 0x23F4 PUSH2 0x23EF DUP5 PUSH2 0x23A1 JUMP JUMPDEST PUSH2 0x2386 JUMP JUMPDEST SWAP1 POP DUP3 DUP2 MSTORE PUSH1 0x20 DUP2 ADD DUP5 DUP5 DUP5 ADD GT ISZERO PUSH2 0x2410 JUMPI PUSH2 0x240F PUSH2 0x2310 JUMP JUMPDEST JUMPDEST PUSH2 0x241B DUP5 DUP3 DUP6 PUSH2 0x23D2 JUMP JUMPDEST POP SWAP4 SWAP3 POP POP POP JUMP JUMPDEST PUSH1 0x0 DUP3 PUSH1 0x1F DUP4 ADD SLT PUSH2 0x2438 JUMPI PUSH2 0x2437 PUSH2 0x230B JUMP JUMPDEST JUMPDEST DUP2 CALLDATALOAD PUSH2 0x2448 DUP5 DUP3 PUSH1 0x20 DUP7 ADD PUSH2 0x23E1 JUMP JUMPDEST SWAP2 POP POP SWAP3 SWAP2 POP POP JUMP JUMPDEST PUSH1 0x0 PUSH1 0x20 DUP3 DUP5 SUB SLT ISZERO PUSH2 0x2467 JUMPI PUSH2 0x2466 PUSH2 0x2301 JUMP JUMPDEST JUMPDEST PUSH1 0x0 DUP3 ADD CALLDATALOAD PUSH8 0xFFFFFFFFFFFFFFFF DUP2 GT ISZERO PUSH2 0x2485 JUMPI PUSH2 0x2484 PUSH2 0x2306 JUMP JUMPDEST JUMPDEST PUSH2 0x2491 DUP5 DUP3 DUP6 ADD PUSH2 0x2423 JUMP JUMPDEST SWAP2 POP POP SWAP3 SWAP2 POP POP JUMP JUMPDEST PUSH1 0x0 DUP2 SWAP1 POP SWAP2 SWAP1 POP JUMP JUMPDEST PUSH2 0x24AD DUP2 PUSH2 0x249A JUMP JUMPDEST DUP2 EQ PUSH2 0x24B8 JUMPI PUSH1 0x0 DUP1 REVERT JUMPDEST POP JUMP JUMPDEST PUSH1 0x0 DUP2 CALLDATALOAD SWAP1 POP PUSH2 0x24CA DUP2 PUSH2 0x24A4 JUMP JUMPDEST SWAP3 SWAP2 POP POP JUMP JUMPDEST PUSH1 0x0 DUP1 PUSH1 0x40 DUP4 DUP6 SUB SLT ISZERO PUSH2 0x24E7 JUMPI PUSH2 0x24E6 PUSH2 0x2301 JUMP JUMPDEST JUMPDEST PUSH1 0x0 PUSH2 0x24F5 DUP6 DUP3 DUP7 ADD PUSH2 0x24BB JUMP JUMPDEST SWAP3 POP POP PUSH1 0x20 PUSH2 0x2506 DUP6 DUP3 DUP7 ADD PUSH2 0x24BB JUMP JUMPDEST SWAP2 POP POP SWAP3 POP SWAP3 SWAP1 POP JUMP JUMPDEST PUSH1 0x0 PUSH20 0xFFFFFFFFFFFFFFFFFFFFFFFFFFFFFFFFFFFFFFFF DUP3 AND SWAP1 POP SWAP2 SWAP1 POP JUMP JUMPDEST PUSH1 0x0 PUSH2 0x253B DUP3 PUSH2 0x2510 JUMP JUMPDEST SWAP1 POP SWAP2 SWAP1 POP JUMP JUMPDEST PUSH2 0x254B DUP2 PUSH2 0x2530 JUMP JUMPDEST DUP3 MSTORE POP POP JUMP JUMPDEST PUSH1 0x0 DUP2 ISZERO ISZERO SWAP1 POP SWAP2 SWAP1 POP JUMP JUMPDEST PUSH2 0x2566 DUP2 PUSH2 0x2551 JUMP JUMPDEST DUP3 MSTORE POP POP JUMP JUMPDEST PUSH2 0x2575 DUP2 PUSH2 0x249A JUMP JUMPDEST DUP3 MSTORE POP POP JUMP JUMPDEST PUSH1 0x0 PUSH1 0x60 DUP3 ADD SWAP1 POP PUSH2 0x2590 PUSH1 0x0 DUP4 ADD DUP7 PUSH2 0x2542 JUMP JUMPDEST PUSH2 0x259D PUSH1 0x20 DUP4 ADD DUP6 PUSH2 0x255D JUMP JUMPDEST PUSH2 0x25AA PUSH1 0x40 DUP4 ADD DUP5 PUSH2 0x256C JUMP JUMPDEST SWAP5 SWAP4 POP POP POP POP JUMP JUMPDEST PUSH1 0x0 DUP1 REVERT JUMPDEST PUSH1 0x0 DUP1 REVERT JUMPDEST PUSH1 0x0 DUP1 DUP4 PUSH1 0x1F DUP5 ADD SLT PUSH2 0x25D2 JUMPI PUSH2 0x25D1 PUSH2 0x230B JUMP JUMPDEST JUMPDEST DUP3 CALLDATALOAD SWAP1 POP PUSH8 0xFFFFFFFFFFFFFFFF DUP2 GT ISZERO PUSH2 0x25EF JUMPI PUSH2 0x25EE PUSH2 0x25B2 JUMP JUMPDEST JUMPDEST PUSH1 0x20 DUP4 ADD SWAP2 POP DUP4 PUSH1 0x1 DUP3 MUL DUP4 ADD GT ISZERO PUSH2 0x260B JUMPI PUSH2 0x260A PUSH2 0x25B7 JUMP JUMPDEST JUMPDEST SWAP3 POP SWAP3 SWAP1 POP JUMP JUMPDEST PUSH1 0x0 DUP1 PUSH1 0x20 DUP4 DUP6 SUB SLT ISZERO PUSH2 0x2629 JUMPI PUSH2 0x2628 PUSH2 0x2301 JUMP JUMPDEST JUMPDEST PUSH1 0x0 DUP4 ADD CALLDATALOAD PUSH8 0xFFFFFFFFFFFFFFFF DUP2 GT ISZERO PUSH2 0x2647 JUMPI PUSH2 0x2646 PUSH2 0x2306 JUMP JUMPDEST JUMPDEST PUSH2 0x2653 DUP6 DUP3 DUP7 ADD PUSH2 0x25BC JUMP JUMPDEST SWAP3 POP SWAP3 POP POP SWAP3 POP SWAP3 SWAP1 POP JUMP JUMPDEST PUSH1 0x0 PUSH1 0x20 DUP3 DUP5 SUB SLT ISZERO PUSH2 0x2675 JUMPI PUSH2 0x2674 PUSH2 0x2301 JUMP JUMPDEST JUMPDEST PUSH1 0x0 PUSH2 0x2683 DUP5 DUP3 DUP6 ADD PUSH2 0x24BB JUMP JUMPDEST SWAP2 POP POP SWAP3 SWAP2 POP POP JUMP JUMPDEST PUSH1 0x0 PUSH1 0x80 DUP3 ADD SWAP1 POP PUSH2 0x26A1 PUSH1 0x0 DUP4 ADD DUP8 PUSH2 0x256C JUMP JUMPDEST PUSH2 0x26AE PUSH1 0x20 DUP4 ADD DUP7 PUSH2 0x2542 JUMP JUMPDEST PUSH2 0x26BB PUSH1 0x40 DUP4 ADD DUP6 PUSH2 0x255D JUMP JUMPDEST PUSH2 0x26C8 PUSH1 0x60 DUP4 ADD DUP5 PUSH2 0x256C JUMP JUMPDEST SWAP6 SWAP5 POP POP POP POP POP JUMP JUMPDEST PUSH1 0x0 DUP2 MLOAD SWAP1 POP SWAP2 SWAP1 POP JUMP JUMPDEST PUSH1 0x0 DUP3 DUP3 MSTORE PUSH1 0x20 DUP3 ADD SWAP1 POP SWAP3 SWAP2 POP POP JUMP JUMPDEST PUSH1 0x0 JUMPDEST DUP4 DUP2 LT ISZERO PUSH2 0x270B JUMPI DUP1 DUP3 ADD MLOAD DUP2 DUP5 ADD MSTORE PUSH1 0x20 DUP2 ADD SWAP1 POP PUSH2 0x26F0 JUMP JUMPDEST PUSH1 0x0 DUP5 DUP5 ADD MSTORE POP POP POP POP JUMP JUMPDEST PUSH1 0x0 PUSH2 0x2722 DUP3 PUSH2 0x26D1 JUMP JUMPDEST PUSH2 0x272C DUP2 DUP6 PUSH2 0x26DC JUMP JUMPDEST SWAP4 POP PUSH2 0x273C DUP2 DUP6 PUSH1 0x20 DUP7 ADD PUSH2 0x26ED JUMP JUMPDEST PUSH2 0x2745 DUP2 PUSH2 0x2315 JUMP JUMPDEST DUP5 ADD SWAP2 POP POP SWAP3 SWAP2 POP POP JUMP JUMPDEST PUSH1 0x0 PUSH1 0xC0 DUP3 ADD SWAP1 POP DUP2 DUP2 SUB PUSH1 0x0 DUP4 ADD MSTORE PUSH2 0x276A DUP2 DUP10 PUSH2 0x2717 JUMP JUMPDEST SWAP1 POP PUSH2 0x2779 PUSH1 0x20 DUP4 ADD DUP9 PUSH2 0x256C JUMP JUMPDEST PUSH2 0x2786 PUSH1 0x40 DUP4 ADD DUP8 PUSH2 0x2542 JUMP JUMPDEST PUSH2 0x2793 PUSH1 0x60 DUP4 ADD DUP7 PUSH2 0x256C JUMP JUMPDEST PUSH2 0x27A0 PUSH1 0x80 DUP4 ADD DUP6 PUSH2 0x256C JUMP JUMPDEST PUSH2 0x27AD PUSH1 0xA0 DUP4 ADD DUP5 PUSH2 0x256C JUMP JUMPDEST SWAP8 SWAP7 POP POP POP POP POP POP POP JUMP JUMPDEST PUSH1 0x0 DUP2 MLOAD SWAP1 POP SWAP2 SWAP1 POP JUMP JUMPDEST PUSH1 0x0 DUP3 DUP3 MSTORE PUSH1 0x20 DUP3 ADD SWAP1 POP SWAP3 SWAP2 POP POP JUMP JUMPDEST PUSH1 0x0 PUSH2 0x27DF DUP3 PUSH2 0x27B8 JUMP JUMPDEST PUSH2 0x27E9 DUP2 DUP6 PUSH2 0x27C3 JUMP JUMPDEST SWAP4 POP PUSH2 0x27F9 DUP2 DUP6 PUSH1 0x20 DUP7 ADD PUSH2 0x26ED JUMP JUMPDEST PUSH2 0x2802 DUP2 PUSH2 0x2315 JUMP JUMPDEST DUP5 ADD SWAP2 POP POP SWAP3 SWAP2 POP POP JUMP JUMPDEST PUSH1 0x0 PUSH1 0x40 DUP3 ADD SWAP1 POP PUSH2 0x2822 PUSH1 0x0 DUP4 ADD DUP6 PUSH2 0x255D JUMP JUMPDEST DUP2 DUP2 SUB PUSH1 0x20 DUP4 ADD MSTORE PUSH2 0x2834 DUP2 DUP5 PUSH2 0x27D4 JUMP JUMPDEST SWAP1 POP SWAP4 SWAP3 POP POP POP JUMP JUMPDEST PUSH2 0x2846 DUP2 PUSH2 0x2530 JUMP JUMPDEST DUP2 EQ PUSH2 0x2851 JUMPI PUSH1 0x0 DUP1 REVERT JUMPDEST POP JUMP JUMPDEST PUSH1 0x0 DUP2 CALLDATALOAD SWAP1 POP PUSH2 0x2863 DUP2 PUSH2 0x283D JUMP JUMPDEST SWAP3 SWAP2 POP POP JUMP JUMPDEST PUSH1 0x0 DUP1 PUSH1 0x40 DUP4 DUP6 SUB SLT ISZERO PUSH2 0x2880 JUMPI PUSH2 0x287F PUSH2 0x2301 JUMP JUMPDEST JUMPDEST PUSH1 0x0 PUSH2 0x288E DUP6 DUP3 DUP7 ADD PUSH2 0x24BB JUMP JUMPDEST SWAP3 POP POP PUSH1 0x20 PUSH2 0x289F DUP6 DUP3 DUP7 ADD PUSH2 0x2854 JUMP JUMPDEST SWAP2 POP POP SWAP3 POP SWAP3 SWAP1 POP JUMP JUMPDEST PUSH1 0x0 PUSH1 0x20 DUP3 ADD SWAP1 POP PUSH2 0x28BE PUSH1 0x0 DUP4 ADD DUP5 PUSH2 0x255D JUMP JUMPDEST SWAP3 SWAP2 POP POP JUMP JUMPDEST PUSH1 0x0 DUP2 MLOAD SWAP1 POP SWAP2 SWAP1 POP JUMP JUMPDEST PUSH1 0x0 DUP3 DUP3 MSTORE PUSH1 0x20 DUP3 ADD SWAP1 POP SWAP3 SWAP2 POP POP JUMP JUMPDEST PUSH1 0x0 DUP2 SWAP1 POP PUSH1 0x20 DUP3 ADD SWAP1 POP SWAP2 SWAP1 POP JUMP JUMPDEST PUSH2 0x28F9 DUP2 PUSH2 0x2530 JUMP JUMPDEST DUP3 MSTORE POP POP JUMP JUMPDEST PUSH1 0x0 PUSH2 0x290B DUP4 DUP4 PUSH2 0x28F0 JUMP JUMPDEST PUSH1 0x20 DUP4 ADD SWAP1 POP SWAP3 SWAP2 POP POP JUMP JUMPDEST PUSH1 0x0 PUSH1 0x20 DUP3 ADD SWAP1 POP SWAP2 SWAP1 POP JUMP JUMPDEST PUSH1 0x0 PUSH2 0x292F DUP3 PUSH2 0x28C4 JUMP JUMPDEST PUSH2 0x2939 DUP2 DUP6 PUSH2 0x28CF JUMP JUMPDEST SWAP4 POP PUSH2 0x2944 DUP4 PUSH2 0x28E0 JUMP JUMPDEST DUP1 PUSH1 0x0 JUMPDEST DUP4 DUP2 LT ISZERO PUSH2 0x2975 JUMPI DUP2 MLOAD PUSH2 0x295C DUP9 DUP3 PUSH2 0x28FF JUMP JUMPDEST SWAP8 POP PUSH2 0x2967 DUP4 PUSH2 0x2917 JUMP JUMPDEST SWAP3 POP POP PUSH1 0x1 DUP2 ADD SWAP1 POP PUSH2 0x2948 JUMP JUMPDEST POP DUP6 SWAP4 POP POP POP POP SWAP3 SWAP2 POP POP JUMP JUMPDEST PUSH1 0x0 DUP2 MLOAD SWAP1 POP SWAP2 SWAP1 POP JUMP JUMPDEST PUSH1 0x0 DUP3 DUP3 MSTORE PUSH1 0x20 DUP3 ADD SWAP1 POP SWAP3 SWAP2 POP POP JUMP JUMPDEST PUSH1 0x0 DUP2 SWAP1 POP PUSH1 0x20 DUP3 ADD SWAP1 POP SWAP2 SWAP1 POP JUMP JUMPDEST PUSH2 0x29B7 DUP2 PUSH2 0x249A JUMP JUMPDEST DUP3 MSTORE POP POP JUMP JUMPDEST PUSH1 0x0 PUSH2 0x29C9 DUP4 DUP4 PUSH2 0x29AE JUMP JUMPDEST PUSH1 0x20 DUP4 ADD SWAP1 POP SWAP3 SWAP2 POP POP JUMP JUMPDEST PUSH1 0x0 PUSH1 0x20 DUP3 ADD SWAP1 POP SWAP2 SWAP1 POP JUMP JUMPDEST PUSH1 0x0 PUSH2 0x29ED DUP3 PUSH2 0x2982 JUMP JUMPDEST PUSH2 0x29F7 DUP2 DUP6 PUSH2 0x298D JUMP JUMPDEST SWAP4 POP PUSH2 0x2A02 DUP4 PUSH2 0x299E JUMP JUMPDEST DUP1 PUSH1 0x0 JUMPDEST DUP4 DUP2 LT ISZERO PUSH2 0x2A33 JUMPI DUP2 MLOAD PUSH2 0x2A1A DUP9 DUP3 PUSH2 0x29BD JUMP JUMPDEST SWAP8 POP PUSH2 0x2A25 DUP4 PUSH2 0x29D5 JUMP JUMPDEST SWAP3 POP POP PUSH1 0x1 DUP2 ADD SWAP1 POP PUSH2 0x2A06 JUMP JUMPDEST POP DUP6 SWAP4 POP POP POP POP SWAP3 SWAP2 POP POP JUMP JUMPDEST PUSH1 0x0 PUSH1 0xE0 DUP3 ADD SWAP1 POP DUP2 DUP2 SUB PUSH1 0x0 DUP4 ADD MSTORE PUSH2 0x2A5A DUP2 DUP11 PUSH2 0x2717 JUMP JUMPDEST SWAP1 POP DUP2 DUP2 SUB PUSH1 0x20 DUP4 ADD MSTORE PUSH2 0x2A6E DUP2 DUP10 PUSH2 0x2924 JUMP JUMPDEST SWAP1 POP PUSH2 0x2A7D PUSH1 0x40 DUP4 ADD DUP9 PUSH2 0x2542 JUMP JUMPDEST DUP2 DUP2 SUB PUSH1 0x60 DUP4 ADD MSTORE PUSH2 0x2A8F DUP2 DUP8 PUSH2 0x29E2 JUMP JUMPDEST SWAP1 POP PUSH2 0x2A9E PUSH1 0x80 DUP4 ADD DUP7 PUSH2 0x256C JUMP JUMPDEST PUSH2 0x2AAB PUSH1 0xA0 DUP4 ADD DUP6 PUSH2 0x256C JUMP JUMPDEST PUSH2 0x2AB8 PUSH1 0xC0 DUP4 ADD DUP5 PUSH2 0x256C JUMP JUMPDEST SWAP9 SWAP8 POP POP POP POP POP POP POP POP JUMP JUMPDEST PUSH1 0x0 PUSH1 0x20 DUP3 ADD SWAP1 POP PUSH2 0x2AD9 PUSH1 0x0 DUP4 ADD DUP5 PUSH2 0x2542 JUMP JUMPDEST SWAP3 SWAP2 POP POP JUMP JUMPDEST PUSH1 0x0 PUSH1 0x20 DUP3 ADD SWAP1 POP DUP2 DUP2 SUB PUSH1 0x0 DUP4 ADD MSTORE PUSH2 0x2AF9 DUP2 DUP5 PUSH2 0x2924 JUMP JUMPDEST SWAP1 POP SWAP3 SWAP2 POP POP JUMP JUMPDEST PUSH1 0x0 DUP2 MLOAD SWAP1 POP SWAP2 SWAP1 POP JUMP JUMPDEST PUSH1 0x0 DUP3 DUP3 MSTORE PUSH1 0x20 DUP3 ADD SWAP1 POP SWAP3 SWAP2 POP POP JUMP JUMPDEST PUSH1 0x0 DUP2 SWAP1 POP PUSH1 0x20 DUP3 ADD SWAP1 POP SWAP2 SWAP1 POP JUMP JUMPDEST PUSH1 0x0 DUP3 DUP3 MSTORE PUSH1 0x20 DUP3 ADD SWAP1 POP SWAP3 SWAP2 POP POP JUMP JUMPDEST PUSH1 0x0 PUSH2 0x2B49 DUP3 PUSH2 0x26D1 JUMP JUMPDEST PUSH2 0x2B53 DUP2 DUP6 PUSH2 0x2B2D JUMP JUMPDEST SWAP4 POP PUSH2 0x2B63 DUP2 DUP6 PUSH1 0x20 DUP7 ADD PUSH2 0x26ED JUMP JUMPDEST PUSH2 0x2B6C DUP2 PUSH2 0x2315 JUMP JUMPDEST DUP5 ADD SWAP2 POP POP SWAP3 SWAP2 POP POP JUMP JUMPDEST PUSH1 0x0 PUSH2 0x2B83 DUP4 DUP4 PUSH2 0x2B3E JUMP JUMPDEST SWAP1 POP SWAP3 SWAP2 POP POP JUMP JUMPDEST PUSH1 0x0 PUSH1 0x20 DUP3 ADD SWAP1 POP SWAP2 SWAP1 POP JUMP JUMPDEST PUSH1 0x0 PUSH2 0x2BA3 DUP3 PUSH2 0x2B01 JUMP JUMPDEST PUSH2 0x2BAD DUP2 DUP6 PUSH2 0x2B0C JUMP JUMPDEST SWAP4 POP DUP4 PUSH1 0x20 DUP3 MUL DUP6 ADD PUSH2 0x2BBF DUP6 PUSH2 0x2B1D JUMP JUMPDEST DUP1 PUSH1 0x0 JUMPDEST DUP6 DUP2 LT ISZERO PUSH2 0x2BFB JUMPI DUP5 DUP5 SUB DUP10 MSTORE DUP2 MLOAD PUSH2 0x2BDC DUP6 DUP3 PUSH2 0x2B77 JUMP JUMPDEST SWAP5 POP PUSH2 0x2BE7 DUP4 PUSH2 0x2B8B JUMP JUMPDEST SWAP3 POP PUSH1 0x20 DUP11 ADD SWAP10 POP POP PUSH1 0x1 DUP2 ADD SWAP1 POP PUSH2 0x2BC3 JUMP JUMPDEST POP DUP3 SWAP8 POP DUP8 SWAP6 POP POP POP POP POP POP SWAP3 SWAP2 POP POP JUMP JUMPDEST PUSH1 0x0 DUP2 MLOAD SWAP1 POP SWAP2 SWAP1 POP JUMP JUMPDEST PUSH1 0x0 DUP3 DUP3 MSTORE PUSH1 0x20 DUP3 ADD SWAP1 POP SWAP3 SWAP2 POP POP JUMP JUMPDEST PUSH1 0x0 DUP2 SWAP1 POP PUSH1 0x20 DUP3 ADD SWAP1 POP SWAP2 SWAP1 POP JUMP JUMPDEST PUSH1 0x0 DUP3 DUP3 MSTORE PUSH1 0x20 DUP3 ADD SWAP1 POP SWAP3 SWAP2 POP POP JUMP JUMPDEST PUSH1 0x0 PUSH2 0x2C55 DUP3 PUSH2 0x28C4 JUMP JUMPDEST PUSH2 0x2C5F DUP2 DUP6 PUSH2 0x2C39 JUMP JUMPDEST SWAP4 POP PUSH2 0x2C6A DUP4 PUSH2 0x28E0 JUMP JUMPDEST DUP1 PUSH1 0x0 JUMPDEST DUP4 DUP2 LT ISZERO PUSH2 0x2C9B JUMPI DUP2 MLOAD PUSH2 0x2C82 DUP9 DUP3 PUSH2 0x28FF JUMP JUMPDEST SWAP8 POP PUSH2 0x2C8D DUP4 PUSH2 0x2917 JUMP JUMPDEST SWAP3 POP POP PUSH1 0x1 DUP2 ADD SWAP1 POP PUSH2 0x2C6E JUMP JUMPDEST POP DUP6 SWAP4 POP POP POP POP SWAP3 SWAP2 POP POP JUMP JUMPDEST PUSH1 0x0 PUSH2 0x2CB4 DUP4 DUP4 PUSH2 0x2C4A JUMP JUMPDEST SWAP1 POP SWAP3 SWAP2 POP POP JUMP JUMPDEST PUSH1 0x0 PUSH1 0x20 DUP3 ADD SWAP1 POP SWAP2 SWAP1 POP JUMP JUMPDEST PUSH1 0x0 PUSH2 0x2CD4 DUP3 PUSH2 0x2C0D JUMP JUMPDEST PUSH2 0x2CDE DUP2 DUP6 PUSH2 0x2C18 JUMP JUMPDEST SWAP4 POP DUP4 PUSH1 0x20 DUP3 MUL DUP6 ADD PUSH2 0x2CF0 DUP6 PUSH2 0x2C29 JUMP JUMPDEST DUP1 PUSH1 0x0 JUMPDEST DUP6 DUP2 LT ISZERO PUSH2 0x2D2C JUMPI DUP5 DUP5 SUB DUP10 MSTORE DUP2 MLOAD PUSH2 0x2D0D DUP6 DUP3 PUSH2 0x2CA8 JUMP JUMPDEST SWAP5 POP PUSH2 0x2D18 DUP4 PUSH2 0x2CBC JUMP JUMPDEST SWAP3 POP PUSH1 0x20 DUP11 ADD SWAP10 POP POP PUSH1 0x1 DUP2 ADD SWAP1 POP PUSH2 0x2CF4 JUMP JUMPDEST POP DUP3 SWAP8 POP DUP8 SWAP6 POP POP POP POP POP POP SWAP3 SWAP2 POP POP JUMP JUMPDEST PUSH1 0x0 PUSH1 0xC0 DUP3 ADD SWAP1 POP DUP2 DUP2 SUB PUSH1 0x0 DUP4 ADD MSTORE PUSH2 0x2D58 DUP2 DUP10 PUSH2 0x29E2 JUMP JUMPDEST SWAP1 POP DUP2 DUP2 SUB PUSH1 0x20 DUP4 ADD MSTORE PUSH2 0x2D6C DUP2 DUP9 PUSH2 0x2B98 JUMP JUMPDEST SWAP1 POP DUP2 DUP2 SUB PUSH1 0x40 DUP4 ADD MSTORE PUSH2 0x2D80 DUP2 DUP8 PUSH2 0x2924 JUMP JUMPDEST SWAP1 POP DUP2 DUP2 SUB PUSH1 0x60 DUP4 ADD MSTORE PUSH2 0x2D94 DUP2 DUP7 PUSH2 0x2CC9 JUMP JUMPDEST SWAP1 POP DUP2 DUP2 SUB PUSH1 0x80 DUP4 ADD MSTORE PUSH2 0x2DA8 DUP2 DUP6 PUSH2 0x29E2 JUMP JUMPDEST SWAP1 POP DUP2 DUP2 SUB PUSH1 0xA0 DUP4 ADD MSTORE PUSH2 0x2DBC DUP2 DUP5 PUSH2 0x29E2 JUMP JUMPDEST SWAP1 POP SWAP8 SWAP7 POP POP POP POP POP POP POP JUMP JUMPDEST PUSH1 0x0 PUSH1 0x20 DUP3 DUP5 SUB SLT ISZERO PUSH2 0x2DDF JUMPI PUSH2 0x2DDE PUSH2 0x2301 JUMP JUMPDEST JUMPDEST PUSH1 0x0 PUSH2 0x2DED DUP5 DUP3 DUP6 ADD PUSH2 0x2854 JUMP JUMPDEST SWAP2 POP POP SWAP3 SWAP2 POP POP JUMP JUMPDEST PUSH1 0x0 PUSH1 0x20 DUP3 ADD SWAP1 POP PUSH2 0x2E0B PUSH1 0x0 DUP4 ADD DUP5 PUSH2 0x256C JUMP JUMPDEST SWAP3 SWAP2 POP POP JUMP JUMPDEST PUSH32 0x496E636F727265637420616D6F756E742073656E740000000000000000000000 PUSH1 0x0 DUP3 ADD MSTORE POP JUMP JUMPDEST PUSH1 0x0 PUSH2 0x2E47 PUSH1 0x15 DUP4 PUSH2 0x26DC JUMP JUMPDEST SWAP2 POP PUSH2 0x2E52 DUP3 PUSH2 0x2E11 JUMP JUMPDEST PUSH1 0x20 DUP3 ADD SWAP1 POP SWAP2 SWAP1 POP JUMP JUMPDEST PUSH1 0x0 PUSH1 0x20 DUP3 ADD SWAP1 POP DUP2 DUP2 SUB PUSH1 0x0 DUP4 ADD MSTORE PUSH2 0x2E76 DUP2 PUSH2 0x2E3A JUMP JUMPDEST SWAP1 POP SWAP2 SWAP1 POP JUMP JUMPDEST PUSH32 0x596F752061726520696E206F7468657220636C616E0000000000000000000000 PUSH1 0x0 DUP3 ADD MSTORE POP JUMP JUMPDEST PUSH1 0x0 PUSH2 0x2EB3 PUSH1 0x15 DUP4 PUSH2 0x26DC JUMP JUMPDEST SWAP2 POP PUSH2 0x2EBE DUP3 PUSH2 0x2E7D JUMP JUMPDEST PUSH1 0x20 DUP3 ADD SWAP1 POP SWAP2 SWAP1 POP JUMP JUMPDEST PUSH1 0x0 PUSH1 0x20 DUP3 ADD SWAP1 POP DUP2 DUP2 SUB PUSH1 0x0 DUP4 ADD MSTORE PUSH2 0x2EE2 DUP2 PUSH2 0x2EA6 JUMP JUMPDEST SWAP1 POP SWAP2 SWAP1 POP JUMP JUMPDEST PUSH32 0x4E487B7100000000000000000000000000000000000000000000000000000000 PUSH1 0x0 MSTORE PUSH1 0x22 PUSH1 0x4 MSTORE PUSH1 0x24 PUSH1 0x0 REVERT JUMPDEST PUSH1 0x0 PUSH1 0x2 DUP3 DIV SWAP1 POP PUSH1 0x1 DUP3 AND DUP1 PUSH2 0x2F30 JUMPI PUSH1 0x7F DUP3 AND SWAP2 POP JUMPDEST PUSH1 0x20 DUP3 LT DUP2 SUB PUSH2 0x2F43 JUMPI PUSH2 0x2F42 PUSH2 0x2EE9 JUMP JUMPDEST JUMPDEST POP SWAP2 SWAP1 POP JUMP JUMPDEST PUSH1 0x0 DUP2 SWAP1 POP DUP2 PUSH1 0x0 MSTORE PUSH1 0x20 PUSH1 0x0 KECCAK256 SWAP1 POP SWAP2 SWAP1 POP JUMP JUMPDEST PUSH1 0x0 PUSH1 0x20 PUSH1 0x1F DUP4 ADD DIV SWAP1 POP SWAP2 SWAP1 POP JUMP JUMPDEST PUSH1 0x0 DUP3 DUP3 SHL SWAP1 POP SWAP3 SWAP2 POP POP JUMP JUMPDEST PUSH1 0x0 PUSH1 0x8 DUP4 MUL PUSH2 0x2FAB PUSH32 0xFFFFFFFFFFFFFFFFFFFFFFFFFFFFFFFFFFFFFFFFFFFFFFFFFFFFFFFFFFFFFFFF DUP3 PUSH2 0x2F6E JUMP JUMPDEST PUSH2 0x2FB5 DUP7 DUP4 PUSH2 0x2F6E JUMP JUMPDEST SWAP6 POP DUP1 NOT DUP5 AND SWAP4 POP DUP1 DUP7 AND DUP5 OR SWAP3 POP POP POP SWAP4 SWAP3 POP POP POP JUMP JUMPDEST PUSH1 0x0 DUP2 SWAP1 POP SWAP2 SWAP1 POP JUMP JUMPDEST PUSH1 0x0 PUSH2 0x2FF2 PUSH2 0x2FED PUSH2 0x2FE8 DUP5 PUSH2 0x249A JUMP JUMPDEST PUSH2 0x2FCD JUMP JUMPDEST PUSH2 0x249A JUMP JUMPDEST SWAP1 POP SWAP2 SWAP1 POP JUMP JUMPDEST PUSH1 0x0 DUP2 SWAP1 POP SWAP2 SWAP1 POP JUMP JUMPDEST PUSH2 0x300C DUP4 PUSH2 0x2FD7 JUMP JUMPDEST PUSH2 0x3020 PUSH2 0x3018 DUP3 PUSH2 0x2FF9 JUMP JUMPDEST DUP5 DUP5 SLOAD PUSH2 0x2F7B JUMP JUMPDEST DUP3 SSTORE POP POP POP POP JUMP JUMPDEST PUSH1 0x0 SWAP1 JUMP JUMPDEST PUSH2 0x3035 PUSH2 0x3028 JUMP JUMPDEST PUSH2 0x3040 DUP2 DUP5 DUP5 PUSH2 0x3003 JUMP JUMPDEST POP POP POP JUMP JUMPDEST JUMPDEST DUP2 DUP2 LT ISZERO PUSH2 0x3064 JUMPI PUSH2 0x3059 PUSH1 0x0 DUP3 PUSH2 0x302D JUMP JUMPDEST PUSH1 0x1 DUP2 ADD SWAP1 POP PUSH2 0x3046 JUMP JUMPDEST POP POP JUMP JUMPDEST PUSH1 0x1F DUP3 GT ISZERO PUSH2 0x30A9 JUMPI PUSH2 0x307A DUP2 PUSH2 0x2F49 JUMP JUMPDEST PUSH2 0x3083 DUP5 PUSH2 0x2F5E JUMP JUMPDEST DUP2 ADD PUSH1 0x20 DUP6 LT ISZERO PUSH2 0x3092 JUMPI DUP2 SWAP1 POP JUMPDEST PUSH2 0x30A6 PUSH2 0x309E DUP6 PUSH2 0x2F5E JUMP JUMPDEST DUP4 ADD DUP3 PUSH2 0x3045 JUMP JUMPDEST POP POP JUMPDEST POP POP POP JUMP JUMPDEST PUSH1 0x0 DUP3 DUP3 SHR SWAP1 POP SWAP3 SWAP2 POP POP JUMP JUMPDEST PUSH1 0x0 PUSH2 0x30CC PUSH1 0x0 NOT DUP5 PUSH1 0x8 MUL PUSH2 0x30AE JUMP JUMPDEST NOT DUP1 DUP4 AND SWAP2 POP POP SWAP3 SWAP2 POP POP JUMP JUMPDEST PUSH1 0x0 PUSH2 0x30E5 DUP4 DUP4 PUSH2 0x30BB JUMP JUMPDEST SWAP2 POP DUP3 PUSH1 0x2 MUL DUP3 OR SWAP1 POP SWAP3 SWAP2 POP POP JUMP JUMPDEST PUSH2 0x30FE DUP3 PUSH2 0x26D1 JUMP JUMPDEST PUSH8 0xFFFFFFFFFFFFFFFF DUP2 GT ISZERO PUSH2 0x3117 JUMPI PUSH2 0x3116 PUSH2 0x2326 JUMP JUMPDEST JUMPDEST PUSH2 0x3121 DUP3 SLOAD PUSH2 0x2F18 JUMP JUMPDEST PUSH2 0x312C DUP3 DUP3 DUP6 PUSH2 0x3068 JUMP JUMPDEST PUSH1 0x0 PUSH1 0x20 SWAP1 POP PUSH1 0x1F DUP4 GT PUSH1 0x1 DUP2 EQ PUSH2 0x315F JUMPI PUSH1 0x0 DUP5 ISZERO PUSH2 0x314D JUMPI DUP3 DUP8 ADD MLOAD SWAP1 POP JUMPDEST PUSH2 0x3157 DUP6 DUP3 PUSH2 0x30D9 JUMP JUMPDEST DUP7 SSTORE POP PUSH2 0x31BF JUMP JUMPDEST PUSH1 0x1F NOT DUP5 AND PUSH2 0x316D DUP7 PUSH2 0x2F49 JUMP JUMPDEST PUSH1 0x0 JUMPDEST DUP3 DUP2 LT ISZERO PUSH2 0x3195 JUMPI DUP5 DUP10 ADD MLOAD DUP3 SSTORE PUSH1 0x1 DUP3 ADD SWAP2 POP PUSH1 0x20 DUP6 ADD SWAP5 POP PUSH1 0x20 DUP2 ADD SWAP1 POP PUSH2 0x3170 JUMP JUMPDEST DUP7 DUP4 LT ISZERO PUSH2 0x31B2 JUMPI DUP5 DUP10 ADD MLOAD PUSH2 0x31AE PUSH1 0x1F DUP10 AND DUP3 PUSH2 0x30BB JUMP JUMPDEST DUP4 SSTORE POP JUMPDEST PUSH1 0x1 PUSH1 0x2 DUP9 MUL ADD DUP9 SSTORE POP POP POP JUMPDEST POP POP POP POP POP POP JUMP JUMPDEST PUSH32 0x4E487B7100000000000000000000000000000000000000000000000000000000 PUSH1 0x0 MSTORE PUSH1 0x11 PUSH1 0x4 MSTORE PUSH1 0x24 PUSH1 0x0 REVERT JUMPDEST PUSH1 0x0 PUSH2 0x3201 DUP3 PUSH2 0x249A JUMP JUMPDEST SWAP2 POP PUSH2 0x320C DUP4 PUSH2 0x249A JUMP JUMPDEST SWAP3 POP DUP3 DUP3 SUB SWAP1 POP DUP2 DUP2 GT ISZERO PUSH2 0x3224 JUMPI PUSH2 0x3223 PUSH2 0x31C7 JUMP JUMPDEST JUMPDEST SWAP3 SWAP2 POP POP JUMP JUMPDEST PUSH32 0x4E487B7100000000000000000000000000000000000000000000000000000000 PUSH1 0x0 MSTORE PUSH1 0x32 PUSH1 0x4 MSTORE PUSH1 0x24 PUSH1 0x0 REVERT JUMPDEST PUSH1 0x0 PUSH2 0x3264 DUP3 PUSH2 0x249A JUMP JUMPDEST SWAP2 POP PUSH2 0x326F DUP4 PUSH2 0x249A JUMP JUMPDEST SWAP3 POP DUP3 DUP3 ADD SWAP1 POP DUP1 DUP3 GT ISZERO PUSH2 0x3287 JUMPI PUSH2 0x3286 PUSH2 0x31C7 JUMP JUMPDEST JUMPDEST SWAP3 SWAP2 POP POP JUMP JUMPDEST PUSH32 0x596F7520617265206E6F7420746865206C6561646572206F6620746869732063 PUSH1 0x0 DUP3 ADD MSTORE PUSH32 0x6C616E2100000000000000000000000000000000000000000000000000000000 PUSH1 0x20 DUP3 ADD MSTORE POP JUMP JUMPDEST PUSH1 0x0 PUSH2 0x32E9 PUSH1 0x24 DUP4 PUSH2 0x26DC JUMP JUMPDEST SWAP2 POP PUSH2 0x32F4 DUP3 PUSH2 0x328D JUMP JUMPDEST PUSH1 0x40 DUP3 ADD SWAP1 POP SWAP2 SWAP1 POP JUMP JUMPDEST PUSH1 0x0 PUSH1 0x20 DUP3 ADD SWAP1 POP DUP2 DUP2 SUB PUSH1 0x0 DUP4 ADD MSTORE PUSH2 0x3318 DUP2 PUSH2 0x32DC JUMP JUMPDEST SWAP1 POP SWAP2 SWAP1 POP JUMP JUMPDEST PUSH32 0x436C616E20646F6573206E6F7420657869737400000000000000000000000000 PUSH1 0x0 DUP3 ADD MSTORE POP JUMP JUMPDEST PUSH1 0x0 PUSH2 0x3355 PUSH1 0x13 DUP4 PUSH2 0x26DC JUMP JUMPDEST SWAP2 POP PUSH2 0x3360 DUP3 PUSH2 0x331F JUMP JUMPDEST PUSH1 0x20 DUP3 ADD SWAP1 POP SWAP2 SWAP1 POP JUMP JUMPDEST PUSH1 0x0 PUSH1 0x20 DUP3 ADD SWAP1 POP DUP2 DUP2 SUB PUSH1 0x0 DUP4 ADD MSTORE PUSH2 0x3384 DUP2 PUSH2 0x3348 JUMP JUMPDEST SWAP1 POP SWAP2 SWAP1 POP JUMP JUMPDEST PUSH32 0x496E76616C6964206D656D626572206164647265737300000000000000000000 PUSH1 0x0 DUP3 ADD MSTORE POP JUMP JUMPDEST PUSH1 0x0 PUSH2 0x33C1 PUSH1 0x16 DUP4 PUSH2 0x26DC JUMP JUMPDEST SWAP2 POP PUSH2 0x33CC DUP3 PUSH2 0x338B JUMP JUMPDEST PUSH1 0x20 DUP3 ADD SWAP1 POP SWAP2 SWAP1 POP JUMP JUMPDEST PUSH1 0x0 PUSH1 0x20 DUP3 ADD SWAP1 POP DUP2 DUP2 SUB PUSH1 0x0 DUP4 ADD MSTORE PUSH2 0x33F0 DUP2 PUSH2 0x33B4 JUMP JUMPDEST SWAP1 POP SWAP2 SWAP1 POP JUMP JUMPDEST PUSH32 0x5573657220697320616C726561647920696E206120636C616E00000000000000 PUSH1 0x0 DUP3 ADD MSTORE POP JUMP JUMPDEST PUSH1 0x0 PUSH2 0x342D PUSH1 0x19 DUP4 PUSH2 0x26DC JUMP JUMPDEST SWAP2 POP PUSH2 0x3438 DUP3 PUSH2 0x33F7 JUMP JUMPDEST PUSH1 0x20 DUP3 ADD SWAP1 POP SWAP2 SWAP1 POP JUMP JUMPDEST PUSH1 0x0 PUSH1 0x20 DUP3 ADD SWAP1 POP DUP2 DUP2 SUB PUSH1 0x0 DUP4 ADD MSTORE PUSH2 0x345C DUP2 PUSH2 0x3420 JUMP JUMPDEST SWAP1 POP SWAP2 SWAP1 POP JUMP JUMPDEST PUSH32 0x4E6F2061637469766520766F746520696E2070726F6772657373000000000000 PUSH1 0x0 DUP3 ADD MSTORE POP JUMP JUMPDEST PUSH1 0x0 PUSH2 0x3499 PUSH1 0x1A DUP4 PUSH2 0x26DC JUMP JUMPDEST SWAP2 POP PUSH2 0x34A4 DUP3 PUSH2 0x3463 JUMP JUMPDEST PUSH1 0x20 DUP3 ADD SWAP1 POP SWAP2 SWAP1 POP JUMP JUMPDEST PUSH1 0x0 PUSH1 0x20 DUP3 ADD SWAP1 POP DUP2 DUP2 SUB PUSH1 0x0 DUP4 ADD MSTORE PUSH2 0x34C8 DUP2 PUSH2 0x348C JUMP JUMPDEST SWAP1 POP SWAP2 SWAP1 POP JUMP JUMPDEST PUSH32 0x54686520766F7465206973207374696C6C206F6E676F696E6700000000000000 PUSH1 0x0 DUP3 ADD MSTORE POP JUMP JUMPDEST PUSH1 0x0 PUSH2 0x3505 PUSH1 0x19 DUP4 PUSH2 0x26DC JUMP JUMPDEST SWAP2 POP PUSH2 0x3510 DUP3 PUSH2 0x34CF JUMP JUMPDEST PUSH1 0x20 DUP3 ADD SWAP1 POP SWAP2 SWAP1 POP JUMP JUMPDEST PUSH1 0x0 PUSH1 0x20 DUP3 ADD SWAP1 POP DUP2 DUP2 SUB PUSH1 0x0 DUP4 ADD MSTORE PUSH2 0x3534 DUP2 PUSH2 0x34F8 JUMP JUMPDEST SWAP1 POP SWAP2 SWAP1 POP JUMP JUMPDEST PUSH32 0x4120766F74652063616E206F6E6C792062652063726561746564206F6E636520 PUSH1 0x0 DUP3 ADD MSTORE PUSH32 0x61206D6F6E746800000000000000000000000000000000000000000000000000 PUSH1 0x20 DUP3 ADD MSTORE POP JUMP JUMPDEST PUSH1 0x0 PUSH2 0x3597 PUSH1 0x27 DUP4 PUSH2 0x26DC JUMP JUMPDEST SWAP2 POP PUSH2 0x35A2 DUP3 PUSH2 0x353B JUMP JUMPDEST PUSH1 0x40 DUP3 ADD SWAP1 POP SWAP2 SWAP1 POP JUMP JUMPDEST PUSH1 0x0 PUSH1 0x20 DUP3 ADD SWAP1 POP DUP2 DUP2 SUB PUSH1 0x0 DUP4 ADD MSTORE PUSH2 0x35C6 DUP2 PUSH2 0x358A JUMP JUMPDEST SWAP1 POP SWAP2 SWAP1 POP JUMP JUMPDEST PUSH32 0x4120766F746520697320616C7265616479206163746976650000000000000000 PUSH1 0x0 DUP3 ADD MSTORE POP JUMP JUMPDEST PUSH1 0x0 PUSH2 0x3603 PUSH1 0x18 DUP4 PUSH2 0x26DC JUMP JUMPDEST SWAP2 POP PUSH2 0x360E DUP3 PUSH2 0x35CD JUMP JUMPDEST PUSH1 0x20 DUP3 ADD SWAP1 POP SWAP2 SWAP1 POP JUMP JUMPDEST PUSH1 0x0 PUSH1 0x20 DUP3 ADD SWAP1 POP DUP2 DUP2 SUB PUSH1 0x0 DUP4 ADD MSTORE PUSH2 0x3632 DUP2 PUSH2 0x35F6 JUMP JUMPDEST SWAP1 POP SWAP2 SWAP1 POP JUMP JUMPDEST PUSH32 0x596F7520617265206E6F742061206D656D626572206F66207468697320636C61 PUSH1 0x0 DUP3 ADD MSTORE PUSH32 0x6E00000000000000000000000000000000000000000000000000000000000000 PUSH1 0x20 DUP3 ADD MSTORE POP JUMP JUMPDEST PUSH1 0x0 PUSH2 0x3695 PUSH1 0x21 DUP4 PUSH2 0x26DC JUMP JUMPDEST SWAP2 POP PUSH2 0x36A0 DUP3 PUSH2 0x3639 JUMP JUMPDEST PUSH1 0x40 DUP3 ADD SWAP1 POP SWAP2 SWAP1 POP JUMP JUMPDEST PUSH1 0x0 PUSH1 0x20 DUP3 ADD SWAP1 POP DUP2 DUP2 SUB PUSH1 0x0 DUP4 ADD MSTORE PUSH2 0x36C4 DUP2 PUSH2 0x3688 JUMP JUMPDEST SWAP1 POP SWAP2 SWAP1 POP JUMP JUMPDEST PUSH32 0x54686520766F74652068617320656E6465640000000000000000000000000000 PUSH1 0x0 DUP3 ADD MSTORE POP JUMP JUMPDEST PUSH1 0x0 PUSH2 0x3701 PUSH1 0x12 DUP4 PUSH2 0x26DC JUMP JUMPDEST SWAP2 POP PUSH2 0x370C DUP3 PUSH2 0x36CB JUMP JUMPDEST PUSH1 0x20 DUP3 ADD SWAP1 POP SWAP2 SWAP1 POP JUMP JUMPDEST PUSH1 0x0 PUSH1 0x20 DUP3 ADD SWAP1 POP DUP2 DUP2 SUB PUSH1 0x0 DUP4 ADD MSTORE PUSH2 0x3730 DUP2 PUSH2 0x36F4 JUMP JUMPDEST SWAP1 POP SWAP2 SWAP1 POP JUMP JUMPDEST PUSH32 0x43616E646964617465206973206E6F74206120636C616E206D656D6265720000 PUSH1 0x0 DUP3 ADD MSTORE POP JUMP JUMPDEST PUSH1 0x0 PUSH2 0x376D PUSH1 0x1E DUP4 PUSH2 0x26DC JUMP JUMPDEST SWAP2 POP PUSH2 0x3778 DUP3 PUSH2 0x3737 JUMP JUMPDEST PUSH1 0x20 DUP3 ADD SWAP1 POP SWAP2 SWAP1 POP JUMP JUMPDEST PUSH1 0x0 PUSH1 0x20 DUP3 ADD SWAP1 POP DUP2 DUP2 SUB PUSH1 0x0 DUP4 ADD MSTORE PUSH2 0x379C DUP2 PUSH2 0x3760 JUMP JUMPDEST SWAP1 POP SWAP2 SWAP1 POP JUMP JUMPDEST PUSH32 0x596F75206861766520616C726561647920766F74656400000000000000000000 PUSH1 0x0 DUP3 ADD MSTORE POP JUMP JUMPDEST PUSH1 0x0 PUSH2 0x37D9 PUSH1 0x16 DUP4 PUSH2 0x26DC JUMP JUMPDEST SWAP2 POP PUSH2 0x37E4 DUP3 PUSH2 0x37A3 JUMP JUMPDEST PUSH1 0x20 DUP3 ADD SWAP1 POP SWAP2 SWAP1 POP JUMP JUMPDEST PUSH1 0x0 PUSH1 0x20 DUP3 ADD SWAP1 POP DUP2 DUP2 SUB PUSH1 0x0 DUP4 ADD MSTORE PUSH2 0x3808 DUP2 PUSH2 0x37CC JUMP JUMPDEST SWAP1 POP SWAP2 SWAP1 POP JUMP JUMPDEST PUSH1 0x0 PUSH2 0x381A DUP3 PUSH2 0x249A JUMP JUMPDEST SWAP2 POP PUSH32 0xFFFFFFFFFFFFFFFFFFFFFFFFFFFFFFFFFFFFFFFFFFFFFFFFFFFFFFFFFFFFFFFF DUP3 SUB PUSH2 0x384C JUMPI PUSH2 0x384B PUSH2 0x31C7 JUMP JUMPDEST JUMPDEST PUSH1 0x1 DUP3 ADD SWAP1 POP SWAP2 SWAP1 POP JUMP JUMPDEST PUSH32 0x4F776E61626C653A206E6577206F776E657220697320746865207A65726F2061 PUSH1 0x0 DUP3 ADD MSTORE PUSH32 0x6464726573730000000000000000000000000000000000000000000000000000 PUSH1 0x20 DUP3 ADD MSTORE POP JUMP JUMPDEST PUSH1 0x0 PUSH2 0x38B3 PUSH1 0x26 DUP4 PUSH2 0x26DC JUMP JUMPDEST SWAP2 POP PUSH2 0x38BE DUP3 PUSH2 0x3857 JUMP JUMPDEST PUSH1 0x40 DUP3 ADD SWAP1 POP SWAP2 SWAP1 POP JUMP JUMPDEST PUSH1 0x0 PUSH1 0x20 DUP3 ADD SWAP1 POP DUP2 DUP2 SUB PUSH1 0x0 DUP4 ADD MSTORE PUSH2 0x38E2 DUP2 PUSH2 0x38A6 JUMP JUMPDEST SWAP1 POP SWAP2 SWAP1 POP JUMP JUMPDEST PUSH32 0x4F776E61626C653A2063616C6C6572206973206E6F7420746865206F776E6572 PUSH1 0x0 DUP3 ADD MSTORE POP JUMP JUMPDEST PUSH1 0x0 PUSH2 0x391F PUSH1 0x20 DUP4 PUSH2 0x26DC JUMP JUMPDEST SWAP2 POP PUSH2 0x392A DUP3 PUSH2 0x38E9 JUMP JUMPDEST PUSH1 0x20 DUP3 ADD SWAP1 POP SWAP2 SWAP1 POP JUMP JUMPDEST PUSH1 0x0 PUSH1 0x20 DUP3 ADD SWAP1 POP DUP2 DUP2 SUB PUSH1 0x0 DUP4 ADD MSTORE PUSH2 0x394E DUP2 PUSH2 0x3912 JUMP JUMPDEST SWAP1 POP SWAP2 SWAP1 POP JUMP INVALID LOG2 PUSH5 0x6970667358 0x22 SLT KECCAK256 0x4E 0xB9 CALLVALUE XOR 0x4E TIMESTAMP 0x4B LOG4 PUSH19 0xD9A6EABE65A5AFFE6829A8D14D30C8E0A905DE 0xE6 DUP5 0xF9 0x25 PUSH5 0x736F6C6343 STOP ADDMOD XOR STOP CALLER "},"methodIdentifiers":{"addMember(uint256,address)":"74d0a676","checkUpkeep(bytes)":"6e04ff0d","clanIds(uint256)":"e3274d08","clans(uint256)":"66469a3a","createClan(string)":"14cebc71","createNewVote(uint256)":"c39714be","endVote(uint256)":"865df0ad","getAllClans()":"9b21d6eb","getClanDetails(uint256)":"8698b438","getClanMembers(uint256)":"99ee1998","getVoteDetails(uint256,uint256)":"31c39fa4","isMember(uint256,address)":"7d9e10f5","owner()":"8da5cb5b","performUpkeep(bytes)":"4585e33b","renounceOwnership()":"715018a6","transferOwnership(address)":"f2fde38b","userClan(address)":"afd15b06","voteForLeader(uint256,address)":"e112d7af","votes(uint256)":"5df81330"}}}}}