{
  "_format": "hh-sol-artifact-1",
  "contractName": "HaverVoting",
  "sourceName": "contracts/HaverClan.sol",
  "abi": [
    {
      "inputs": [],
      "stateMutability": "nonpayable",
      "type": "constructor"
    },
    {
      "inputs": [],
      "name": "OnlySimulatedBackend",
      "type": "error"
    },
    {
      "anonymous": false,
      "inputs": [
        {
          "indexed": true,
          "internalType": "address",
          "name": "previousOwner",
          "type": "address"
        },
        {
          "indexed": true,
          "internalType": "address",
          "name": "newOwner",
          "type": "address"
        }
      ],
      "name": "OwnershipTransferred",
      "type": "event"
    },
    {
      "inputs": [
        {
          "internalType": "uint256",
          "name": "clanId",
          "type": "uint256"
        },
        {
          "internalType": "address",
          "name": "member",
          "type": "address"
        }
      ],
      "name": "addMember",
      "outputs": [],
      "stateMutability": "nonpayable",
      "type": "function"
    },
    {
      "inputs": [
        {
          "internalType": "bytes",
          "name": "",
          "type": "bytes"
        }
      ],
      "name": "checkUpkeep",
      "outputs": [
        {
          "internalType": "bool",
          "name": "upkeepNeeded",
          "type": "bool"
        },
        {
          "internalType": "bytes",
          "name": "",
          "type": "bytes"
        }
      ],
      "stateMutability": "view",
      "type": "function"
    },
    {
      "inputs": [
        {
          "internalType": "uint256",
          "name": "",
          "type": "uint256"
        }
      ],
      "name": "clanIds",
      "outputs": [
        {
          "internalType": "uint256",
          "name": "",
          "type": "uint256"
        }
      ],
      "stateMutability": "view",
      "type": "function"
    },
    {
      "inputs": [
        {
          "internalType": "uint256",
          "name": "",
          "type": "uint256"
        }
      ],
      "name": "clans",
      "outputs": [
        {
          "internalType": "string",
          "name": "name",
          "type": "string"
        },
        {
          "internalType": "uint256",
          "name": "clanId",
          "type": "uint256"
        },
        {
          "internalType": "address",
          "name": "leader",
          "type": "address"
        },
        {
          "internalType": "uint256",
          "name": "currentVoteId",
          "type": "uint256"
        },
        {
          "internalType": "uint256",
          "name": "lastVoteTime",
          "type": "uint256"
        },
        {
          "internalType": "uint256",
          "name": "lastVoteEndTime",
          "type": "uint256"
        }
      ],
      "stateMutability": "view",
      "type": "function"
    },
    {
      "inputs": [
        {
          "internalType": "string",
          "name": "_name",
          "type": "string"
        }
      ],
      "name": "createClan",
      "outputs": [],
      "stateMutability": "payable",
      "type": "function"
    },
    {
      "inputs": [
        {
          "internalType": "uint256",
          "name": "clanId",
          "type": "uint256"
        }
      ],
      "name": "createNewVote",
      "outputs": [],
      "stateMutability": "nonpayable",
      "type": "function"
    },
    {
      "inputs": [
        {
          "internalType": "uint256",
          "name": "clanId",
          "type": "uint256"
        }
      ],
      "name": "endVote",
      "outputs": [],
      "stateMutability": "nonpayable",
      "type": "function"
    },
    {
      "inputs": [],
      "name": "getAllClans",
      "outputs": [
        {
          "internalType": "uint256[]",
          "name": "ids",
          "type": "uint256[]"
        },
        {
          "internalType": "string[]",
          "name": "names",
          "type": "string[]"
        },
        {
          "internalType": "address[]",
          "name": "leaders",
          "type": "address[]"
        },
        {
          "internalType": "address[][]",
          "name": "members",
          "type": "address[][]"
        },
        {
          "internalType": "uint256[]",
          "name": "lastVoteTimes",
          "type": "uint256[]"
        },
        {
          "internalType": "uint256[]",
          "name": "lastVoteEndTimes",
          "type": "uint256[]"
        }
      ],
      "stateMutability": "view",
      "type": "function"
    },
    {
      "inputs": [
        {
          "internalType": "uint256",
          "name": "clanId",
          "type": "uint256"
        }
      ],
      "name": "getClanDetails",
      "outputs": [
        {
          "internalType": "string",
          "name": "name",
          "type": "string"
        },
        {
          "internalType": "address[]",
          "name": "members",
          "type": "address[]"
        },
        {
          "internalType": "address",
          "name": "leader",
          "type": "address"
        },
        {
          "internalType": "uint256[]",
          "name": "idsVotes",
          "type": "uint256[]"
        },
        {
          "internalType": "uint256",
          "name": "currentVoteId",
          "type": "uint256"
        },
        {
          "internalType": "uint256",
          "name": "lastVoteTime",
          "type": "uint256"
        },
        {
          "internalType": "uint256",
          "name": "lastVoteEndTime",
          "type": "uint256"
        }
      ],
      "stateMutability": "view",
      "type": "function"
    },
    {
      "inputs": [
        {
          "internalType": "uint256",
          "name": "clanId",
          "type": "uint256"
        }
      ],
      "name": "getClanMembers",
      "outputs": [
        {
          "internalType": "address[]",
          "name": "",
          "type": "address[]"
        }
      ],
      "stateMutability": "view",
      "type": "function"
    },
    {
      "inputs": [
        {
          "internalType": "uint256",
          "name": "clanId",
          "type": "uint256"
        },
        {
          "internalType": "uint256",
          "name": "voteId",
          "type": "uint256"
        }
      ],
      "name": "getVoteDetails",
      "outputs": [
        {
          "internalType": "address",
          "name": "winningCandidate",
          "type": "address"
        },
        {
          "internalType": "bool",
          "name": "isActive",
          "type": "bool"
        },
        {
          "internalType": "uint256",
          "name": "endTime",
          "type": "uint256"
        }
      ],
      "stateMutability": "view",
      "type": "function"
    },
    {
      "inputs": [
        {
          "internalType": "uint256",
          "name": "clanId",
          "type": "uint256"
        },
        {
          "internalType": "address",
          "name": "user",
          "type": "address"
        }
      ],
      "name": "isMember",
      "outputs": [
        {
          "internalType": "bool",
          "name": "",
          "type": "bool"
        }
      ],
      "stateMutability": "view",
      "type": "function"
    },
    {
      "inputs": [],
      "name": "owner",
      "outputs": [
        {
          "internalType": "address",
          "name": "",
          "type": "address"
        }
      ],
      "stateMutability": "view",
      "type": "function"
    },
    {
      "inputs": [
        {
          "internalType": "bytes",
          "name": "",
          "type": "bytes"
        }
      ],
      "name": "performUpkeep",
      "outputs": [],
      "stateMutability": "nonpayable",
      "type": "function"
    },
    {
      "inputs": [],
      "name": "renounceOwnership",
      "outputs": [],
      "stateMutability": "nonpayable",
      "type": "function"
    },
    {
      "inputs": [
        {
          "internalType": "address",
          "name": "newOwner",
          "type": "address"
        }
      ],
      "name": "transferOwnership",
      "outputs": [],
      "stateMutability": "nonpayable",
      "type": "function"
    },
    {
      "inputs": [
        {
          "internalType": "address",
          "name": "",
          "type": "address"
        }
      ],
      "name": "userClan",
      "outputs": [
        {
          "internalType": "uint256",
          "name": "",
          "type": "uint256"
        }
      ],
      "stateMutability": "view",
      "type": "function"
    },
    {
      "inputs": [
        {
          "internalType": "uint256",
          "name": "clanId",
          "type": "uint256"
        },
        {
          "internalType": "address",
          "name": "candidate",
          "type": "address"
        }
      ],
      "name": "voteForLeader",
      "outputs": [],
      "stateMutability": "nonpayable",
      "type": "function"
    },
    {
      "inputs": [
        {
          "internalType": "uint256",
          "name": "",
          "type": "uint256"
        }
      ],
      "name": "votes",
      "outputs": [
        {
          "internalType": "uint256",
          "name": "voteId",
          "type": "uint256"
        },
        {
          "internalType": "address",
          "name": "winningCandidate",
          "type": "address"
        },
        {
          "internalType": "bool",
          "name": "isActive",
          "type": "bool"
        },
        {
          "internalType": "uint256",
          "name": "endTime",
          "type": "uint256"
        }
      ],
      "stateMutability": "view",
      "type": "function"
    }
  ],
  "bytecode": "0x6080604052655af3107a40006003553480156200001b57600080fd5b506200003c620000306200004260201b60201c565b6200004a60201b60201c565b6200010e565b600033905090565b60008060009054906101000a900473ffffffffffffffffffffffffffffffffffffffff169050816000806101000a81548173ffffffffffffffffffffffffffffffffffffffff021916908373ffffffffffffffffffffffffffffffffffffffff1602179055508173ffffffffffffffffffffffffffffffffffffffff168173ffffffffffffffffffffffffffffffffffffffff167f8be0079c531659141344cd1fd0a4f28419497f9722a3daafe3b4186f6b6457e060405160405180910390a35050565b61398b806200011e6000396000f3fe6080604052600436106101145760003560e01c8063865df0ad116100a0578063afd15b0611610064578063afd15b06146103de578063c39714be1461041b578063e112d7af14610444578063e3274d081461046d578063f2fde38b146104aa57610114565b8063865df0ad146102da5780638698b438146103035780638da5cb5b1461034657806399ee1998146103715780639b21d6eb146103ae57610114565b806366469a3a116100e757806366469a3a146101dd5780636e04ff0d1461021f578063715018a61461025d57806374d0a676146102745780637d9e10f51461029d57610114565b806314cebc711461011957806331c39fa4146101355780634585e33b146101745780635df813301461019d575b600080fd5b610133600480360381019061012e9190612451565b6104d3565b005b34801561014157600080fd5b5061015c600480360381019061015791906124d0565b61078a565b60405161016b9392919061257b565b60405180910390f35b34801561018057600080fd5b5061019b60048036038101906101969190612612565b610803565b005b3480156101a957600080fd5b506101c460048036038101906101bf919061265f565b61094a565b6040516101d4949392919061268c565b60405180910390f35b3480156101e957600080fd5b5061020460048036038101906101ff919061265f565b6109b7565b60405161021696959493929190612750565b60405180910390f35b34801561022b57600080fd5b5061024660048036038101906102419190612612565b610a9b565b60405161025492919061280d565b60405180910390f35b34801561026957600080fd5b50610272610be2565b005b34801561028057600080fd5b5061029b60048036038101906102969190612869565b610bf6565b005b3480156102a957600080fd5b506102c460048036038101906102bf9190612869565b610e99565b6040516102d191906128a9565b60405180910390f35b3480156102e657600080fd5b5061030160048036038101906102fc919061265f565b610fa9565b005b34801561030f57600080fd5b5061032a6004803603810190610325919061265f565b6112a1565b60405161033d9796959493929190612a40565b60405180910390f35b34801561035257600080fd5b5061035b6114d1565b6040516103689190612ac4565b60405180910390f35b34801561037d57600080fd5b506103986004803603810190610393919061265f565b6114fa565b6040516103a59190612adf565b60405180910390f35b3480156103ba57600080fd5b506103c36115eb565b6040516103d596959493929190612d3e565b60405180910390f35b3480156103ea57600080fd5b5061040560048036038101906104009190612dc9565b611a58565b6040516104129190612df6565b60405180910390f35b34801561042757600080fd5b50610442600480360381019061043d919061265f565b611a70565b005b34801561045057600080fd5b5061046b60048036038101906104669190612869565b611c5e565b005b34801561047957600080fd5b50610494600480360381019061048f919061265f565b612012565b6040516104a19190612df6565b60405180910390f35b3480156104b657600080fd5b506104d160048036038101906104cc9190612dc9565b612036565b005b6003543414610517576040517f08c379a000000000000000000000000000000000000000000000000000000000815260040161050e90612e5d565b60405180910390fd5b6000600560003373ffffffffffffffffffffffffffffffffffffffff1673ffffffffffffffffffffffffffffffffffffffff1681526020019081526020016000205414801561057f5750600061056d60016120b9565b148061057e575061057d336120c7565b5b5b6105be576040517f08c379a00000000000000000000000000000000000000000000000000000000081526004016105b590612ec9565b60405180910390fd5b60006105ca60016120b9565b90506000600460008381526020019081526020016000209050818160010181905550828160000190816105fd91906130f5565b5080600201339080600181540180825580915050600190039060005260206000200160009091909190916101000a81548173ffffffffffffffffffffffffffffffffffffffff021916908373ffffffffffffffffffffffffffffffffffffffff160217905550338160030160006101000a81548173ffffffffffffffffffffffffffffffffffffffff021916908373ffffffffffffffffffffffffffffffffffffffff16021790555042816007018190555081600560003373ffffffffffffffffffffffffffffffffffffffff1673ffffffffffffffffffffffffffffffffffffffff1681526020019081526020016000208190555060068290806001815401808255809150506001900390600052602060002001600090919091909150556107266001612197565b600354341115610785573373ffffffffffffffffffffffffffffffffffffffff166108fc6003543461075891906131f6565b9081150290604051600060405180830381858888f19350505050158015610783573d6000803e3d6000fd5b505b505050565b60008060008060046000878152602001908152602001600020600401600086815260200190815260200160002090508060040160009054906101000a900473ffffffffffffffffffffffffffffffffffffffff168160040160149054906101000a900460ff168260050154935093509350509250925092565b6000600680549050905060005b818110156109445760006006828154811061082e5761082d61322a565b5b9060005260206000200154905060006004600083815260200190815260200160002090506000816006015490506000811415801561088e575081600401600082815260200190815260200160002060040160149054906101000a900460ff165b80156108bf575061012c826004016000838152602001908152602001600020600501546108bb9190613259565b4210155b156108ce576108cd83610fa9565b5b61038482600701546108e09190613259565b4210158015610925575060008260060154148061092457508160040160008360060154815260200190815260200160002060040160149054906101000a900460ff16155b5b156109345761093383611a70565b5b5050508080600101915050610810565b50505050565b6007818154811061095a57600080fd5b90600052602060002090600602016000915090508060000154908060040160009054906101000a900473ffffffffffffffffffffffffffffffffffffffff16908060040160149054906101000a900460ff16908060050154905084565b60046020528060005260406000206000915090508060000180546109da90612f18565b80601f0160208091040260200160405190810160405280929190818152602001828054610a0690612f18565b8015610a535780601f10610a2857610100808354040283529160200191610a53565b820191906000526020600020905b815481529060010190602001808311610a3657829003601f168201915b5050505050908060010154908060030160009054906101000a900473ffffffffffffffffffffffffffffffffffffffff16908060060154908060070154908060080154905086565b600060606000806000600680549050905060005b81811015610bcc57600060068281548110610acd57610acc61322a565b5b90600052602060002001549050600060046000838152602001908152602001600020905060008160060154905081600401600082815260200190815260200160002060040160149054906101000a900460ff168015610b51575061012c82600401600083815260200190815260200160002060050154610b4d9190613259565b4210155b15610b5b57600195505b6103848260070154610b6d9190613259565b4210158015610bb25750600082600601541480610bb157508160040160008360060154815260200190815260200160002060040160149054906101000a900460ff16155b5b15610bbc57600196505b5050508080600101915050610aaf565b508280610bd65750815b94505050509250929050565b610bea6121ad565b610bf4600061222b565b565b813373ffffffffffffffffffffffffffffffffffffffff166004600083815260200190815260200160002060030160009054906101000a900473ffffffffffffffffffffffffffffffffffffffff1673ffffffffffffffffffffffffffffffffffffffff1614610c9b576040517f08c379a0000000000000000000000000000000000000000000000000000000008152600401610c92906132ff565b60405180910390fd5b82610ca660016120b9565b8110610ce7576040517f08c379a0000000000000000000000000000000000000000000000000000000008152600401610cde9061336b565b60405180910390fd5b600073ffffffffffffffffffffffffffffffffffffffff168373ffffffffffffffffffffffffffffffffffffffff1603610d56576040517f08c379a0000000000000000000000000000000000000000000000000000000008152600401610d4d906133d7565b60405180910390fd5b6000600560008573ffffffffffffffffffffffffffffffffffffffff1673ffffffffffffffffffffffffffffffffffffffff1681526020019081526020016000205414610dd8576040517f08c379a0000000000000000000000000000000000000000000000000000000008152600401610dcf90613443565b60405180910390fd5b60046000858152602001908152602001600020600201839080600181540180825580915050600190039060005260206000200160009091909190916101000a81548173ffffffffffffffffffffffffffffffffffffffff021916908373ffffffffffffffffffffffffffffffffffffffff16021790555083600560008573ffffffffffffffffffffffffffffffffffffffff1673ffffffffffffffffffffffffffffffffffffffff1681526020019081526020016000208190555050505050565b600082610ea660016120b9565b8110610ee7576040517f08c379a0000000000000000000000000000000000000000000000000000000008152600401610ede9061336b565b60405180910390fd5b600060046000868152602001908152602001600020905060005b8160020180549050811015610f9b578473ffffffffffffffffffffffffffffffffffffffff16826002018281548110610f3d57610f3c61322a565b5b9060005260206000200160009054906101000a900473ffffffffffffffffffffffffffffffffffffffff1673ffffffffffffffffffffffffffffffffffffffff1603610f8e57600193505050610fa2565b8080600101915050610f01565b5060009250505b5092915050565b80610fb460016120b9565b8110610ff5576040517f08c379a0000000000000000000000000000000000000000000000000000000008152600401610fec9061336b565b60405180910390fd5b6000600460008481526020019081526020016000209050600081600601549050600082600401600083815260200190815260200160002090508060040160149054906101000a900460ff1661107f576040517f08c379a0000000000000000000000000000000000000000000000000000000008152600401611076906134af565b60405180910390fd5b80600501544210156110c6576040517f08c379a00000000000000000000000000000000000000000000000000000000081526004016110bd9061351b565b60405180910390fd5b60008060005b85600201805490508110156111bf5760008660020182815481106110f3576110f261322a565b5b9060005260206000200160009054906101000a900473ffffffffffffffffffffffffffffffffffffffff169050828560020160008373ffffffffffffffffffffffffffffffffffffffff1673ffffffffffffffffffffffffffffffffffffffff1681526020019081526020016000205411156111b1578460020160008273ffffffffffffffffffffffffffffffffffffffff1673ffffffffffffffffffffffffffffffffffffffff1681526020019081526020016000205492508093505b5080806001019150506110cc565b50600073ffffffffffffffffffffffffffffffffffffffff168273ffffffffffffffffffffffffffffffffffffffff161461127b57818560030160006101000a81548173ffffffffffffffffffffffffffffffffffffffff021916908373ffffffffffffffffffffffffffffffffffffffff160217905550818360040160006101000a81548173ffffffffffffffffffffffffffffffffffffffff021916908373ffffffffffffffffffffffffffffffffffffffff1602179055505b60008360040160146101000a81548160ff02191690831515021790555050505050505050565b606080600060606000806000876112b860016120b9565b81106112f9576040517f08c379a00000000000000000000000000000000000000000000000000000000081526004016112f09061336b565b60405180910390fd5b6000600460008b8152602001908152602001600020905080600001816002018260030160009054906101000a900473ffffffffffffffffffffffffffffffffffffffff168360050184600601548560070154866008015486805461135c90612f18565b80601f016020809104026020016040519081016040528092919081815260200182805461138890612f18565b80156113d55780601f106113aa576101008083540402835291602001916113d5565b820191906000526020600020905b8154815290600101906020018083116113b857829003601f168201915b505050505096508580548060200260200160405190810160405280929190818152602001828054801561145d57602002820191906000526020600020905b8160009054906101000a900473ffffffffffffffffffffffffffffffffffffffff1673ffffffffffffffffffffffffffffffffffffffff1681526020019060010190808311611413575b50505050509550838054806020026020016040519081016040528092919081815260200182805480156114af57602002820191906000526020600020905b81548152602001906001019080831161149b575b5050505050935098509850985098509850985098505050919395979092949650565b60008060009054906101000a900473ffffffffffffffffffffffffffffffffffffffff16905090565b60608161150760016120b9565b8110611548576040517f08c379a000000000000000000000000000000000000000000000000000000000815260040161153f9061336b565b60405180910390fd5b600460008481526020019081526020016000206002018054806020026020016040519081016040528092919081815260200182805480156115de57602002820191906000526020600020905b8160009054906101000a900473ffffffffffffffffffffffffffffffffffffffff1673ffffffffffffffffffffffffffffffffffffffff1681526020019060010190808311611594575b5050505050915050919050565b606080606080606080600060068054905090508067ffffffffffffffff81111561161857611617612326565b5b6040519080825280602002602001820160405280156116465781602001602082028036833780820191505090505b5096508067ffffffffffffffff81111561166357611662612326565b5b60405190808252806020026020018201604052801561169657816020015b60608152602001906001900390816116815790505b5095508067ffffffffffffffff8111156116b3576116b2612326565b5b6040519080825280602002602001820160405280156116e15781602001602082028036833780820191505090505b5094508067ffffffffffffffff8111156116fe576116fd612326565b5b60405190808252806020026020018201604052801561173157816020015b606081526020019060019003908161171c5790505b5093508067ffffffffffffffff81111561174e5761174d612326565b5b60405190808252806020026020018201604052801561177c5781602001602082028036833780820191505090505b5092508067ffffffffffffffff81111561179957611798612326565b5b6040519080825280602002602001820160405280156117c75781602001602082028036833780820191505090505b50915060005b81811015611a4e576000600682815481106117eb576117ea61322a565b5b90600052602060002001549050600060046000838152602001908152602001600020905080600101548a84815181106118275761182661322a565b5b60200260200101818152505080600001805461184290612f18565b80601f016020809104026020016040519081016040528092919081815260200182805461186e90612f18565b80156118bb5780601f10611890576101008083540402835291602001916118bb565b820191906000526020600020905b81548152906001019060200180831161189e57829003601f168201915b50505050508984815181106118d3576118d261322a565b5b60200260200101819052508060030160009054906101000a900473ffffffffffffffffffffffffffffffffffffffff168884815181106119165761191561322a565b5b602002602001019073ffffffffffffffffffffffffffffffffffffffff16908173ffffffffffffffffffffffffffffffffffffffff1681525050806002018054806020026020016040519081016040528092919081815260200182805480156119d457602002820191906000526020600020905b8160009054906101000a900473ffffffffffffffffffffffffffffffffffffffff1673ffffffffffffffffffffffffffffffffffffffff168152602001906001019080831161198a575b50505050508784815181106119ec576119eb61322a565b5b60200260200101819052508060070154868481518110611a0f57611a0e61322a565b5b6020026020010181815250508060080154858481518110611a3357611a3261322a565b5b602002602001018181525050505080806001019150506117cd565b5050909192939495565b60056020528060005260406000206000915090505481565b80611a7b60016120b9565b8110611abc576040517f08c379a0000000000000000000000000000000000000000000000000000000008152600401611ab39061336b565b60405180910390fd5b60006004600084815260200190815260200160002090506103848160070154611ae59190613259565b421015611b27576040517f08c379a0000000000000000000000000000000000000000000000000000000008152600401611b1e906135ad565b60405180910390fd5b600081600601541480611b6157508060040160008260060154815260200190815260200160002060040160149054906101000a900460ff16155b611ba0576040517f08c379a0000000000000000000000000000000000000000000000000000000008152600401611b9790613619565b60405180910390fd5b6000611bac60026120b9565b90506000826004016000838152602001908152602001600020905081816000018190555060018160040160146101000a81548160ff02191690831515021790555061012c42611bfb9190613259565b81600501819055508183600601819055504283600701819055508060050154836008018190555082600501829080600181540180825580915050600190039060005260206000200160009091909190915055611c576002612197565b5050505050565b81611c698133610e99565b611ca8576040517f08c379a0000000000000000000000000000000000000000000000000000000008152600401611c9f906136ab565b60405180910390fd5b82611cb360016120b9565b8110611cf4576040517f08c379a0000000000000000000000000000000000000000000000000000000008152600401611ceb9061336b565b60405180910390fd5b600060046000868152602001908152602001600020905060008160060154905081600401600082815260200190815260200160002060040160149054906101000a900460ff16611d79576040517f08c379a0000000000000000000000000000000000000000000000000000000008152600401611d70906134af565b60405180910390fd5b816004016000828152602001908152602001600020600501544210611dd3576040517f08c379a0000000000000000000000000000000000000000000000000000000008152600401611dca90613717565b60405180910390fd5b611ddd8686610e99565b611e1c576040517f08c379a0000000000000000000000000000000000000000000000000000000008152600401611e1390613783565b60405180910390fd5b81600401600082815260200190815260200160002060010160003373ffffffffffffffffffffffffffffffffffffffff1673ffffffffffffffffffffffffffffffffffffffff16815260200190815260200160002060009054906101000a900460ff1615611ebf576040517f08c379a0000000000000000000000000000000000000000000000000000000008152600401611eb6906137ef565b60405180910390fd5b60008260040160008381526020019081526020016000209050858160030160003373ffffffffffffffffffffffffffffffffffffffff1673ffffffffffffffffffffffffffffffffffffffff16815260200190815260200160002060006101000a81548173ffffffffffffffffffffffffffffffffffffffff021916908373ffffffffffffffffffffffffffffffffffffffff1602179055508060020160008773ffffffffffffffffffffffffffffffffffffffff1673ffffffffffffffffffffffffffffffffffffffff1681526020019081526020016000206000815480929190611faa9061380f565b919050555060018160010160003373ffffffffffffffffffffffffffffffffffffffff1673ffffffffffffffffffffffffffffffffffffffff16815260200190815260200160002060006101000a81548160ff02191690831515021790555050505050505050565b6006818154811061202257600080fd5b906000526020600020016000915090505481565b61203e6121ad565b600073ffffffffffffffffffffffffffffffffffffffff168173ffffffffffffffffffffffffffffffffffffffff16036120ad576040517f08c379a00000000000000000000000000000000000000000000000000000000081526004016120a4906138c9565b60405180910390fd5b6120b68161222b565b50565b600081600001549050919050565b600080600090505b600460008081526020019081526020016000206002018054905081101561218c578273ffffffffffffffffffffffffffffffffffffffff1660046000808152602001908152602001600020600201828154811061212f5761212e61322a565b5b9060005260206000200160009054906101000a900473ffffffffffffffffffffffffffffffffffffffff1673ffffffffffffffffffffffffffffffffffffffff160361217f576000915050612192565b80806001019150506120cf565b50600190505b919050565b6001816000016000828254019250508190555050565b6121b56122ef565b73ffffffffffffffffffffffffffffffffffffffff166121d36114d1565b73ffffffffffffffffffffffffffffffffffffffff1614612229576040517f08c379a000000000000000000000000000000000000000000000000000000000815260040161222090613935565b60405180910390fd5b565b60008060009054906101000a900473ffffffffffffffffffffffffffffffffffffffff169050816000806101000a81548173ffffffffffffffffffffffffffffffffffffffff021916908373ffffffffffffffffffffffffffffffffffffffff1602179055508173ffffffffffffffffffffffffffffffffffffffff168173ffffffffffffffffffffffffffffffffffffffff167f8be0079c531659141344cd1fd0a4f28419497f9722a3daafe3b4186f6b6457e060405160405180910390a35050565b600033905090565b6000604051905090565b600080fd5b600080fd5b600080fd5b600080fd5b6000601f19601f8301169050919050565b7f4e487b7100000000000000000000000000000000000000000000000000000000600052604160045260246000fd5b61235e82612315565b810181811067ffffffffffffffff8211171561237d5761237c612326565b5b80604052505050565b60006123906122f7565b905061239c8282612355565b919050565b600067ffffffffffffffff8211156123bc576123bb612326565b5b6123c582612315565b9050602081019050919050565b82818337600083830152505050565b60006123f46123ef846123a1565b612386565b9050828152602081018484840111156124105761240f612310565b5b61241b8482856123d2565b509392505050565b600082601f8301126124385761243761230b565b5b81356124488482602086016123e1565b91505092915050565b60006020828403121561246757612466612301565b5b600082013567ffffffffffffffff81111561248557612484612306565b5b61249184828501612423565b91505092915050565b6000819050919050565b6124ad8161249a565b81146124b857600080fd5b50565b6000813590506124ca816124a4565b92915050565b600080604083850312156124e7576124e6612301565b5b60006124f5858286016124bb565b9250506020612506858286016124bb565b9150509250929050565b600073ffffffffffffffffffffffffffffffffffffffff82169050919050565b600061253b82612510565b9050919050565b61254b81612530565b82525050565b60008115159050919050565b61256681612551565b82525050565b6125758161249a565b82525050565b60006060820190506125906000830186612542565b61259d602083018561255d565b6125aa604083018461256c565b949350505050565b600080fd5b600080fd5b60008083601f8401126125d2576125d161230b565b5b8235905067ffffffffffffffff8111156125ef576125ee6125b2565b5b60208301915083600182028301111561260b5761260a6125b7565b5b9250929050565b6000806020838503121561262957612628612301565b5b600083013567ffffffffffffffff81111561264757612646612306565b5b612653858286016125bc565b92509250509250929050565b60006020828403121561267557612674612301565b5b6000612683848285016124bb565b91505092915050565b60006080820190506126a1600083018761256c565b6126ae6020830186612542565b6126bb604083018561255d565b6126c8606083018461256c565b95945050505050565b600081519050919050565b600082825260208201905092915050565b60005b8381101561270b5780820151818401526020810190506126f0565b60008484015250505050565b6000612722826126d1565b61272c81856126dc565b935061273c8185602086016126ed565b61274581612315565b840191505092915050565b600060c082019050818103600083015261276a8189612717565b9050612779602083018861256c565b6127866040830187612542565b612793606083018661256c565b6127a0608083018561256c565b6127ad60a083018461256c565b979650505050505050565b600081519050919050565b600082825260208201905092915050565b60006127df826127b8565b6127e981856127c3565b93506127f98185602086016126ed565b61280281612315565b840191505092915050565b6000604082019050612822600083018561255d565b818103602083015261283481846127d4565b90509392505050565b61284681612530565b811461285157600080fd5b50565b6000813590506128638161283d565b92915050565b600080604083850312156128805761287f612301565b5b600061288e858286016124bb565b925050602061289f85828601612854565b9150509250929050565b60006020820190506128be600083018461255d565b92915050565b600081519050919050565b600082825260208201905092915050565b6000819050602082019050919050565b6128f981612530565b82525050565b600061290b83836128f0565b60208301905092915050565b6000602082019050919050565b600061292f826128c4565b61293981856128cf565b9350612944836128e0565b8060005b8381101561297557815161295c88826128ff565b975061296783612917565b925050600181019050612948565b5085935050505092915050565b600081519050919050565b600082825260208201905092915050565b6000819050602082019050919050565b6129b78161249a565b82525050565b60006129c983836129ae565b60208301905092915050565b6000602082019050919050565b60006129ed82612982565b6129f7818561298d565b9350612a028361299e565b8060005b83811015612a33578151612a1a88826129bd565b9750612a25836129d5565b925050600181019050612a06565b5085935050505092915050565b600060e0820190508181036000830152612a5a818a612717565b90508181036020830152612a6e8189612924565b9050612a7d6040830188612542565b8181036060830152612a8f81876129e2565b9050612a9e608083018661256c565b612aab60a083018561256c565b612ab860c083018461256c565b98975050505050505050565b6000602082019050612ad96000830184612542565b92915050565b60006020820190508181036000830152612af98184612924565b905092915050565b600081519050919050565b600082825260208201905092915050565b6000819050602082019050919050565b600082825260208201905092915050565b6000612b49826126d1565b612b538185612b2d565b9350612b638185602086016126ed565b612b6c81612315565b840191505092915050565b6000612b838383612b3e565b905092915050565b6000602082019050919050565b6000612ba382612b01565b612bad8185612b0c565b935083602082028501612bbf85612b1d565b8060005b85811015612bfb5784840389528151612bdc8582612b77565b9450612be783612b8b565b925060208a01995050600181019050612bc3565b50829750879550505050505092915050565b600081519050919050565b600082825260208201905092915050565b6000819050602082019050919050565b600082825260208201905092915050565b6000612c55826128c4565b612c5f8185612c39565b9350612c6a836128e0565b8060005b83811015612c9b578151612c8288826128ff565b9750612c8d83612917565b925050600181019050612c6e565b5085935050505092915050565b6000612cb48383612c4a565b905092915050565b6000602082019050919050565b6000612cd482612c0d565b612cde8185612c18565b935083602082028501612cf085612c29565b8060005b85811015612d2c5784840389528151612d0d8582612ca8565b9450612d1883612cbc565b925060208a01995050600181019050612cf4565b50829750879550505050505092915050565b600060c0820190508181036000830152612d5881896129e2565b90508181036020830152612d6c8188612b98565b90508181036040830152612d808187612924565b90508181036060830152612d948186612cc9565b90508181036080830152612da881856129e2565b905081810360a0830152612dbc81846129e2565b9050979650505050505050565b600060208284031215612ddf57612dde612301565b5b6000612ded84828501612854565b91505092915050565b6000602082019050612e0b600083018461256c565b92915050565b7f496e636f727265637420616d6f756e742073656e740000000000000000000000600082015250565b6000612e476015836126dc565b9150612e5282612e11565b602082019050919050565b60006020820190508181036000830152612e7681612e3a565b9050919050565b7f596f752061726520696e206f7468657220636c616e0000000000000000000000600082015250565b6000612eb36015836126dc565b9150612ebe82612e7d565b602082019050919050565b60006020820190508181036000830152612ee281612ea6565b9050919050565b7f4e487b7100000000000000000000000000000000000000000000000000000000600052602260045260246000fd5b60006002820490506001821680612f3057607f821691505b602082108103612f4357612f42612ee9565b5b50919050565b60008190508160005260206000209050919050565b60006020601f8301049050919050565b600082821b905092915050565b600060088302612fab7fffffffffffffffffffffffffffffffffffffffffffffffffffffffffffffffff82612f6e565b612fb58683612f6e565b95508019841693508086168417925050509392505050565b6000819050919050565b6000612ff2612fed612fe88461249a565b612fcd565b61249a565b9050919050565b6000819050919050565b61300c83612fd7565b61302061301882612ff9565b848454612f7b565b825550505050565b600090565b613035613028565b613040818484613003565b505050565b5b818110156130645761305960008261302d565b600181019050613046565b5050565b601f8211156130a95761307a81612f49565b61308384612f5e565b81016020851015613092578190505b6130a661309e85612f5e565b830182613045565b50505b505050565b600082821c905092915050565b60006130cc600019846008026130ae565b1980831691505092915050565b60006130e583836130bb565b9150826002028217905092915050565b6130fe826126d1565b67ffffffffffffffff81111561311757613116612326565b5b6131218254612f18565b61312c828285613068565b600060209050601f83116001811461315f576000841561314d578287015190505b61315785826130d9565b8655506131bf565b601f19841661316d86612f49565b60005b8281101561319557848901518255600182019150602085019450602081019050613170565b868310156131b257848901516131ae601f8916826130bb565b8355505b6001600288020188555050505b505050505050565b7f4e487b7100000000000000000000000000000000000000000000000000000000600052601160045260246000fd5b60006132018261249a565b915061320c8361249a565b9250828203905081811115613224576132236131c7565b5b92915050565b7f4e487b7100000000000000000000000000000000000000000000000000000000600052603260045260246000fd5b60006132648261249a565b915061326f8361249a565b9250828201905080821115613287576132866131c7565b5b92915050565b7f596f7520617265206e6f7420746865206c6561646572206f662074686973206360008201527f6c616e2100000000000000000000000000000000000000000000000000000000602082015250565b60006132e96024836126dc565b91506132f48261328d565b604082019050919050565b60006020820190508181036000830152613318816132dc565b9050919050565b7f436c616e20646f6573206e6f7420657869737400000000000000000000000000600082015250565b60006133556013836126dc565b91506133608261331f565b602082019050919050565b6000602082019050818103600083015261338481613348565b9050919050565b7f496e76616c6964206d656d626572206164647265737300000000000000000000600082015250565b60006133c16016836126dc565b91506133cc8261338b565b602082019050919050565b600060208201905081810360008301526133f0816133b4565b9050919050565b7f5573657220697320616c726561647920696e206120636c616e00000000000000600082015250565b600061342d6019836126dc565b9150613438826133f7565b602082019050919050565b6000602082019050818103600083015261345c81613420565b9050919050565b7f4e6f2061637469766520766f746520696e2070726f6772657373000000000000600082015250565b6000613499601a836126dc565b91506134a482613463565b602082019050919050565b600060208201905081810360008301526134c88161348c565b9050919050565b7f54686520766f7465206973207374696c6c206f6e676f696e6700000000000000600082015250565b60006135056019836126dc565b9150613510826134cf565b602082019050919050565b60006020820190508181036000830152613534816134f8565b9050919050565b7f4120766f74652063616e206f6e6c792062652063726561746564206f6e63652060008201527f61206d6f6e746800000000000000000000000000000000000000000000000000602082015250565b60006135976027836126dc565b91506135a28261353b565b604082019050919050565b600060208201905081810360008301526135c68161358a565b9050919050565b7f4120766f746520697320616c7265616479206163746976650000000000000000600082015250565b60006136036018836126dc565b915061360e826135cd565b602082019050919050565b60006020820190508181036000830152613632816135f6565b9050919050565b7f596f7520617265206e6f742061206d656d626572206f66207468697320636c6160008201527f6e00000000000000000000000000000000000000000000000000000000000000602082015250565b60006136956021836126dc565b91506136a082613639565b604082019050919050565b600060208201905081810360008301526136c481613688565b9050919050565b7f54686520766f74652068617320656e6465640000000000000000000000000000600082015250565b60006137016012836126dc565b915061370c826136cb565b602082019050919050565b60006020820190508181036000830152613730816136f4565b9050919050565b7f43616e646964617465206973206e6f74206120636c616e206d656d6265720000600082015250565b600061376d601e836126dc565b915061377882613737565b602082019050919050565b6000602082019050818103600083015261379c81613760565b9050919050565b7f596f75206861766520616c726561647920766f74656400000000000000000000600082015250565b60006137d96016836126dc565b91506137e4826137a3565b602082019050919050565b60006020820190508181036000830152613808816137cc565b9050919050565b600061381a8261249a565b91507fffffffffffffffffffffffffffffffffffffffffffffffffffffffffffffffff820361384c5761384b6131c7565b5b600182019050919050565b7f4f776e61626c653a206e6577206f776e657220697320746865207a65726f206160008201527f6464726573730000000000000000000000000000000000000000000000000000602082015250565b60006138b36026836126dc565b91506138be82613857565b604082019050919050565b600060208201905081810360008301526138e2816138a6565b9050919050565b7f4f776e61626c653a2063616c6c6572206973206e6f7420746865206f776e6572600082015250565b600061391f6020836126dc565b915061392a826138e9565b602082019050919050565b6000602082019050818103600083015261394e81613912565b905091905056fea26469706673582212204eb934184e424ba472d9a6eabe65a5affe6829a8d14d30c8e0a905dee684f92564736f6c63430008180033",
  "linkReferences": {},
  "deployedLinkReferences": {}
}